:020000040800F2
:1000000000000120A1790008C9790008C979000819
:10001000C9790008C9790008C97900080000000002
:10002000000000000000000000000000C979000886
:10003000C979000800000000C9790008C9790008E2
:10004000C9790008C9790008C9790008C979000888
:10005000C9790008C9790008C9790008C979000878
:10006000C9790008C9790008C9790008C979000868
:10007000C9790008C9790008C9790008C979000858
:10008000C9790008C9790008C9790008C979000848
:10009000C9790008C9790008C9790008C979000838
:1000A000C9790008C9790008C9790008C979000828
:1000B00069580008C9790008C9790008C979000899
:1000C000C9790008C9790008C9790008C979000808
:1000D000C97900087D070020C9790008C97900089E
:1000E000C9790008C9790008C97900080000000032
:1000F0000000000000000000000000000000000000
:100100000000000000000000C9790008C97900085B
:10011000C9790008C9790008C9790008C9790008B7
:10012000C9790008C9790008C9790008C9790008A7
:10013000C97900080000000000000000C97900082B
:10014000C9790008C9790008C9790008C979000887
:10015000000000000000000000000000000000009F
:10016000000000000000000000000000000000008F
:10017000000000000000000000000000000000007F
:10018000000000000000000000000000000000006F
:10019000000000000000000000000000000000005F
:1001A000000000000000000000000000000000004F
:1001B000000000000000000000000000000000003F
:1001C000000000000000000000000000000000002F
:1001D000000000000000000000000000000000001F
:1001E0005FF8E0F1044B05481B1A062B02D9044BBB
:1001F00003B11847704700BF6B0900206809002051
:100200000000000005490648091A891001EBD17168
:10021000491002D0034B03B118477047680900200A
:10022000680900200000000010B5064C237843B98F
:10023000FFF7D8FF044B13B10448AFF3008001234C
:10024000237010BD6809002000000000E4C700080A
:1002500008B5084B1BB108490848AFF300800848AF
:10026000036813B9BDE80840CCE7064B002BF9D072
:100270009847F7E7000000006C090020E4C7000879
:100280006409002000000000134B002B08BF114B35
:100290009D46A3F5803A00218B460F461148124A2D
:1002A000121A08F011F80D4B002B00D098470C4B98
:1002B000002B00D098470020002104000D000B48BF
:1002C00007F09CFF07F0C8FF2000290000F010F89D
:1002D00007F09AFF00000800000001200000000065
:1002E0000000000068090020F8AE002031820008FC
:1002F00040F27121BC4B2DE980489A69B7B042F4B5
:1003000080429A61B94A916042F22C01D160B84AA8
:10031000202151600193B74A91685368994200F0D7
:100320007D86116893680139581CB34E0B4090606C
:1003300013441B7B96F80011DBB251B9E02B03BFCD
:100340003370012386F8003186F8001186F8011118
:10035000E1E7012906D1737086F80131022386F89E
:100360000031D8E7481C96F80121C0B2824273548C
:1003700086F80001CFD1B378182B00F09D8425D8E2
:10038000042B00F0DB830DD8012B4FF0000447D085
:10039000C0F07081022B00F08B81032B00F0ED8206
:1003A00000F00DBE102B00F0458407D8082B00F09C
:1003B0001B830A2B00F0CA8300F001BE112B00F052
:1003C0005384132B00F0668400F0F9BD302B00F04D
:1003D000828513D81D2B00F0F08407D81A2B00F06B
:1003E000A2841C2B00F0288500F0E9BD1E2B00F034
:1003F0003685202B00F04F8500F0E1BD502B00F03A
:10040000B88507D8312B00F08285402B00F0988505
:1004100000F0D5BD903B012B40F2D48500F0CFBD5C
:10042000E0218DF84230754B8DF840100D21744A53
:100430008DF841101978C2F828438DF8434011B166
:1004400001238DF843306F4C23782BB19DF8433056
:1004500043F002038DF84330DFF8E48198F8003070
:100460002BB19DF8433043F004038DF84330664FC1
:100470003B782BB19DF8433043F008038DF84330AF
:10048000624E33782BB19DF8433043F010038DF862
:1004900043305F4D2B782BB19DF8433043F0200360
:1004A0008DF843305B4BB2F822C31B784FF0000E3F
:1004B0008DF84430584BB2F824031B78A2F822E39D
:1004C0008DF84530A2F824E3BCF1000F03D043F0CF
:1004D00002038DF84530537D4FF0000E82F815E091
:1004E0002BB19DF8453043F004038DF8453092F868
:1004F00029304FF0000E82F829E02BB19DF84530ED
:1005000043F008038DF8453092F82C332BB19DF859
:10051000453043F010038DF8453028B19DF8453043
:1005200043F020038DF845303C4B9DF845201B7867
:10053000002B0CBF0023402313438DF8453041B1FD
:10054000374805F00CF90D23B0FBF3F08DF84600A9
:1005500001E08DF846102378E3B1324B1B786BB184
:10056000314805F0FCF82324B0FBF4F08DF8470087
:100570002E4805F0F4F8B0FBF4F008E00A232C480C
:100580008DF8473005F0EBF82323B0FBF3F08DF83E
:10059000480003E08DF847308DF8483098F8003077
:1005A00043B1244805F0DBF87823B0FBF3F08DF875
:1005B000490001E08DF849303B7843B11E4805F011
:1005C000CEF8D823B0FBF3F08DF84A0001E08DF8A7
:1005D0004A303378B3B3194805F0C1F83023B0FB83
:1005E000F3F08DF84B002FE000100240003801407E
:1005F00000E100E0E4010020703E00200E07002032
:1006000048360020F0080020F108002010070020E4
:10061000F002002078390020C42600204436002053
:10062000843F0020E2010020D8250020E82500209A
:100630007C390020080A0020245B0020C8A8002084
:100640000F0700208DF84B302B7843B1424805F05E
:1006500086F84423B0FBF3F08DF84C0001E08DF8F0
:100660004C303E4B0D2110A898473D4B00221A609C
:1006700000F0A8BCE0238DF840303A4A01238DF801
:1006800043308DF842400023D8B2145C191DC9B222
:10069000013324B136A8014401F8984CF4E72F4BFC
:1006A00010A88DF8411098472D4B1C6000F08ABCB3
:1006B0000239112941F27683F5782B49C5F30013ED
:1006C00086F802317379322B01F26C830A798979C9
:1006D00002F0200002F0020A02F0040C02F0080E00
:1006E00002F01007C0B206295FFA8AFA5FFA8CFCA2
:1006F0005FFA8EFEFFB200900CD9A1F15B04E4B268
:100700000A2C01F24F8340F2BF5828FA04F414F087
:10071000010F03E0012904D112F0010F01F042831F
:100720002AE0022904D1BAF1000F01F03B8323E053
:10073000032904D1BCF1000F01F034831CE004292B
:1007400004D1BEF1000F01F02D8315E005290DD174
:10075000002F01F027830FE028420020150700201A
:100760001800274264880008703E0020062903D143
:100770000098002801F01683767AA94C0F2E01F21A
:100780001183E07902F001020290207A1AF1000A46
:100790000390207B18BF4FF0010A0490607B1CF18E
:1007A000000C0590A07B18BF4FF0010C0690E07B79
:1007B0001EF1000E0790607C18BF4FF0010E0890EC
:1007C000A07C00370990974818BF0127017096490F
:1007D00094F80A800A70954A954982F800A0954AD3
:1007E00094F810B082F800C0934A94F8139082F8FD
:1007F00000E0924A247D1770009A914F101C914A94
:1008000018BF01201070EA43C2F3C0120A7003EB54
:10081000430251008C4801F5967189B29200A0F80C
:10082000A01202F51672894892B2A7F8F024A0F837
:1008300074250C225A43864802F51672C0F8F0243B
:10084000844A03EB4303A2F888155B08824A4833C5
:100850003046A2F83C3202F081FC804B1FFA88F847
:1008600083F84367A3F844877D4B7E4AA3F8008052
:100870007D4B167083F8776B7C4BC5F3800283F851
:100880004C65C5F3C00387F8F2344FF4966303FB5D
:1008900009F3C7F8F434764B039983F80423029ADA
:1008A000C9014FEAC218099AA3F808134FEAC21EF9
:1008B000089A049902F5F06C0598EA07069E079FCE
:1008C00048BFC8F10002A3F806834FEAC1114FEAFE
:1008D000C0104FEAC6164FEAC7174FEAC414A3F870
:1008E00016C348BFA3F806230BF5F06CAA07A3F8BC
:1008F0000A13A3F80C03A3F80E63A3F81073A3F86C
:1009000012E3A3F81443A3F818C312D54942404296
:1009100076427F42CEF1000E6442A3F80A13A3F898
:100920000C03A3F80E63A3F81073A3F812E3A3F863
:1009300014431978002940F00181019B019ADB6979
:100940004C4843F00103D3614FF080434FF4C04261
:100950009A60C72299624FF08054DA620122DA600D
:100960000460186810431860434B196043F8042C66
:100970003F4B1A7003F04AF8E0E0032801F01282BE
:10098000284BF0781B78834200F0D88006280DD9D8
:10099000A0F15B03DBB20A2B01F2048240F2BF52EA
:1009A00022FA03F3DE071CD401F0FCB9012801D1BF
:1009B0001D4B12E0022801D11C4B0EE0032801D18F
:1009C0001C4B0AE0042801D11B4B06E0052801D18D
:1009D0001A4B02E0062804D11A4B1B78002B01F0B9
:1009E000E18106F06DFBA9E00E4D2B78632B15D14C
:1009F000042847D1F378214C012B0CBF0127002795
:100A0000237805D13BB91E48638004F09DF802E0CD
:100A10000BB104F0D9F82770002434E0022432E04E
:100A2000703E0020783900200E070020F0080020DA
:100A3000E20100200F070020F1080020100700202D
:100A4000080A0020F0020020843F0020245B0020E0
:100A50007C390020C8A8002028420020D086002031
:100A6000689C0020679C00206844002078A3002038
:100A70004836002000E100E094812142340F00203C
:100A8000E08A000804242B78A3F15C02D2B2062A83
:100A900032D84D2121FA02F2D5071AD596F8012154
:100AA000042A15D1A94AD178A94A01290CBF0120ED
:100AB0000020107041F081825078002841F0CA82F5
:100AC00003F0FD005C2841F0C582517001F0C2BA0C
:100AD00004245D2B10D196F80131042B31D1F37829
:100AE000012B9C4B0CBF012200221A7026D1994B7E
:100AF0005A781ABB012210E05B2B10D196F8013115
:100B0000042B1ED1914BDA78934B012A0CBF0121A3
:100B10000021197012D1597881B95A700EE0652BF5
:100B20000BD196F80131042B0BD1884B8B4ADB7823
:100B30005C1E63426341137000E01CB902F08EFF3B
:100B400040E204242146864801F066B9854B1D78B1
:100B5000002D41F02A81844C0239CBB24FF47A72D5
:100B6000294620460093AA4607F0AEFB26462946B2
:100B70000822DFF824E2A4F8E823A4F8EA5384F872
:100B8000EC534FF00C0C0098CBB298423FD9774D04
:100B9000002003EB0509C7B20CFB07F7744D744B3B
:100BA0003D44DF5D7FB399F800800130B845F2D154
:100BB000134640F2E23995F808804FF00047981A42
:100BC000C0B2404520D268684FEAE30A37EA000025
:100BD00003F007001EF800B016F80A000CBF4BEA3D
:100BE000000020EA0B004B4506F80A0005D9002357
:100BF000A4F8E833042401F0D9B801339BB27F088C
:100C00004FF0010ADBE7134601311A46BBE7BAF1A0
:100C1000000F01D0A4F8E823B4F8E8130829E6D0BF
:100C2000514B053189B2A3F8E813524809B203F0D9
:100C300055FFC7E1504B1B788BB14A4D2B78012BE8
:100C40000DD82C2841F0B580484803F07DFF0446BC
:100C500030B92B78002B40F0B5810120ACE10224A3
:100C600021B2464801F0D8B8434B1B786BB13D4DDB
:100C70002B78012B09D80F2841F09E803B4803F0C8
:100C800083FF04460028E4D000E0022421B23C485F
:100C900001F0C2B8384B1B784BB1324D2B78012B89
:100CA00005D803F091FF04460028D2D000E00224CA
:100CB00021B2344801F0B0B8334B1B78002B01F05F
:100CC0007E80284D2B7813F0FD0F41F078802F4B5C
:100CD0001B78002B01F07380252A41F072802C488C
:100CE00004F03DFD202841F26E80294B93F8E82066
:100CF0002AB100221A8183F8E8205A811A731B4C0A
:100D000004F12107224E14F8011F304604F0E6FCDE
:100D1000BC42F7D11F4B1B78002B40F04A810123C6
:100D200086F84C3045E1184B1B78002B41D00D4D17
:100D30002B7813F0FD0F3CD1144B1B7873B30239A1
:100D4000C9B20A4803F03AFC2EE000BF703E002012
:100D5000080F0020040F0020C4090020B40900205F
:100D6000348B0008783900209C600020733E0020FE
:100D7000DC880008568B00080E070020728B0008E4
:100D8000918B0008AE8B0008F0080020E2010020E3
:100D9000D8250020C4260020F59A0008252841F017
:100DA00016808C4803F04AFD0446002800F00181BB
:100DB00000E0022421B201F008B8874B1B78002B19
:100DC00001F00880042841F00880F378012B16D147
:100DD000824A1278022A2AD1814A1178002940F0E9
:100DE000F180804A82F84C30C2F8DC10C2F8E01082
:100DF000C2F8E41082F8E81082F8E910E2E0B3B932
:100E0000764A1278022A12D1754A1278002A00F026
:100E1000D980744A82F84C30C2F8DC30C2F8E03035
:100E2000C2F8E43082F8E83082F8E930CAE00446DB
:100E300021466D4800F0F0BF674B1B78002B00F097
:100E4000CF870C2840F0CF87624803F083FB04462D
:100E5000002800F0B78021B2644800F0DDBF5E4B8F
:100E60001B78002B00F0C287042840F0C187F3787C
:100E70000022012B09D0022B40F0BC87594BC3F84C
:100E8000E420012283F8E9209CE05649C1F8E020E3
:100E900081F8E83096E0564B1B78002B00F0B587C0
:100EA0004E4D2B7813B1032B40F0AF877C2840F0D8
:100EB000AE87504804F053FC772840F2AA87454C8F
:100EC00004F1780614F8011F4A4804F007FCB44204
:100ED000F8D100F093BF484B1B789BB13F4D2B7866
:100EE00013F0FB0F0ED10239C9B2122940F29987D3
:100EF000384805F0EFFD044628B92B78002B61D166
:100F0000042059E0022421B23C4800F085BF3A4B4E
:100F10001B7883B1314D2B7813F0FB0F0BD10239C5
:100F2000C9B2122940F280872A4805F0D3FD044651
:100F30000028E2D000E0022421B2314800F06CBF6A
:100F4000304B1B7883B1254D2B780BB1052B0BD182
:100F5000342840F06C871F4806F04CFA044620B94C
:100F60002B787BBB052027E0022421B2264800F025
:100F700053BF264B1B78002B00F06387174D2B784F
:100F800013B1062B40F05D87472840F05C8720486E
:100F900004F0E5FB432840F258871E4C04F1440658
:100FA00014F8011F1A4804F099FBA642F8D100F08A
:100FB00041BF2B7833B9022006F082F802E001200D
:100FC00002F06AFD144B002283F8002183F801210E
:100FD000FFF7A1B9733E0020F00800207839002007
:100FE000C4260020D8250020E48B0008FF8B0008D1
:100FF0000F070020080A0020F10800201D8C0008BF
:10100000398C000810070020528C0008F0020020E4
:1010100028420020723E0020703E00204BF67F33B5
:10102000B54CD4F8282321789A4281BFB34B0022D3
:1010300083F8002183F80121D4F81C3325460133BD
:10104000AD4AC4F81C33002900F0CC824BF67F3344
:10105000D2F828239A421ED9A9490B785A1E052A8C
:1010600016D8022B10D1A74B1B786BB1A64B0022D0
:1010700083F84C20C3F8DC20C3F8E020C3F8E42058
:1010800083F8E82083F8E92000230B7002F0BEFC0F
:101090000023C4F828339D4B01221A609C4804F0B9
:1010A00092FA20B9974B1A78002A40F0D2869948D4
:1010B00004F089FA012840F2A282DFF83CA200265F
:1010C0000DF12C0910AC09EB06022146914804F001
:1010D0002DFAAA8EEB8E92B29BB29A4202D19AF866
:1010E0003830ABB1EB8E2A6B9BB232F813200DABCC
:1010F00023F81620002285F83820EB8EA98D0133C5
:101100009BB2EB86EB8E9BB2994201D8AAF83620AF
:1011100095F821335BB1BDF840301BB140F6FF724A
:10112000934204D1B5F822330133A5F82233B5F840
:101130001623BDF840300CAF9B1AB5F906231BB23D
:101140005343DB1303F30F0327F816300136022E47
:10115000DFF8A481B6D198F82C53002D40F04F82CF
:10116000674A13789246002B4BD16B4B1B7853B1D7
:10117000394608F168003346224606F011FE0DA9F3
:10118000204602F023F8654B1B784BB13946644882
:101190000223224606F004FE0DA9204604F0E0FFDB
:1011A000604B1B787BB102230EAA39465E4806F0DD
:1011B000F7FD0EA95D480223224606F0F1FD0DA9B8
:1011C000204605F0CFFA5A4D5A4E2B781BB933788A
:1011D000002B00F01482022322463946564806F0BE
:1011E000DFFD33781BB10DA9204602F0E7FF2B7815
:1011F000002B00F00482514B1B78002B00F0B980CB
:10120000B3E0012B10D1444B1B78002B00F0F78189
:10121000394608F168003346224606F0C1FD0DA9A3
:10122000204601F0D3FFEAE1022B40F0A780404BBB
:101230001B78002B00F0E38133462246394608F143
:101240005C0006F0ADFD3D4B1B78002B00F091805B
:101250002C4B1B78002B00F08880DFF8F080384E94
:10126000A8F1080A19F80530042B0DD0082B15D168
:101270000023A6F82237A6F82A37A6F82037C6F8A2
:101280002C3786F8413709E02E4A0023AAF80030AF
:10129000A8F800301380D36082F82130B6F82A37DE
:1012A000B6F8440701339BB20DF1340B984234F980
:1012B00015103BF81520A6F82A3705D996F8467779
:1012C000003718BF012703E01D4804F053FC074610
:1012D000B8F800301C480133B0F800E09BB29E45DE
:1012E00034F915103BF81520A8F8003030D9807873
:1012F000003018BF01202FE048360020703E00204B
:1013000078390020C4260020D82500209081214271
:10131000603600204C3600200E070020F108002027
:10132000BC36002010070020C8360020D43600202C
:10133000F00800200F070020A4360020E201002062
:10134000D0860020449C0020689C00204E9C0020F9
:10135000A0F2447004F00EFC0135022D82D1002F62
:1013600018BF384603F0A4FF49E1204605F05EF8B7
:1013700045E10DA9204602F071FD40E1032B10D19B
:10138000A94B1B78002B00F03A81394608F15C002C
:101390003346224606F004FD0DA9204602F00EFF5A
:1013A0002DE1042B10D1A14B1B78002B00F02781DD
:1013B000394608F174003346224606F0F1FC0DA9C7
:1013C000204604F0CDFE1AE1052B17D1984B1B786F
:1013D000002B00F0148133460EAA394608F1800034
:1013E00006F0DEFC0EA908F18C003346224606F01A
:1013F000D7FC0DA9204605F0B5F900E1632B40F0BC
:101400009B8033460DF138098A4E39464A4608F129
:10141000680006F0C5FC374639F915203379D10F3D
:101420008B4209D03368B3F5004F2ABF6FF4CC70FC
:1014300003F299131B1833603B68397103F54C5163
:101440003331B1F5803F01D2316070E0A3F54C43F8
:10145000CD3B3360B36897F83C105B00002AB8BFFF
:1014600043F00103B3604B1CDBB2172BB86887F85D
:101470003C3084BF002386F83C3020F07F436E4828
:1014800007EB410158408A8104F058FA022822D81B
:101490006A4B6B4903F1300E4FF47A5233F9020F65
:1014A0008142B8BF01468242A8BF02469E45F5D19F
:1014B0008B1A052B0FDD00238DF840300B128DF8B1
:1014C0004130204613128DF842108DF843308DF8CC
:1014D000442003F08BF9B86820F07F435948584006
:1014E00004F02CFA022822D8544B554903F1300E4F
:1014F0004FF47A5233F9020F8142B8BF014682425B
:10150000A8BF02467345F5D18B1A052B0FDD80234A
:101510008DF840300B128DF84130204613128DF8B3
:1015200042108DF843308DF8442003F05FF9013507
:10153000022D7FF471AF62E0602B60D1424DDFF885
:1015400028812E4600270DAB33F817206B68D11881
:101550006B8969609342338938BF6A81934288BF3F
:101560002A8145F6BF52336801339342336035D93F
:10157000B1FBF3F36A898DF83D30110A8DF83920FB
:101580002A898DF838108DF83B20110AC3F3072201
:101590009AF800308DF83A10602B8DF83C2016D167
:1015A000E0238DF8403009238DF8423000230EA946
:1015B000E218595C0133062BD170F8D10921234B75
:1015C00020468DF8411098470023C8F800304FF6A8
:1015D000FF72002333607360328173810137022F01
:1015E000B1D10CE01A48834209D992F82033C2F8ED
:1015F0001C1383F0010382F82033164A1360164B44
:10160000164D1B7823B12B78012B01D103F0F2FA90
:10161000134B1B7863B32B78022B29D1114B1B780A
:1016200023B301F0DBFC23E00F070020F1080020CA
:1016300010070020C809002068B4AA00D2090020C1
:1016400080C1FFFF974B5500B80900201507002007
:101650007FA90300908121420E07002078390020E5
:10166000F0080020E20100201800274203F0A8F94A
:10167000BC4B1F78002F77D02B78032B74D1BA4E38
:10168000304604F04CF8344630B9B6F8EC341BB9A7
:10169000D6F8F834002B67D0B6F8EC34DFF8C882FF
:1016A00053B9404604F03BF8002840F00384B6F8F4
:1016B000EC64002E00F0DA8303F05CF90646AB4FD1
:1016C000DFF8D482DFF8D492142E4DD9B4F8EE347A
:1016D00040F2657E5A1C2344A4F8EE2493F83C2083
:1016E00094F8F23440F2772C002B16BFBB46C34669
:1016F000CA469F4B16BF4FF46D7E9A464FF49E7CB0
:10170000002302F0C00080280EA900F0AC83C0289E
:1017100000F0A68300280CBF5846504621F813005D
:1017200001339200042BD2B2EBD110AA914806F0FB
:101730004DF90023142210A9032003F095F88E4BD5
:10174000143E1B78B6B21BB1D4F8F434C4F8F834A4
:10175000B4F8EE14B4F8EC24834B9142B4D30022D5
:10176000A3F8EE24A3F8EC24844B1B7823B12B7848
:10177000042B01D105F0CEF9814B1B7823B12B78D6
:10178000052B01D105F04CFE7E4B1E78B6B12B78AF
:101790007D4C062B06D0B4F838321BB9204603F036
:1017A000BEFF58B1784F384603F0B9FF002840F02B
:1017B000B483B7F83832002B40F0AF832B78632B1B
:1017C00040F03581714C03F015FA2378002B00F0BE
:1017D0002E816F4803F0C3FF0D23B0FBF3F0C0B2BE
:1017E000042840F224816B49002310A85A5C1A5443
:1017F00001330C2BFAD162881521B2FBF1F301FB06
:1018000013239BB2002B00F00781012A04D130235F
:101810008DF84930022305E0022A07D134238DF8E0
:10182000493019238DF84A30DE23F3E0032A04D12E
:1018300031238DF849306F23F4E7042A07D11F23A1
:101840008DF849302B238DF84A30F623E2E0052A43
:1018500004D132238DF8493022230FE0062A07D124
:1018600024238DF849302A238DF84A30E023D1E033
:10187000072A07D133238DF849303B238DF84A30AE
:10188000B323C7E0082A00F09780012B07D1252356
:101890008DF849304F238DF84A309323BAE0022B5C
:1018A00007D170238DF849300B238DF84A30DA23A5
:1018B000B0E0032B01D1252310E0042B04D1332306
:1018C0008DF849301B23D9E7052B04D125238DF84A
:1018D00049306F2341E0062B04D139238DF849307C
:1018E0001D2377E0072B07D125238DF849300C23E2
:1018F0008DF84A30C7238DE0082B04D150238DF892
:1019000049306F2308E0092A00F05C83092B07D1D6
:1019100025238DF849301E238DF84A30D02379E0F5
:101920000A2A00F052830A2B07D121238DF849306F
:101930000C238DF84A30C2236CE00B2A00F0488358
:101940000B2B01D1252338E00C2A00F044830C2B0B
:1019500026D13D238DF8493002238DF84A30D72314
:1019600058E000BF0F070020080A0020C4FEFFFF58
:101970009BF8FFFF180A0020E2010020F108002078
:1019800010070020F002002028420020340F002021
:10199000843F00200994000889FDFFFF4CFCFFFFF5
:1019A0000D2A00F01B830D2B01D1252337E70E2ACA
:1019B00000F017830E2B04D150238DF849306F238C
:1019C0005CE70F2A00F042830F2B07D125238DF807
:1019D00049301B238DF84A30D6231BE0102A0BD048
:1019E000102B07D123238DF849301B238DF84A3063
:1019F0003A230FE0112A06D0112B04D121238DF8B0
:101A00004930252303E016238DF8493029238DF82A
:101A10004A30F5238DF84B3003F0B6F840F27621CA
:101A200063880133B3FBF1F201FB123363802B783F
:101A3000622B07D05F2B05D05E2B10D05C2B40F0C3
:101A4000F0809DE09A4B1A789A4B2AB1052283F8D0
:101A50004C2001F0C3FAE4E083F84C20E1E001F00F
:101A6000BDFA954803F07BFE2323B0FBF3F010F0A2
:101A7000FF0F00F0D6808E4C6378013B032B00F201
:101A8000C980DFE803F0021C5761012001F066FB0A
:101A90008A4802F05FFD2221894802F08FFD854BC4
:101AA000012283F84C200022C3F8DC20C3F8E02098
:101AB000C3F8E42083F8E82083F8E92076E094F87E
:101AC0002A00DFF830E2C0EBC0000EEB00014B78DB
:101AD000A27DE3758B78764E2376CB7863760B798F
:101AE000A3764B79E376237F03F00F0722F00F03F1
:101AF0001EF8002006F1080002F00F021A438B794D
:101B0000222123F00F033B432377A27502F056FDF9
:101B100094F82A30052B09D1002386F82A3033782F
:101B2000002B7ED1624B03225A707AE0013386F893
:101B30002A3076E02221634802F040FD5D4BD3F865
:101B4000DC306360042366E05A4A6368D2F8DC0044
:101B50001E338342564964D20023138382F84C30EB
:101B60005383C2F8DC30C2F8E030C2F8E43082F8C7
:101B7000E83082F8E930137781F82A304B7050E072
:101B800002F01EFF504803F0EAFD2323B0FBF3F000
:101B900010F0FF0F45D0464C6378022B08D0032B82
:101BA00035D0012B39D1494802F048FE022332E0FA
:101BB00094F82A00464BC0EBC00019184A78277FDA
:101BC000E2758A7807F00F072276CA7862760A797A
:101BD000A2764A79E276A27D22F00F061A5C8B7912
:101BE00002F00F0223F00F033B43324304F10800DD
:101BF0002377A27502F022FE94F82A30052B04D137
:101C0000002384F82A3023788AE7013307E031483B
:101C100002F014FE0023637003E00023637084F875
:101C20002A302B785D2B21D104F074FF2A4803F071
:101C300096FDD823B0FBF3F010F0FF0F16D0274C21
:101C40006378012B02D0022B06D00DE0D921244865
:101C500004F040FF022308E0D921224804F03AFFB3
:101C6000237813B1012300E0002363702B785B2BF2
:101C700045D105F0D5FB1C4803F071FD3023B0FBC6
:101C8000F3F010F0FF0F3AD0184C6378012B33D1EA
:101C9000174BA278312000FB023005F0ABFBA37894
:101CA000013303F00303A370237843BB637026E082
:101CB000080F0020D8250020E82500202B8B0008E5
:101CC000B9880008DC8C00087C390020098B0008EA
:101CD000FE8C0008288D0008245B0020040F0020E3
:101CE0003000002009010020C8A80020C4090020FD
:101CF0004A8D00080E8E000800236370A3702B78B5
:101D0000652B0BD1C24B1B78002B3EF404AB02F0C9
:101D100031FEA52802D9AA2004F0ECFC2B78002B78
:101D20007EF4F9AABB4CB4F8E833002B3EF4F3AAD6
:101D300002F020FE0546B84E182D7EF6ECAAB4F847
:101D4000EA336120D91003F00702B25C635C183DEE
:101D500013401BBF002318221822B04908BFB04906
:101D600002F082FD94F8EC33ADB20133DBB2312BDB
:101D7000A84A84F8EC3307D9B2F8EA330133A2F861
:101D8000EA33002382F8EC33B4F8EA13B4F8E8231A
:101D9000A04B9142D0D30022A3F8EA23A3F8E82372
:101DA000FEF7B9BA0420FFF70BB9052421469D4878
:101DB00032E00424FEF754BF0424FEF767BF022478
:101DC00002E0042400E005242146974824E004248E
:101DD000FEF7F0BF0224FFF72BB80424FFF728B862
:101DE0000224FFF738B80424FFF735B8022402E0D4
:101DF000042400E0044621468C480DE02B78002B9B
:101E00007FF4E0A80320FFF7D7B8022402E00424FF
:101E100000E005242146864802F060FE2046FFF7D8
:101E2000CFB80424FFF76FB80424FFF785B8042463
:101E3000FFF79BB82B78002B7FF4C4A80620FFF790
:101E4000BBB8022402E0042400E0052421467948BE
:101E5000E2E7187094F80423774B1A60FFF727B96C
:101E600021F813E05CE421F813C059E4734BD3F874
:101E7000F834002B3FF478AC02F07CFD0746142FB9
:101E80007FF672AC042310AA0EA96D480E960F9629
:101E900005F09CFD0023142210A9032002F0E4FCAD
:101EA000D4F8F834143F013BBFB2C4F8F834002B27
:101EB000E5D159E4634B1978A1B178275F4803F065
:101EC000F9FBB4F8EC34013F5A1C17F0FF07234428
:101ED000A4F8EC2483F83C00F0D10023A6F8EE34FB
:101EE000FFF7E5BB0846B8F8F0E4B8F8EC244FF08B
:101EF000770C1FFA80F802EB0803C6459BB206D8A0
:101F0000724492B20029E8D0A6F8EC24E5E7234415
:101F100083F83CC001303946EBE7B4F8383243BBB4
:101F2000484B1B78A3B91946474AAA27B2F83C0286
:101F30008AB2824206D30BB1A4F838020023A4F877
:101F40003A3216E0224482F8707101313346EFE7ED
:101F500044263D4803F0AEFBB4F83832013E5A1C2B
:101F600016F0FF062344A4F8382283F87001F0D15C
:101F7000E4E7B4F83832002B3FF420AC02F0FAFC6E
:101F80000646A02E7FF61AACB4F83A32A03E5A1C90
:101F9000234493F87001A4F83A2204F0ABFBB4F8A0
:101FA0003A22B4F83832284F9A42B6B2E9D3002325
:101FB000A7F83A32A7F8383200E45D2B7EF4BEADC4
:101FC000FEF78DBD0A2B0FD1AFE40B2B10D1B9E476
:101FD0000C2B11D1BDE40D2B12D1E6E40E2B13D145
:101FE000EAE40F2B32D1F1E40B2B7FF4B0ACA9E47F
:101FF0000C2B7FF4D8ACACE40D2B7FF4DBACD4E439
:102000000E2B7FF4E1ACD7E40F2B7FF4E9ACDDE4D9
:10201000B40900209C600020F59A00080000002010
:10202000840900206D8C0008CA8B0008808C000891
:102030009B8C0008BF8C0008B0812142080A002058
:10204000180A0020C426002028420020102B7FF40C
:10205000D3ACC7E45D2B7EF471ADF3785A1E5342C6
:102060005341024A1370FEF742BD00BF040F002027
:102070002DE9F04FD44A00238DB0136013715371D2
:10208000936002F10C0002F1700400F8013BA042E1
:102090004FF00001F9D1CD4B116751679167D167BE
:1020A000C2F88010C2F88410C2F8881003F1A800AA
:1020B00043F8041B8342FBD1002003F1A80143F83D
:1020C000040B8B42FBD1002003F1A80143F8040B61
:1020D0008B42FBD1002003F1A80143F8040B8B4293
:1020E000FBD1002003F12A0103F8010B8B424FF0D2
:1020F0000004F9D1B64D4FF4B9712846C2F85843DF
:10210000A2F85C4303F04DFB05F11C031E462C6155
:1021100005F1440223F8024B9342FBD1002103F561
:10212000167203F8011B93424FF00004F9D13C23CF
:1021300028222146A748A5F8A032A5F89C42A5F878
:102140009E4206F0C1F8214605232B7403236B82BF
:10215000A14BAE616B61A14B1C605C609C60DC605C
:102160001C6103F1140203F23C5522F8021BAA423F
:102170004FF00004F9D142F20F72994D214699486F
:10218000A3F84025A3F83C45A3F83E45C3F84445D1
:10219000A3F84845A3F84A4583F84C4503F03CFAB8
:1021A0000121914803F038FA4FF4B971284603F041
:1021B000F8FA4FF4B97105F1100003F0F2FA05F1E5
:1021C0002C031F4621462C6205F14C0223F8021B0A
:1021D0009342FBD14FF00003844A85F84C30002035
:1021E00002F1210102F8010B8A424FF00003F9D1FC
:1021F0007F4C85F86E3004F10C0204F8013B9442E8
:10220000FBD1002204F10C0304F8012B9C42FBD10A
:10221000002204F1280304F8012B9C42FBD1002288
:1022200004F1280304F8012B9C424FF00006F9D179
:10223000C5F8E060C5F8E46085F8E86085F8E96015
:10224000202231466B48A5F8D860A5F8DA60C5F8B9
:10225000DC6006F039F8684A0523116885F82030FB
:1022600044F8681C5168092344F8641C31466B84A7
:10227000624BAF626B62136844F85C3C536844F88D
:10228000583C936844F8543C44F8603C5C4B1E60F6
:102290005E609E60DE601E6103F1140403F6543537
:1022A00024F8021BAC424FF00002F9D142F20F7148
:1022B000A3F8542BA3F85C1BA3F8562BA3F8582BB8
:1022C000A3F85A2BC3F8602BA3F8642BA3F8662B52
:1022D000A3F8682BA3F86A2BA3F86C2BA3F86E2B3A
:1022E000A3F8702BA3F8722B83F8742B83F8752B4B
:1022F00083F8762B83F8772B83F8782B83F8792B68
:1023000083F87A2B3F4B03F5346123F8022B8B4281
:102310004FF00005F9D13C4C4FF4B971204603F061
:1023200040FA04F11C031E46256104F13C0223F827
:10233000025B9342FBD1002103F5966203F8011B77
:1023400093424FF00005F9D1F023294620222F486F
:10235000A4F8EC54A4F8EE54C4F8F03405F0B4FF3B
:102360000523237409236382294B29466361294B82
:10237000A66103F118001D705D609D60DD601D6148
:102380005D6100F5965520F8021BA8424FF000024F
:10239000F9D141F2DA2102805A5241F2DC2042F2B4
:1023A0000F71195241F2DE2019521B481446018068
:1023B00041F2E220195241F2E420195241F2E8219F
:1023C0005A5041F2EC2129E0380F0020C40F0020C0
:1023D000843F0020A03F0020CA04002078A30020F2
:1023E000D8250020D0860020249500202526002016
:1023F0004726002004260020E49A0008F20200206C
:1024000068440020E44F00207C39002098390020E7
:102410004C03002098120020782500205A5241F2E7
:10242000EE215A54500000F5975001321030102A16
:102430004FF000011C52F5D141F21032C6480C4653
:1024400081520A46510001F5985101321231102A89
:10245000C1484FF000055C52F4D141F23233C5520D
:1024600041F234336322C25441F23833C55041F251
:102470003C33BA4CC5524FF4FA61204603F091F94F
:1024800004F11C031E462A4625613C3423F8022B26
:10249000A342FBD1002103F5966203F8011B93428E
:1024A0004FF00004AD4DF8D1F023A5F8F0342146EB
:1024B0004FF4965305F11C002022C5F8F434A5F81A
:1024C000EC44A5F8EE4485F8F244C5F8F84405F06C
:1024D000FBFE214605232B7409236B82A04BAE61C2
:1024E0006B61A04B03F118001C705C609C60DC60A9
:1024F0001C615C6100F5075520F8021BA8424FF0F3
:102500000002F9D142F2DA1102805A5242F2DC1092
:1025100042F20F71195242F2DE10195242F2E010EB
:10252000195242F2E210195242F2E410195242F2E8
:10253000E610195242F2E810195242F2EC115A50C8
:1025400042F2F0115A5242F2F21114465A5450001B
:1025500000F5075001323430102A4FF000011C52B0
:10256000F5D142F214227F480E4681520A465000AD
:1025700000F5085001321630102A7A494FF0000554
:102580001E52F4D142F23623CD5242F23823632256
:10259000CA5442F23C23CD5001F509531D8042F24A
:1025A0004223714CCD5420464FF4FA6103F0F9F800
:1025B00004F1280217462B46256104F1480122F850
:1025C000023B8A42694EFAD13346002106F1780275
:1025D00023F8021B9342FBD1002103F5966203F816
:1025E000011B93424FF00005F9D14FF02008F02372
:1025F000424629465E48A4F87435A4F87055A4F8FC
:10260000725505F061FE78222946584805F05CFEB7
:102610000523237408236382564B29466361564B76
:10262000A7616362554BA4F81C801A46266202F823
:10263000025B03F1160022F8021B8242FBD1002547
:1026400002F5706422F8025BA2424FF00001F9D15A
:1026500042F20F72A3F81A2FA3F81C2FA3F81E2F13
:10266000A3F8202FA3F8222F454AA3F8161FA3F89A
:10267000181FC3F8241FA3F8281F83F82A1F02F18C
:10268000200422F8021BA2424FF00000F9D13D4A7B
:10269000A3F84C0F02F1200122F8020B8A424FF0FE
:1026A0000004F9D1384D63224FF4FA61284683F8CB
:1026B000702FA3F86E4FC3F8744FA3F8784F03F050
:1026C00070F805F128031F462C6105F1480223F834
:1026D000024B93422D4EFAD13346002106F18C0273
:1026E00023F8021B9342FBD1002103F5966203F805
:1026F000011B93424FF00004F9D1F0232022214620
:102700002348A5F88835A5F88445A5F8864505F041
:10271000DBFD8C2221461D4805F0D6FD0A232B74D3
:1027200009236B821B4B4FF47A616B611623AB83D9
:10273000194B1A482E626B62AF6103F032F81848E9
:102740002146064600F5AA7320F8021B9842FBD1E9
:10275000002200F1C80325E098120020080A00209A
:10276000480600208C640020245B00206C5B002065
:102770004C5B0020440500208A040020C82600206D
:10278000F435002016360020C8A8002010A900202B
:10279000F0A8002094050020180500202842002001
:1027A0004442002000F8012B98424FF00005F9D177
:1027B0004823A0F50E748380458029464FF4AA7201
:1027C000A0F50770A4F8385205F07EFD29460623CF
:1027D0002382D74B6661A361D64B1D601D719D603E
:1027E00003F10C043C3324F8021B9C424FF000021E
:1027F000F9D1D04B114683F83C20CF4B1A705A8048
:10280000CE4B1A705A705A6003F1080003F12A0285
:1028100000F8011B9042C94BFAD1002283F82A200C
:10282000C74A083302F120051C4610685168083277
:1028300003C4AA422346F7D1128800234FF6FF7142
:1028400022801C46BF4AC04813705370BF4A1370A1
:1028500053709370BE4A1370BE4A13605360118167
:1028600053811C540133B3F57A7FB7494FF000020E
:10287000F7D11346A1F8E823A1F8EA2381F8EC2365
:102880001946B54A99540133B3F5807FB2484FF0E9
:102890000005F7D1B14C4FF4B9714FF4167680F8BA
:1028A000005180F8015180F8025100F5827002F069
:1028B00078FF2582A6806582657525754FF4966040
:1028C000257005F077FCA060304605F073FC4FF4EE
:1028D000FA77A584E060E584278384F8285084F89B
:1028E00029504FF47A7005F065FCE061384605F038
:1028F00061FCA5862062E586A68584F8385084F8B8
:1029000039504FF4966005F055FC1022206329469B
:1029100004F13C0005F0D8FC294604F1980304F5C5
:10292000927223F8021B9342FBD1002103F1500263
:1029300023F8021B9342FBD1002103F13C0223F850
:10294000021B9342FBD1002103F1DC0223F8021B9E
:102950009342FBD1002103F1780223F8021B93423A
:102960004FF00005F9D14FF480437D4E0127A4F8C4
:102970000633A4F80833A4F80A33A4F80C33A4F8F7
:102980000E33A4F81033A4F81233A4F814332946F4
:102990004FF400638C227348A4F81633A4F818335C
:1029A00084F80453C4F81C5384F82153A4F8225328
:1029B000A4F82453C4F8285384F82C5306F1500B80
:1029C00084F8207305F080FC29465022304605F03B
:1029D0007BFC06F18C0A29463C22584605F074FC23
:1029E00006F5B4792946DC22504605F06DFC2946EF
:1029F0007822484605F068FCA6F1D8032946102243
:102A00001846019305F060FC019BE6662364564B73
:102A10004FF00C0863642A23A4F85C30A6F18C0301
:102A20002366524B06266366514B84F84850236751
:102A3000504BA4F87460E3675223A4F880304E4BE7
:102A4000C4F884A0C4F888302023A4F88C304B4B01
:102A5000C4F89090C4F89430E763A4F86880C4F890
:102A600078B0474CDFF824A1A369DFF82491454AE8
:102A700043F03D03A3614FF08833C9F8003041466D
:102A8000C9F804305046C9F80C50CAF80030CAF8EA
:102A90000430CAF80C5013605360D560C2F800349B
:102AA000C2F80434C2F80C54022202F0C3FE02221F
:102AB0000521504602F0BEFE02220421504602F0DB
:102AC000B9FE08220D21504602F0B4FE0222072171
:102AD000504602F0AFFE31460222504602F0AAFEF6
:102AE00002220821504602F0A5FE0222092150468A
:102AF00002F0A0FE02220A21504602F09BFE0222B2
:102B00000B21504602F096FE2A462946504602F016
:102B100091FE2A463946504602F08CFE2A46042190
:102B2000194D484602F086FE04220F21484631E046
:102B3000F4040020C8090020340F0020080F0020F2
:102B4000548E0008040F00209C600020C40900205F
:102B5000B4090020B8090020703E0020483600204B
:102B60006C370020E036002000050020A20600207F
:102B7000F6060020E8040020E6030020A60300205B
:102B8000001002400010014000000140000C014014
:102B90000008014002F04EFE6B680A2223F44073E5
:102BA00043F480736B600921484602F043FE04221F
:102BB0000A21484602F03EFE6B68BA4E23F0E063FD
:102BC00043F000736B60636805F5205523F44043C0
:102BD00043F400436360A369404643F40073A36178
:102BE000A36943F48063A3614FF4C02373604FF083
:102BF000807333614FF000632B61082373630923F3
:102C00006B63B1683943B160A9683943A96002F0C8
:102C100024FE33462A46B16841F00401B160996848
:102C20004907FCD49368A04943F0040393608B6880
:102C30009D4A13F00407FAD19A499C4D8B680126EE
:102C400043F001038B60936843F001039360E369F1
:102C500043F00053E361964B05AC1E600FCD0FC4EB
:102C600095E807003B4684E8070005AC54F82320AC
:102C70000133072B1660F9D18E4F0921002502225E
:102C80008D4802F0D7FD3D608C4802F0E6FD2B46F2
:102C9000294654F823200133072B4FF0000611601A
:102CA000F7D1012586483D6002F0D7FD3E6085489A
:102CB00002F0D3FD844B3D609B461D600DF12C0856
:102CC000804802F0CAFD23681E6054F8043FA04506
:102CD0001D60F5D105244FF000090126794802F066
:102CE000BCFDD8F8003014F1FF34C3F8009058F858
:102CF000043D4FF000051E60F0D2724802F0ADFDB9
:102D0000CBF800506F483D6002F0A7FD01233B6007
:102D10000A220921684802F08DFD6C4802F09DFDF1
:102D20002B466B496B4A0624DFF8B891DFF8B8816F
:102D3000694F6A4E6A4D83F00103CBF80030FA20E8
:102D40000B60013C039113600292C9F80030C8F88F
:102D500000303B6033602B60019302F07EFD14F085
:102D6000FF04DFF870A1019B029A0399DCD14FF0B8
:102D7000010BCAF800B0FA20C9F80040C8F80040BA
:102D80003C6034602C6002F068FDCAF800B0FA20A4
:102D9000C9F800B0C8F800403C6034602C6002F014
:102DA0005CFDCAF800B0FA20C9F800B0C8F800B05D
:102DB0003C6034602C6002F050FDCAF800B0FA208C
:102DC000C9F800B0C8F800B0C7F800B034602C6093
:102DD00002F043FDCAF800B0FA20C9F800B0C8F804
:102DE00000B0C7F800B0C6F800B02C6002F035FDA6
:102DF000CAF800B0FA20C9F800B0C8F800B0C7F8A7
:102E000000B0C6F800B0C5F800B002F026FDCAF860
:102E100000B0FA20C9F800B0C8F800B0C7F800B098
:102E2000C6F800B02C6002F018FDCAF800B0FA2015
:102E3000C9F800B0C8F800B0C7F800B034602C6022
:102E400002F00BFDCAF800B0FA20C9F800B0C8F8CB
:102E500000B03C6034602C6002F0FFFCCAF800B0A7
:102E6000FA20C9F800B0C8F800403C6034602C601B
:102E700002F0F3FCCAF800B0FA20C9F80040C8F824
:102E800000403C6034602C6002F0E7FCCAF800406F
:102E9000C9F80040C8F800403C6034602C600DB0B8
:102EA000BDE8F08F0024014000280140388E000862
:102EB00000740040A401214200080140003E490086
:102EC00000A60E000053070090812142009F2400BD
:102ED000948121429C812142A4812142A8812142E6
:102EE000AC81214298812142A081214270B5E0232A
:102EF0008EB08DF80430C4B210238DF80630C4F1C2
:102F00000306C3B29A191B1BDBB29942D2B206D98F
:102F100010F8015B0EAB134403F8345CF1E70331A6
:102F2000C9B201A8044B8DF805109847034B002245
:102F30001A600EB070BD00BF1507002018002742B0
:102F400070B5154B86B01B78012B23D8134B1B781B
:102F500003B3E0238DF80430C4B211238DF806309A
:102F6000C4F10306C3B29A191B1BDBB29942D2B259
:102F700006D910F8015B06AB134403F8145CF1E7C3
:102F80000331C9B2064B01A88DF805109847054BCF
:102F900000221A6006B070BD783900200E070020AC
:102FA000150700201800274210B50B4CB4F85C132D
:102FB00049B1D4F85833B3FBF1F3C3F307210173DC
:102FC00043730E2100E00C21FFF7BAFF0023C4F881
:102FD0005833A4F85C3310BD380F00202DE9F043BE
:102FE000594C93B094F84C30002B00F0A980B4F801
:102FF000D820002A4FD1013B042B45D8DFE803F04D
:1030000003440E081300002001F008FB042340E0F5
:103010000021012001F042FB03233AE0012001F0EE
:10302000FDFA022335E0494B1B78622B0CD1484B4B
:103030005F2003F12102002103F8010F934203F8FE
:10304000281CF9D1212319E05F2B19D1404B5520C1
:10305000DA1D002103F8010F9A4203F8281CF9D168
:103060005F2384F8B6303B4BFF20DA1D002103F8C4
:10307000010F9A4203F8281CF9D10F23A4F8D83085
:103080000023A4F8DA3006E00121002001F006FB5D
:10309000012384F84C30B4F8D830002B50D001F024
:1030A00069FC06464FF4E378142E49D9B4F8DA20C7
:1030B0004FF6AE20A11891F8AF3091F887904FF6F7
:1030C0003A6E40F252510132A4F8DA20002503F0A2
:1030D000C002802A01AF0BD0C02A06D0002A0CBF44
:1030E0007246024627F8152004E027F8151001E083
:1030F00027F8158001359B00042DDBB2E7D114229F
:10310000002103A805F0E0F82B4608AA394612482A
:103110008DF8169004F05AFC03AB142208A9022083
:1031200001F0A2FBB4F8DA10B4F8D820143E9142B2
:10313000B6B2054BB8D30022A3F8DA20A3F8D82002
:1031400013B0BDE8F08300BFD825002078390020F7
:10315000862600208E260020F825002010B5174B6B
:10316000174A03F1200153F8044B8B4242F8044BF9
:10317000F9D11B780001137040F00900114BC0B267
:1031800033F810301049DCB29B0A8008A20803F023
:103190003C0381F8590043EA841302F0300002F046
:1031A0000F0240F04D0062F02F0243F0030381F85C
:1031B0005A0081F8602081F8613010BD1594000834
:1031C000252600203E940008D82500202DE9F04F48
:1031D000C24CA9B0254626468B1E0293831E03933C
:1031E0008B1C0693029A32F8023F0292D4F85823BD
:1031F0001344C4F85833B4F85C330133A4F85C3397
:10320000039B33F9022F03932379D10F8B4209D00B
:103210002368B3F5004F2ABF6FF4CC7803F29913FB
:10322000434423602B68297103F54C513331B1F5C8
:10323000803F01D22160C9E3A3F54C43CD3B23601D
:103240006379012B54D003D3022B00F00B83BDE331
:10325000A368002A4FEA4303B8BF43F00103A36009
:10326000AF689F4827F07F47784002F067FB02284D
:103270000FD89C4802F0ACF8532200219A4805F080
:1032800023F800232367C4F85833A4F85C330123E0
:103290002CE09648784002F051FB8046002840F030
:1032A0009583934802F094F8012002F001F8914BC5
:1032B000012283F82123904B8B4F18685968C4F87A
:1032C000588303C79868A4F85C833860A7F10800A6
:1032D000FFF76AFE0E224146A7F1080004F0F4FF52
:1032E0004FF416536367C4F87080022363716DE373
:1032F000A368002A4FEA4303B8BF43F00103A36069
:103300002B6F002A4FEAD301B4BF7C4F7C4F03F0F0
:10331000070204EB0100B5BFBF5CBF5C027B027B10
:1033200003F10103B4BF3A433A402944B3F5257F82
:103330000A732B6740F04A83724A734F002312F8D6
:10334000010FD95D01334140532B1170F7D1002398
:10335000194613AA99540133542BFAD16B4B00220E
:103360008021B2F5257F0BDB0022EA67C5F88020BB
:10337000C5F88420C5F88820AA67DFF89481C9E0E1
:1033800005EBE200007BC70710D513F812700DF1B2
:10339000A00E774403EB420E9EF801E021FA0EFCEA
:1033A00017F854EC4CEA0E0E07F854EC870712D5C8
:1033B00002F1010E13F81E7003EB4E0E0DF1A00C7E
:1033C0009EF801E0674421FA0EFC17F854EC4CEA31
:1033D0000E0E07F854EC470712D502F1020E13F84F
:1033E0001E7003EB4E0E0DF1A00C9EF801E0674439
:1033F00021FA0EFC17F854EC4CEA0E0E07F854ECC8
:10340000070712D502F1030E13F81E7003EB4E0EE0
:103410000DF1A00C9EF801E0674421FA0EFC17F8AC
:1034200054EC4CEA0E0E07F854EC171DB7F5257F47
:1034300001DB3A4695E710F0100F0FD013F817E0B4
:1034400003EB47070DF1A00C7F78E64421FA07FC57
:103450001EF8547C4CEA07070EF8547C870612D5F8
:1034600002F1050E13F81E7003EB4E0E0DF1A00CC9
:103470009EF801E0674421FA0EFC17F854EC4CEA80
:103480000E0E07F854EC470612D502F1060E13F89B
:103490001E7003EB4E0E0DF1A00C9EF801E0674488
:1034A00021FA0EFC17F854EC4CEA0E0E07F854EC17
:1034B000000610D5D71D13F8170003EB47070DF1D1
:1034C000A00E7F78704421FA07FE10F8547C4EEA73
:1034D000070700F8547C083243E700BF380F00208C
:1034E000507655003E960008440F002068B4AA00AC
:1034F00060960008483600200994000836940008B9
:1035000001940008430F00209E930008768E000867
:10351000F993000828AB03EBE20313F8540C802165
:1035200002F00703D9404027014027FA03F314BFF4
:103530004FF0010C4FF0000C0340B1FA81F1B3FAE7
:1035400083F314BF4FF0010E4FF0000E49095B09E1
:1035500001EB030A0CEB0E0971446344D4F884E0D8
:10356000D4F87CC00AEB0E0B09EB0C075F4538461C
:10357000A8BF58460593A36F5F45019304914FEA96
:10358000D3030199A8BFB04F079003F1220004EBC9
:10359000800001F00701B5BF476817F801B018F8BF
:1035A00001B04768CE44D444B4BF07EA0B0747EAEA
:1035B0000B07F445E346A8BFF346F4454760A8BFB0
:1035C000A14803F14C0704EB8707B5BF786810F8F2
:1035D00001E018F801E07868B4BF00EA0E0040EAA4
:1035E0000E007860D4F880C00498D4F888E000EB2E
:1035F0000C070598B94670448742A8BF81468742A8
:10360000A8BF914803F1760704EB8707B5BF786838
:1036100010F801A018F801A07868B4BF00EA0A0009
:1036200040EA0A0078600598A03360448446049814
:1036300005EB830370448646F4456046A8BF704698
:10364000F4451EDA18F80170596839405960079B33
:103650000232EB67019BB2F5257F03F10103C5F848
:1036600080B0C5F88490C5F88800AB677FF452AF8E
:1036700075480023194640F249128646DFF8E0C13A
:1036800004E0714F7F5C59683943DFE703294FD865
:10369000DFE801F002101D34D71006EB870702F0B7
:1036A000070810F80880D7F88C7018EA070F18BFC1
:1036B000022118E0D11006EB810102F00707D1F8D2
:1036C0003411C75D0F420CBF0021022123E0D1104D
:1036D00006EB810102F00707D1F8DC11C75D0F424C
:1036E0000CBF0121032103F0070706EBD3081CF8E8
:1036F000079098F82C7309EA070716E0D71006EB35
:10370000870702F0070810F80880D7F8847218EAD3
:10371000070F08BF012103F0070706EBD3081EF8C7
:10372000079098F82C7349EA070788F82C7301333F
:1037300012F1FF32AAD200231A4608A9CA54013353
:10374000292BFAD140F249133F48012706EBE30148
:1037500003F0070C91F82CE310F80C10C3F5A472D9
:103760001EEA010F02F101020ED0D1080DF1200E68
:103770001EF801E002F0070207FA02F242EA0E0226
:103780000DF1200E0EF8012013F1FF33DED21A46A0
:103790002E4F002008AB195CC2F307235140C9B279
:1037A00037F811200130534027281A46F2D1DB4365
:1037B0009DF84710DAB2914209D19DF84820C3F331
:1037C00007239A1A53425341002B3AD001E00023B9
:1037D00037E0012001F06CFD1D4BB6F85C130122AF
:1037E00083F821231B4A89B1D4F85833B3FBF1F392
:1037F000C3F307218DF849108DF84A301378012B57
:103800000ED8154B1B785BB12B2106E01378012BEA
:1038100006D8114B1B781BB1292108A8FFF766FBBE
:1038200000270E2239460D48C6F85873A6F85C7377
:1038300004F04AFD022373714FF416533767736720
:10384000C4E07371C2E000BFF59A0008CA96000890
:1038500048360020783900200E070020440F002051
:10386000F9930008A368002A4FEA4303B8BF43F066
:103870000103A3602B6F002AB4BF584F584F4FEA83
:10388000D30103F0070204EB0100B5BFBF5CBF5CCE
:10389000027B027BD5F808805248B4BF3A433A40D5
:1038A00029445F1C88EA00000A732F6702F046F87B
:1038B000012821D84C4801F08BFD002001F0F8FCD4
:1038C0004A4B002783F82173494B1B78012B10D8F2
:1038D000484B1B786BB1E02303218DF84C308DF8F9
:1038E0004D1013238DF84E3013A8434B9847434B8C
:1038F0001F6000236B7169E05C2F0FD9404828F0EE
:103900007F43584002F01AF8022807D86023236743
:103910004FF4165363674FF0010901E04FF00009BF
:103920002B6F602B1AD1B9F1000F17D1DFF8D0B08F
:1039300001276FF07F4A2AFA07F303EA08032BFAFC
:1039400007F0584001F0FAFF022804D8FFB2C7F18F
:1039500060072F6702E00137042FECD16F6F013F42
:103960006F67C7B9274801F033FD384601F0A0FC66
:103970001E4B83F821731E4B1B78012BB9D81D4BAE
:103980001B78002BB5D0E02303218DF84C308DF847
:103990004D101223A6E7236F602B17D1B9F1000F4A
:1039A00009D0552363752D23A37517481623E37596
:1039B000FFF7FAFA03E00C211348FFF7C1FA0E22D1
:1039C0000021114804F080FC00232B67069B029A1B
:1039D00093427FF407AC29B0BDE8F08F369400081D
:1039E000019400085E13AAAA8196000848360020B8
:1039F000783900200E070020150700201800274204
:103A000068B4AA00A1960008440F0020114B1B784F
:103A10005A1E51425141104A981E11604142A3F171
:103A2000030C414142F8041CDCF1000141EB0C01A4
:103A3000181F51604142A3F1050C41419160DCF136
:103A4000000141EB0C01D160991F4B424B411361C6
:103A5000704700BF783900209C81214207B5E023E0
:103A60008DF8043070238DF80630084B04219B78C4
:103A70000DEB01008DF80730054B8DF805109847C8
:103A8000044B00221A6003B05DF804FB703E002076
:103A9000150700201800274207B5E0238DF80030F5
:103AA0007F238DF80230094B05219B788DF80400A7
:103AB0008DF803306846064B8DF801109847054B8A
:103AC00000221A6003B05DF804FB00BF703E0020C6
:103AD00015070020180027422DE9F04FBDF928C036
:103AE0009F1CBDF924800133DFF8C0902E4CBFB27B
:103AF0009BB24FF0000ECCF1000A1FFA8EF6BD1EED
:103B0000B142ADB24ED900F10C0639F816B0EE1044
:103B1000C8EB0B0B0FFA8BFBD34505F007050CDA4E
:103B200014F805B0955D25EA0B05955503F00706D9
:103B3000DD1014F806B0565D21E0BBF1000F0CDA81
:103B400014F805B0955D25EA0B05955503F00706B9
:103B5000DD1014F806B0565D0EE0E34514F805B02C
:103B6000955D4BEA0505955503F007064FEAE30519
:103B700014F806B0565D02DA26EA0B0601E04BEABD
:103B800006065655461DB5B2B5F5166F24BFA0F60C
:103B90005B15ADB2023702330EF1010EBFB29BB21C
:103BA0002846AAE7BDE8F08FF59A00089812002091
:103BB00070B4164D01462E46B5F85A3B4FF40774C3
:103BC0003C339BB200225D1C06EB4300ADB2B5F561
:103BD000B46FB0F87C0B04F1FF3428BFA3F29F53FD
:103BE000A4B2024428BF9DB20CB12B46EBE74FF4C0
:103BF0000773B2FBF3F270BCC2F3072381F82320F2
:103C000081F822302422012003F0B6B96844002054
:103C100070B5164BA2B01B78032B00D01BBB144B06
:103C20001B7803B3E0238DF80430C4B220238DF851
:103C30000630C4F10306C3B29A191B1BDBB29942CA
:103C4000D2B206D910F8015B22AB134403F8845CAE
:103C5000F1E70331C9B2074B01A88DF80510984769
:103C6000054B00221A6022B070BD00BF78390020D9
:103C70000F07002015070020180027422DE9FF41FB
:103C800041F2D8235D4C5E48E35A04EB83035B6842
:103C9000C3F31303584001F051FE032800F2AA8039
:103CA00041F2DA23E75A4FF0000E07F60116B6B2DA
:103CB000B6F5166F38BF3246754628BFA7F15F02CA
:103CC0005048DFF844C128BF92B24FF47A5102F154
:103CD0000C0334F913301EF90C809842B8BF184613
:103CE0009942A8BF1946B8F1010F0AD0B8F1030FE5
:103CF00005D0B8F1FF3F06D003EB430303E003EB2D
:103D00004303ED1A00E01D44531D9BB2B3F5166F3B
:103D100028BFA2F65B120EF1010E28BF93B2BEF1CE
:103D2000140F01D01A46D2E741F2E823E358334A90
:103D3000AB425FDA41F23433D35C632B0CD10B1806
:103D400041F210315B105352C31A44F63E1041F257
:103D500032314343DB13535241F23233E35EB6F563
:103D6000166F019341F2103328BFA7F15F06E35E9F
:103D700028BFB6B202AF304600933A460023142162
:103D8000FFF7AAFE2378DFF884E0002B4FF0000352
:103D90001A46DFF87C800CBF0220042017F803C00D
:103DA00013F8081001338CEA01011EF80110052BED
:103DB0000A44D2B2F2D182421CD841F2E822A55084
:103DC00041F2EC22A35241F2DA230C49E35A01F505
:103DD0009752138041F2DC2241F2DE20A65203F614
:103DE000FB0292B2B2F5166F2ABF653B0A520B5224
:103DF000012000E0002004B0BDE8F081981200200E
:103E0000ADB5070080C1FFFF0E990008FD9A0008BC
:103E1000F09A00080D4B13B51B7813F0FD0413D175
:103E20000B4B1B7883B1E02300288DF8043014BFBE
:103E30001B23192303218DF8063001A8054B8DF8AB
:103E400005109847044B1C6002B010BD7839002063
:103E5000F008002015070020180027422DE9F04740
:103E6000CE4C8CB02546A0F10209A1F1020A00F166
:103E70000208B4F8561B3AF8022F04EB410339F953
:103E8000020FA3F87C2BB4F8542B988254F82230FC
:103E900000284FEA4303B8BF43F0010344F822303F
:103EA00095F8783B0BB901201AE0B4F8580B00F2F2
:103EB0009F539BB2B3F5B46F00F1010292B224BFDD
:103EC00000F1FF339BB2B2F5B46F24BFA0F29F5252
:103ED00092B2934207D2994208D3914206D8002069
:103EE00002F014FF02E09942F7D3F8E7B5F8562B39
:103EF000B5F85C3B934240F02F81B4F9662BB4F9DE
:103F0000646BB4F96C7B1644B4F9682B03F212307D
:103F10001644B4F96A2B80B21644B4F96E2BB0F58E
:103F2000B46F1744B4F9702B28BFA3F28E20174446
:103F3000B4F9722B46F38F06174494F8752B47F3A8
:103F40008F078DF80C2028BF80B208238DE8C000B1
:103F500003AA842102F072FE95F8753B402B40F0D5
:103F600098800DF10B030DF10A020DF10D0102A86D
:103F700001F024FC94F8772B9DF80A309A4240F027
:103F8000E68000239DF80C2084F8763B84F8793B8A
:103F90009DF80B301A438DF80C200A2B61D8DFE80E
:103FA00003F0312B436060600617176017003B4633
:103FB0003246B5F9581B7A4801F0BCF903A8FFF75F
:103FC000F7FD022385F8783B002385F87A3BBEE0B5
:103FD00095F8783B022B40F0BA803B463246B4F964
:103FE000581B704801F0A6F903A8FFF7E1FD9DF802
:103FF0000B3084F87A3BAAE03B463246B5F9581BB1
:10400000694808E095F8783B012B09D13B463246D8
:10401000B4F9581B654801F08DF903A8FFF7C8FDF6
:10402000012385F8783B92E095F8783B012B40F02E
:104030008E803B463246B4F9581B5D4801F07AF950
:1040400003A8FFF7B5FD0023A4F8583B84F8763B9E
:1040500084F8783BA4F85A3B42F20F73A4F85C3B17
:1040600075E03B463246B5F9581B524801F062F9FB
:1040700003A8FFF79DFD0023A5F8583B85F8763B84
:1040800085F8783BA5F85A3B42F20F73A5F85C3BE4
:104090005DE0202B12D13B463246B4F9581B46480E
:1040A00001F048F903A8FFF783FD012384F8783B6A
:1040B000002384F8763B84F8793B48E094F8783B19
:1040C000002B44D094F8763B0133DBB20C2B84F800
:1040D000763B13D90120FFF79DFE0023A4F8583B3F
:1040E000C4F8603B84F8753B84F8763B84F8783BF1
:1040F000A4F85A3B42F20F73A4F85C3B95F8783B66
:10410000012B18D194F8793B2222042B8DBF202358
:104110000133DBB28DF80C3003A988BF00234FF0C8
:1041200001008EBF84F8793B84F8793B8DF80C3020
:1041300002F022FF0BE0022B09D194F87A3B33B155
:1041400043F0400303A88DF80C30FFF731FD002346
:10415000C5F8603B85F8753BB5F8563B01339BB21B
:10416000B3F5B46F28BF0023A4F8563BB5F8543B11
:1041700001339BB2042B88BF0023C845A4F8543BED
:104180007FF477AE054B93F8780B003018BF012011
:1041900001F08EF80CB0BDE8F08700BF6844002045
:1041A000229900085399000885990008B7990008DA
:1041B000EC990008229A00084C9A00082DE9F04F6B
:1041C000831EA7B00393A24F8B1E0493831C0593F9
:1041D00007F1020A039B049933F9022FDFF8B49226
:1041E000039331F8023F09F104080491D9F8001053
:1041F000984E0B44C9F800303988B8F8003006EB07
:1042000081010133A8F800304B68002A4FEA4303CC
:10421000B8BF43F001034B60BAF80030B34603F176
:104220000C0126F8112032788B4C012A40F036819F
:1042300021896289914206D28B4207D3934205D8E5
:10424000FFF71CFD02E08B42F8D3F9E7834B21888E
:104250001A88914240F05B81DA89052A12D15B8885
:1042600003F65F1292B2B2F5166F28BF03F1FF3268
:1042700022815A1C92B2B2F5166F2ABFA3F65F13C1
:1042800062816381764B774A4FF47A5C18881146D5
:1042900063464FF4F07500F10C0E3BF91EE0BEF1E1
:1042A000000F06DD7145B8BF71467345A8BF734660
:1042B00005E0F445A8BFF4467245B8BF724600F168
:1042C000050E1FFA8EFEBEF5166F05F1FF3528BFED
:1042D000A0F65B10ADB228BF1FFA80FE0DB170468C
:1042E000D9E719446244491052108D186D100FFA25
:1042F00085FB4D1B2DB25B4612B209B200955A48A0
:1043000000F046FE5949534A0B78632B0BD1584AAB
:10431000A1F1460323F802BF9A425D84FAD1534BC0
:1043200000221A700DE003F6781022F810B003F6A0
:1043300088100133DBB202EB40020F2B55800B706B
:10434000EDD800231A46DFF850B1ABF80030ABF8D7
:104350002230ABF12201ABF1020531F8020F024429
:10436000488C8D42034412B21BB2F6D1414D12115A
:104370001B1135F9521C4048ABF800202B8000F08F
:10438000D9FFB5F9003035F8560C0193BBF9003070
:1043900007AA00934FF4F0710823FFF79DFB35F84F
:1043A00046BC0BF1FF3B1FFA8BFB25F846BCBBF16B
:1043B000000F2AD1314801F00BF8584600F078FF81
:1043C0002F4B83F821B32F4B1B78032B00D08BB9D5
:1043D0002D4B1B7873B1E0238DF818302123032176
:1043E0008DF81A3006A8294B8DF819109847284BDC
:1043F00000221A6042F20F71184A002311806321D3
:10440000337082F8561013741FE0ABF10403D3F13C
:10441000000BB8F800204BEB030B8DF81CB05AB121
:10442000D9F800307B21B3FBF2F3C3F307228DF8F8
:1044300095208DF8963000E0792107A8FFF7E8FB7A
:104440000023C9F80030A8F8003045F84A3C5EE087
:10445000702500209812002072250020762500206B
:104460007425002080C1FFFF7C9A0008CC25002025
:10447000A6250020CA2500209C9A0008C39A00089F
:1044800048360020783900200F070020150700204B
:1044900018002742D0250020A8250020FFF7EEFBBA
:1044A00088B1237D7BB90120C9F80030A8F800301D
:1044B00000F0FEFE224B012283F82123632384F8BF
:1044C0005A3005232375237D13B11E4A013B137017
:1044D000237D012B1BD11C490B8803F65F1292B27E
:1044E000B2F5166F28BF03F1FF324A805A1C92B210
:1044F000B2F5166F154924BFA3F65F130B804FF07A
:10450000010333704FF0000338BF0A8023752388FE
:10451000059A01339BB2B3F5166F28BF0023AAF8A2
:1045200000300B4B1B8801339BB2042B88BF002348
:104530003B80039B93427FF44DAE27B0BDE8F08FE4
:104540004836002086250020782500207C25002084
:1045500070250020164AF0B50023164F164DC2F8FC
:104560007B30C2F87F30C2F8833003F0070EDC10D6
:10457000065DD95D15F80E40013326424FEAE1048D
:1045800001F007010BBF6E5C1619111915F801E057
:104590000BBF91F87B1096F87B10B1434EEA0101F6
:1045A0001444442B84F87B10DFD10020F0BD00BF01
:1045B000D8250020CA980008F59A0008222970B56D
:1045C000044621D1134D05F1100001F0C8F8202850
:1045D0001CD995F8E9302BB100232B8385F8E930FD
:1045E0006B832B7704F121060A4D14F8011F05F1A6
:1045F000100001F073F8B442F6D1074B187838B9BF
:10460000012385F84C3070BD042070BD052070BDBD
:10461000002070BDD8250020C42600202DE9F041DF
:104620001C4C054604EB0016304601F078F82028B3
:1046300020D9D4F8DC30132B1CD905F1380354F8F9
:104640002330052B16D904F1AE0504F1CF074FF046
:104650000008304601F02EF805F8010FBD4205F8BC
:10466000288CF6D12123A4F8D8300023A4F8DA301E
:10467000BDE8F081084B2544002285F8E82003F1CD
:10468000210113F8010F8B4283F8620083F83A206E
:10469000F7D1E7E7D8250020242600202DE9F041B6
:1046A0004E4CDFF83881D4F8DC3006460133C4F8CC
:1046B000DC30D4F8E0300F460133C4F8E030D4F8F1
:1046C000E43008F16F050133C4F8E43094F86E303B
:1046D0000B2B84BF002384F86E3094F86E30ABB996
:1046E000404601F01CF848B908F1100001F017F835
:1046F00020B93B4A1368C8F86F3003E0394A1368A1
:10470000C4F86F3053686B609368AB6094F86E20A8
:10471000354B15442A88012FA4F8AF20AA784FF012
:1047200000009A700CBF0822042284F88920D4F873
:10473000DC2084F88700132A84F88800A3F1AF03F3
:1047400006D903EB071000F0EAFF003018BF012084
:10475000731E94F86E50594259412DB1B5F10902BA
:1047600018BF0122012301E02B46012294F8AFE09B
:10477000012E81EA00070CBF082600264EEAC01071
:104780003043002B84F8AF0081EA030114BF80207E
:1047900000209F4214BF0223002394F8B06091428E
:1047A00014BF20210021304340EAC200974214BFC9
:1047B00002220022034384F8B03094F8B130194348
:1047C0000323A4F8D83000230A43A4F8DA30EB1C02
:1047D00084F8B12084F86E30BDE8F081D82500203F
:1047E000E49A0008532600208726002000B5104BCD
:1047F000A3B01B78632B17D1E02308228DF8043077
:1048000022AB03F8822D421E043012F8011F8242AF
:1048100003F8011FF9D10821064B01A88DF80510F6
:104820009847054B00221A6023B05DF804FB00BFD7
:1048300078390020150700201800274238B50446B3
:10484000084800F08CFF20280AD904F1210514F84B
:10485000011F044800F042FFAC42F8D1002038BDEF
:10486000052038BD7C3900202DE9F84F3D4C984695
:10487000237889469246002B72D094F82C33002B73
:104880006ED1394B1A7832B901221A7094F8043378
:104890005340364A13600138052816D8DFE800F087
:1048A0000306090C0F12B4F90A6310E0B4F90C63A3
:1048B0000DE0B4F90E630AE0B4F9106307E0B4F94F
:1048C000126304E0B4F9146301E0B4F90863254D00
:1048D00000274FF0010B574542D039F91730B4F893
:1048E00018137343DB1303F30F03194489B2B1F5B3
:1048F000805F22BFB5F824330133A5F82433B8F123
:10490000000F04D142461A4800F036FE26E094F823
:10491000283003F0FF0213B185F829B01EE0B5F886
:1049200024E0EB691FFA8EFE18F8070023F81E102A
:10493000AB8C296A9BB2C854AB8C298B01339BB2D8
:10494000AB84AB8C9BB2994298BFAA84A28CE38CB7
:1049500092B29BB29A4208BF85F828B00137BAE7F5
:10496000BDE8F88F48360020C4260020B0812142DF
:1049700060360020114AD18C938C89B29BB2994247
:1049800004D192F828309BB9108B12E0D18C938C13
:1049900089B29BB2994206D2918CD08C138B80B293
:1049A0001844401A02E0D38C908C181A80B200E0B0
:1049B0000020138B834238BF002070474836002008
:1049C000F0B5434C8DB0B4F8EC542DB1FFF7D2FFE5
:1049D0004FF4E37605460FE0204600F0A0FE0028E5
:1049E0004DD104E0A4F8EC140023A4F8EE34B4F89C
:1049F000EC34002B69D0E9E7142D66D940F252500F
:104A00004FF6AE274FF63A6EB4F8EE345A1C2344F4
:104A1000A4F8EE2493F83C20002302F0C001802982
:104A20000BD0C02906D000290CBF714639462DF89D
:104A3000131004E02DF8130001E02DF8136001338A
:104A40009200042BD2B2E8D1214F02AA694607F1A5
:104A5000100002F0BBFF0023142202A90220FFF77E
:104A600003FFB4F8EE24B4F8EC34143D9A42ADB22E
:104A7000C2D30023A7F8EE34A7F8EC3425E0154B99
:104A80001B785BB9D4F8F0145F209AB2914203F11D
:104A90000103A7D9224482F83C00F6E70C4800F055
:104AA00009FE63190135212D83F83C00F6D10A482F
:104AB0000023E218195C0133272B82F85D10F8D12E
:104AC000034B4822A3F8EC248EE70DB0F0BD00BFE5
:104AD0007C390020C4260020079C000830B5174B05
:104AE000A3B093F802313BB3E0238DF80430F223F6
:104AF0008DF806300025EBB2DA1CC45CD2B20DF1A1
:104B0000880E0135724414B102F8844CF3E70812A0
:104B100002F8840C5A1D043322A8DBB2D2B203443B
:104B200003F8841C01A8064B11468DF80520984710
:104B3000044B1C6000F068FD23B030BD703E0020C7
:104B4000150700201800274238B504460C4800F02D
:104B500006FE292805D801B20A48FFF7BFFF052045
:104B600038BD0021064800F0B9FD651E283415F84F
:104B7000011F034800F0B2FDA542F8D1002038BD66
:104B8000843F002056A1000838B504460C4800F0C8
:104B9000E6FD0C2805D801B20A48FFF79FFF052063
:104BA00038BD0121064800F099FD651E0B3415F84B
:104BB000011F034800F092FDA542F8D1002038BD46
:104BC000843F002076A1000808B5084800F0C7FD22
:104BD000014620B90648FFF781FF052008BD0221E4
:104BE000024800F07BFD002008BD00BF843F00208C
:104BF00094A100082DE9F04FC14CB7B0204600F059
:104C00008EFD20B9B4F89C32002B00F0BB81638983
:104C100062689BB2D25CBA4D02F0FF03002A40F0FA
:104C20002881B5F89C62002E40F02881B54B1B7896
:104C300093B91946B5F8A002AA258AB2904205D8C0
:104C4000002B00F03281A4F89C022EE1224482F86D
:104C5000445001310123F0E7284600F02BFD354692
:104C6000A74800F027FD0DF805000135292DF7D1E3
:104C700000231A460DF1800E0BA95A540EEB0301C6
:104C80000133532B8A70F7D10023184619469E4FE3
:104C90004FF0010C1A4603461DF801800D01002655
:104CA0000CFA06F018EA000F14BF0120002002EBF6
:104CB00000091A440244D20709F001090CD505F095
:104CC000070217F802B036AA02EBD50212F8ACAC14
:104CD0004BEA0A0A02F8ACACB9F1000F0ED06A1C1C
:104CE0000DF1D80909EBD20902F0070217F802A06A
:104CF00019F8AC2C4AEA020209F8AC2C0136082E4D
:104D000005F102051A4601D00346C9E701312A29F7
:104D1000C0D1DFF800C2002160460DF182030125F9
:104D20000CEB41020732B1F5257F7ED236AE06EBA1
:104D3000D10616F8AC6C37060BD512F8079C12F8A2
:104D4000067C05FA07F813F8097048EA070703F824
:104D5000097077060BD512F8059C12F8047C05FA49
:104D600007F813F8097048EA070703F80970B7064F
:104D70000BD512F8039C12F8027C05FA07F813F819
:104D8000097048EA070703F80970F7060AD512F810
:104D9000019C177805FA07F813F8097048EA070725
:104DA00003F809700F1DB7F5257F02F1080201D342
:104DB0003946B8E732070BD510F8178000EB4707E4
:104DC0007A7805FA02F713F808203A4303F8082026
:104DD00072070CD54A1D10F8128000EB420252787F
:104DE00005FA02F713F808203A4303F80820B7073A
:104DF0000CD58A1D10F8128000EB4202527805FA99
:104E000002F713F808203A4303F80820F2070AD5FE
:104E1000CA1D10F8127000EB4202527805FA02F631
:104E2000DA5D3243DA5508317AE7384D0DF1810207
:104E3000002312F8010F595D01334140532B1170CB
:104E4000F7D1EA238DF88030B4F89C12A6238DF8B0
:104E500081300023CA181EF8030092B201332244A5
:104E6000552B82F84400F5D1254B5531A3F89C12FF
:104E70001BE0012B1DD1B5F89C321BB1FFF77AFD69
:104E8000054649E0284600F015FC0C25B4F89C6264
:104E90001B48731CA4F89C3200F00CFC013D264416
:104EA00015F0FF0586F84400F0D10023A4F89E32E7
:104EB00020E0022B1ED1B5F89C32002BDED1284613
:104EC00000F0F8FBB5F89C32114D03F1120080B2EE
:104ED00000229918565D89B201322144062A81F8D0
:104EE0004460F6D106339BB28342F1D1044AA2F862
:104EF0009C32DAE7B4F89C32002B43D0BEE700BF07
:104F0000843F0020C4260020F59A0008B1A10008C3
:104F10000CA200082E9C0008282D33D940F24936F7
:104F20004FF6B747B4F89E325A1C2344A4F89E2289
:104F300093F844000122002332EA00010BA90CBFC0
:104F400021F8137021F8136001335200082BD2B2FC
:104F5000F2D10E4E20AA06F1100002F037FD002318
:104F6000282220A90120FFF77FFCB4F89E22B4F884
:104F70009C32283D9A42ADB2CED30023A6F89E3291
:104F8000A6F89C3237B0BDE8F08F00BF843F002008
:104F9000F0B52C4CA3B094F80241BDF9A070002CE0
:104FA0004DD0E0248DF80440F5248DF806404FF0F4
:104FB000000E5FFA8EF4E51C065DEDB20DF1880C73
:104FC0000EF1010E654416B105F8846CF1E7081284
:104FD00005F8840C201D22ADC0B2284400F8841CC2
:104FE000611DC9B21012294401F8840CA11DC9B277
:104FF000294401F8842CE21DD2B219122A4402F885
:10500000841C04F10802D2B22A4402F8843C04F160
:10501000090304F10B01DBB20A342B443A12E4B267
:1050200003F8842CC9B2084B2C4401A804F8847CF2
:105030008DF805109847054B1E6000F0E5FA23B087
:10504000F0BD00BF703E0020150700201800274269
:105050002DE9F04FBDF928C09F1CBDF92480013314
:10506000DFF8C4902F4CBFB29BB24FF0000ECCF1D2
:10507000000A1FFA8EF6BD1EB142ADB24FD909EB40
:105080004006B6F816B0EE10C8EB0B0B0FFA8BFB10
:10509000D34505F007050CDA14F805B0955D25EA4F
:1050A0000B05955503F00706DD1014F806B0565DA4
:1050B00021E0BBF1000F0CDA14F805B0955D25EA8C
:1050C0000B05955503F00706DD1014F806B0565D84
:1050D0000EE0E34514F805B0955D4BEA05059555DE
:1050E00003F007064FEAE30514F806B0565D02DA4E
:1050F00026EA0B0601E04BEA0606565500F10A06C1
:10510000B5B2B5F5F06F24BFA0F27675ADB2023737
:1051100002330EF1010EBFB29BB22846A9E7BDE8EB
:10512000F08F00BFF59A0008C82600202DE9FF4146
:105130005B4CB4F8163F04EB43035888C0F30900F6
:1051400080F4A67080F0010000F0F8FB022800F265
:10515000A380B4F8187F4FF0000E07F22676B6B29F
:10516000B6F5F06F38BF3246754628BFA7F15A0230
:105170004C48DFF838C128BF92B24FF47A5104EBA3
:105180004203B3F916301EF90C809842B8BF184696
:105190009942A8BF1946B8F1010F0AD0B8F1030F20
:1051A00005D0B8F1FF3F06D003EB430303E003EB68
:1051B0004303ED1A00E01D4402F10A039BB2B3F56C
:1051C000F06F28BFA2F276720EF1010E28BF93B2E3
:1051D000BEF10A0F01D01A46D1E7D4F8243F304A75
:1051E000AB4259DA92F8703F632B0AD10B185B106F
:1051F000A2F84C3FC31A44F63E104343DB13A2F817
:105200006E3FB4F96E3FB6F5F06F28BFA7F15A06AE
:105210000193B4F94C3F28BFB6B23046009303AABD
:1052200000230A21FFF714FF23789DF80D20002B9F
:105230009DF80C301C4983F0CD0382F0F502CF5C61
:105240008B5C9DF80E203B4422F00F0282F090020E
:105250008A5C08BF0120134418BF032003F0FF033A
:10526000984219D30623A4F8283FB4F8183F0C49F4
:1052700003F21B7292B2B2F5F06FA4F81E3F28BF82
:10528000653BC4F8245FA4F81A6F34BFA1F81C2F43
:10529000A1F81C3F012000E0002004B0BDE8F0812F
:1052A000C826002080C1FFFFFD9A0008FD9B000872
:1052B000034B1A7882421CBF024A10601870704774
:1052C000443600209481214270B5164BA2B01B7861
:1052D000052B00D01BBB144B1B7803B3E0238DF8C8
:1052E0000430C4B240238DF80630C4F10306C3B2C3
:1052F0009A191B1BDBB29942D2B206D910F8015B96
:1053000022AB134403F8845CF1E70331C9B2074BC5
:1053100001A88DF805109847054B00221A6022B0AD
:1053200070BD00BF7839002010070020150700204D
:1053300018002742F0B5234CA3B094F80241002C8A
:105340003DD0E0248DF80440F4248DF80640002779
:10535000FCB2E51C065DEDB20DF1880E0137754417
:1053600016B105F8846CF3E7081205F8840C201DCB
:1053700022ADC0B2284400F8841C611DC9B21012CD
:10538000294401F8840CA11DC9B2294401F8842CD8
:10539000E21DD2B219122A4402F8841C04F1090158
:1053A0000834E4B22C4404F8843CC9B2064B01A88A
:1053B0008DF805109847054B1E6000F025F923B0C5
:1053C000F0BD00BF703E00201507002018002742E6
:1053D00010B5114BA2B093F80231D3B1E0238DF890
:1053E0000430F1238DF806300023DAB2845CD91C36
:1053F000C9B2013324B122AA114401F8844CF4E764
:10540000064B01A88DF805109847054B1C6000F06D
:10541000FBF822B010BD00BF703E00201507002031
:10542000180027422DE9F047BDF82040BDF928803B
:10543000A51CADB205EB420201341FFA82FCBDF996
:105440002490284AA4B2C8F1000AAF1EAC45BFB2EE
:1054500045D001F10C0630F816E0FE10C9EB0E0E37
:105460000FFA8EFED64507F007070CDA12F807E0B0
:105470009F5D27EA0E079F5504F00707E61012F814
:1054800007E09F5D21E0BEF1000F0CDA12F807E0A3
:105490009F5D27EA0E079F5504F00707E61012F8F4
:1054A00007E09F5D0EE0C64512F807E09F5D4EEAFB
:1054B00007079F5504F007074FEAE40612F807E0D4
:1054C0009F5D02DA27EA0E0701E04EEA0707053181
:1054D000023502349F5589B2ADB2A4B2B5E7BDE83A
:1054E000F08700BFF59A0008B0F8262730B402F123
:1054F0003C0302F5167294B29BB200225D1C00EBD5
:105500004303B3F84A371A44ABB2A342F6D14FF47F
:105510000773B2FBF3F230BCC2F3072381F82320F8
:1055200081F822302422007801F026BD10B5034610
:105530008489C089A4B280B2844204D11C7C04F066
:10554000FF0004B910BDD8895C6880B234F810003F
:105550000880D989986889B2415C1170002119745A
:10556000DA891888013292B2DA81DA8992B29042ED
:1055700000D8D981012010BD037C30B503F0FF04B1
:105580001BB101234374002030BD838945689BB261
:1055900025F81310838981689BB2CA5483890288D5
:1055A00001339BB2838183899BB29A4298BF8481E5
:1055B0008289C38992B29BB29A424FF0010308BF1D
:1055C0000374184630BDC289838992B29BB29A4255
:1055D00005D1027C02F0FF039AB100887047C289AE
:1055E000838992B29BB29A4203D28389C089181AE6
:1055F00005E0C1898289038892B2D018401A80B22E
:105600007047184670470000024B99685A689142EB
:10561000FBD17047E4070020034630B500F11802C3
:1056200003F8041B002143F8041B9342FBD11A46E4
:1056300000F5E464002522F8025BA2424FF000036B
:10564000F9D142F20F72A0F82037A0F82827A0F86D
:105650002237A0F82437A0F82637A0F82A37C0F858
:105660002C37A0F83037A0F83237A0F83437A0F83C
:105670003637A0F83837A0F83A37A0F83C37A0F80A
:105680003E3780F8403780F8413780F8423780F85D
:105690004337A0F8443780F8463780F8473780F81A
:1056A000483700F24A7200F6526122F8023B8A4201
:1056B000FBD130BD034610B54289416892B2885C87
:1056C000002119735A891C88013292B25A815A8971
:1056D000C0B292B2944298BF598110BD037B10B5FD
:1056E00003F0FF02BBB9038944689BB2E15403890C
:1056F000018801339BB2038103899BB2994298BF11
:1057000002810289438992B29BB29A424FF001030F
:1057100003D1037301E0002010BD184610BD42897B
:10572000038992B29BB29A4205D1027B02F0FF0339
:105730009AB1008870474289038992B29BB29A421B
:1057400003D203894089181A05E041890289038838
:1057500092B2D018401A80B27047184670474289FA
:10576000038992B29BB29A42028803D1037B93B918
:10577000104612E04189038989B29BB299423BBF2E
:1057800003894089438980B22DBF00898018C01ADF
:10579000181A80B201E000207047824238BF002012
:1057A0007047002310B503810446438101800373D1
:1057B000084602F0FFFC6060204610BD70B5CD7C4D
:1057C000487BAD000C7D05F03C06097B850025F08B
:1057D0003F05800940EA8100354345EA9415C0B28F
:1057E000C002EDB200EBC501C4F3C2042144B1F51F
:1057F000006F084610DB40F675464FF4802420F415
:10580000FF6525F007053DB1204201D16408FBE7A3
:10581000E50A75436840F2E7054C54F82000414022
:10582000C1F3C721080901F00F011070197070BD94
:105830009CA30008072910B593BF044608394368A4
:10584000236888BF041D89000F20884023EA0003D5
:1058500002FA01F11943216010BD10F1FF3001D3AC
:1058600000BFFAE7704700004FF080431A6913B594
:10587000D20753D56FF001021A6100238DF805306D
:105880004FF40063ADF80630254B1B68002B45D064
:10589000244B01241C6003F500431C600DF105023C
:1058A0000DF106012048FFF741FEBDF806201F4B11
:1058B0001F489A6003F53043D96C9DF8052089B2E2
:1058C000ADF80610FFF758FE1A4BD96C1A4B93F837
:1058D000382002F0FF0012B183F8394019E09A8EA7
:1058E0001C6B92B289B224F812109A8E998D0132F3
:1058F00092B29A869A8E92B2914298BF9886998E69
:10590000DA8E89B292B2914202BF0B4A012182F82B
:105910003810D3F828230132C3F8282302B010BD71
:10592000048024420081244260360020007400403C
:105930004C3600200028014048360020084BC1B2F8
:10594000C0F307229A5C595C82B01144C0F307424D
:105950009A5C000E185C0A441044C0B202B0704752
:10596000FD9A0008B0F820372DE9F04700EB8303DB
:105970005B680446774823F07F43584086B00F4663
:10598000FFF7DCFFC31EDBB2122B804640F2DE8045
:10599000B4F822170022733989B28E4616466E4D2E
:1059A000DFF8BCC1DFF8BC914FF47A500EF10C0364
:1059B00034F913309D42B8BF1D469842A8BF18461F
:1059C000B8F1020F94BF12F909A012F90CA0BAF1B4
:1059D000010F0AD0BAF1030F05D0BAF1FF3F06D08C
:1059E00003EB430303E003EB4303F61A00E01E441A
:1059F00001320EF1050E182A1FFA8EFED6D1D4F808
:105A00002C379E4240F3A280284440100FFA80F9C0
:105A1000281A44F631454543042345F3CF350DF1AB
:105A2000100A0093204653460295CDF80490FFF7E4
:105A3000F9FC0023B8F1020F1A464848DFF828E1C4
:105A40003BD8DFF828C11EF803101AF8038008EAD3
:105A5000010813F80C10013388EA0101415C072B9F
:105A60000A44D2B2EFD1032A70D88FB1A4F83E57BE
:105A7000A4F83C57A4F83A57A4F83857A4F8369736
:105A8000A4F83497A4F83297A4F8309700230BE0D9
:105A900094F8403704EB43020133DBB2032BA2F846
:105AA0003857A2F8309702D884F8403701E084F8DC
:105AB0004077C4F82C6740233AE0DFF8B4C01EF802
:105AC00003101AF8038008EA010813F80C100133D8
:105AD00088EA0101415C072B0A44D2B2EFD1032AC4
