:020000040800F2
:1000000000000120A9720008D1720008D172000816
:10001000D1720008D1720008D172000800000000FF
:10002000000000000000000000000000D172000885
:10003000D172000800000000D1720008D1720008DF
:10004000D1720008D1720008D1720008D172000884
:10005000D1720008D1720008D1720008D172000874
:10006000D1720008D1720008D1720008D172000864
:10007000D1720008D1720008D1720008D172000854
:10008000D1720008D1720008D1720008D172000844
:10009000D1720008D1720008D1720008D172000834
:1000A000D1720008D1720008D1720008D172000824
:1000B000D1720008D1720008D1720008D172000814
:1000C000D1720008D1720008D1720008D172000804
:1000D000D1720008D1720008D1720008D1720008F4
:1000E000D1720008D1720008D1720008000000002F
:1000F0000000000000000000000000000000000000
:100100000000000000000000D1720008D172000859
:10011000D1720008D1720008D1720008D1720008B3
:10012000D1720008D1720008D1720008D1720008A3
:10013000D17200080000000000000000D172000829
:10014000D1720008D1720008D1720008D172000883
:10015000000000000000000000000000000000009F
:10016000000000000000000000000000000000008F
:10017000000000000000000000000000000000007F
:10018000000000000000000000000000000000006F
:10019000000000000000000000000000000000005F
:1001A000000000000000000000000000000000004F
:1001B000000000000000000000000000000000003F
:1001C000000000000000000000000000000000002F
:1001D000000000000000000000000000000000001F
:1001E0005FF8E0F10348044B834202D0034B03B1B4
:1001F00018477047F4080020F408002000000000B1
:1002000005480649091A891001EBD171491002D03D
:10021000034B03B118477047F4080020F40800208E
:100220000000000010B5064C237843B9FFF7DAFF51
:10023000044B13B10448AFF300800123237010BDB9
:10024000F40800200000000038C3000808B5044B83
:100250001BB104490448AFF30080BDE80840CFE774
:1002600000000000F808002038C30008134B002BE2
:1002700008BF114B9D46A3F5803A00218B460F46DF
:100280001148124A121A07F0EFFD0D4B002B00D057
:1002900098470C4B002B00D0984700200021040009
:1002A0000D000B4807F078FD07F0AAFD200029009B
:1002B00005F0A6F907F076FD000008000000012017
:1002C0000000000000000000F408002078AE0020CC
:1002D000CD7D00082DE9F043444C2578002D37D022
:1002E00094F82C53002D33D1414D2E7836B9012688
:1002F0002E7094F8045375403E4E35600138052841
:1003000037D8DFE800F003272A2D3033B4F90A5339
:1003100000264FF0010C31F91600B4F81873684349
:10032000C01300F30F00384480B2B0F5805F22BFE5
:10033000B4F824730137A4F8247394F82870002BC0
:1003400036D1CFB184F829C00136B0B28242E2D8AA
:10035000BDE8F083B4F90C53DAE7B4F90E53D7E7EC
:10036000B4F91053D4E7B4F91253D1E7B4F91453E4
:10037000CEE7B4F90853CBE7B4F824E0E7691FFAF5
:100380008EFE27F81E00A78C206ABFB2C355A08C32
:10039000278B013080B2A084A08C874200D8A38430
:1003A000A78CE08C80B2B84208BF84F828C0CBE7A5
:1003B00007F0FF0E002FC5D1B4F82490E7691FFAAB
:1003C00089F913F8068027F81900A78C206ABFB2B4
:1003D00000F80780A08C278B013080B2A084A08C0D
:1003E000874298BFA4F824E0DAE700BF4C5200200F
:1003F0007E550020B08121420F4BD88C998C1A8BEE
:1004000089B2814206D193F82830002B0CBF1046E8
:1004100000207047D98C988C884287BF998CD88CE3
:10042000D88C9B8C86BF8018401AC01A80B290422C
:1004300088BF0020704700BF4C52002010B5174BFA
:10044000174A03F1200153F8044B8B4242F8044B46
:10045000F9D11B780001137040F00900114BC0B2B4
:1004600033F810301049DCB29B0A8008A20803F070
:100470003C0381F8590043EA841302F0300002F093
:100480000F0240F04D0062F02F0243F0030381F8A9
:100490005A0081F8602081F8613010BDB3B90008BE
:1004A000A94B002094AB00085C4B0020114B1B783B
:1004B0005A1E51425141104A981E11604142A3F107
:1004C000030C414142F8041CDCF1000141EB0C013A
:1004D000181F51604142A3F1050C41419160DCF1CC
:1004E000000141EB0C01D160991F4B424B4113615C
:1004F000704700BF7D5500209C812142034B1A7834
:1005000082421CBF024A1060187070477C55002060
:10051000948121422DE9F04FBDF928E003EB410120
:10052000BDF92490DFF890801FFA81FACEF1000B1C
:10053000204C00F10C0134F811405E1CA4EB0904BE
:10054000B6B224B24FEAE30C03F00705F110023310
:1005500006F007065C4512F80C7018F8055018F8FC
:1005600006609BB206DA27EA050502F80C50545CD7
:10057000264308E0002C15DA27EA050502F80C509E
:10058000545C24EA06065654411D89B2B1F5875FD2
:1005900023BFA0F586501B3880B208469A45C7D1C4
:1005A000BDE8F08F3D4302F80C507445545CDFDA2F
:1005B000E7E700BF886A00205A8A00082DE9F04F5B
:1005C000BDF928E003EB4101BDF92490DFF88C80F0
:1005D0001FFA81FACEF1000B1F495E1C01EB4001AE
:1005E000CC8AB6B2A4EB090424B24FEAE30C03F0C0
:1005F0000705F110023306F007065C4512F80C708F
:1006000018F8055018F806609BB206DA27EA0505C7
:1006100002F80C50545C264308E0002C15DA27EA57
:10062000050502F80C50545C24EA0606565400F105
:100630000A0189B2B1F5F06F26BFA0F2767080B2E0
:1006400008469A45C8D1BDE8F08F3D4302F80C50EA
:100650007445545CDFDAE7E7805500205A8A0008C9
:100660002DE9F04FBDF928E003EB4101BDF92490DD
:10067000DFF88C801FFA81FACEF1000B1F4C00F1DD
:100680000C0134F811405E1CA4EB0904B6B224B28C
:100690004FEAE30C03F00705F110023306F00706FA
:1006A0005C4512F80C7018F8055018F806609BB2FB
:1006B00006DA27EA050502F80C50545C264308E0E8
:1006C000002C14DA27EA050502F80C50545C24EAE1
:1006D00006065654411D89B2B1F5166F26BFA0F625
:1006E0005B1080B208469A45C8D1BDE8F08F3D4303
:1006F00002F80C507445545CE0DAE8E79895002065
:100700005A8A00082DE9F04F0139CCB2BDF928E032
:10071000991C01EB4401BDF92490DFF88C801FFA8D
:1007200081FACEF1000B1F495E1C01EB40018C8A5F
:10073000B6B2A4EB090424B24FEAE30C03F00705B8
:10074000F110023306F007065C4512F80C7018F839
:10075000055018F806609BB206DA27EA050502F88C
:100760000C50545C264308E0002C14DA27EA0505F7
:1007700002F80C50545C24EA06065654411D89B216
:10078000B1F5257F26BFA0F28F2080B208469A459A
:10079000C9D1BDE8F08F3D4302F80C507445545C5C
:1007A000E0DAE8E7642900205A8A00082DE9F04FD2
:1007B0000139CCB2BDF928E0991C01EB4401BDF927
:1007C0002490DFF88C801FFA81FACEF1000B1F49CC
:1007D0005E1C01EB40018C8AB6B2A4EB090424B282
:1007E0004FEAE30C03F00705F110023306F00706A9
:1007F0005C4512F80C7018F8055018F806609BB2AA
:1008000006DA27EA050502F80C50545C264308E096
:10081000002C14DA27EA050502F80C50545C24EA8F
:1008200006065654411D89B2B1F5B46F26BFA0F239
:100830009B5080B208469A45C9D1BDE8F08F3D4330
:1008400002F80C507445545CE0DAE8E7B40D00207F
:100850005A8A0008F0B5487BCC7C8600A40026F0BC
:100860003F0604F03C0434430E7B0D7D810941EAD0
:10087000860144EA9514C9B2E4B2C90201EBC4018D
:10088000C5F3C2052944B1F5006F08460EDB4FF4ED
:10089000802440F675460B4F384207D0204201D1E4
:1008A0006408FBE7E50A75436840F5E7064C54F831
:1008B00020004140C1F3C721080901F00F01107069
:1008C0001970F0BD00F8FFFF8C8B0008C289838986
:1008D0009BB2934205D1027C02F0FF0382B10088F3
:1008E0007047C38982899A429DBFC28983890088E3
:1008F00083898BBFC089C018181A801A80B27047CC
:1009000018467047024B99685A689142FBD170476C
:100910007007002030B5164BA3B093F802312BB30B
:10092000E023ADF80430F2238DF806300323DA1EFD
:10093000D2B2845C22AD5A1CD2B21D441CB105F85F
:10094000844C1346F3E7081205F8840C023322A8FE
:10095000DBB2024402F8841C01A88DF80530194668
:10096000044B9847044B1C60FFF7CCFF23B030BD0D
:1009700084940020010000201800274210B5114B7C
:10098000A2B093F80231D3B1E023ADF80430F123E3
:100990008DF806300023DAB2845CD91CC9B2013369
:1009A00024B122AA114401F8844CF4E7064B01A8B3
:1009B0008DF805109847054B1C60FFF7A3FF22B088
:1009C00010BD00BF849400200100002018002742C1
:1009D0005C2810B5044600F0248115D8042800F0E6
:1009E000128108D8022824D000F20B81012800F0DF
:1009F000C4808E481EE0062800F00981C0F0058101
:100A00005B28F6D18A4815E0602800F0048106D8FA
:100A10005E2800F0028140F2028186480AE06328E5
:100A200000F0F780652800F0FE806228E1D182485E
:100A300000E08248FFF7A2FF0022814B022C1A60DF
:100A40001A715A719A60C3E91C22C3F85823A3F89B
:100A50005C2340F09580002241F2E821794B63202D
:100A60005A5041F23431585441F2D82141F2DC203D
:100A70005A507549042C195003F59750016041F202
:100A8000E42142F20F70585241F210315A5241F2B1
:100A900032315A5241F2EC215A5241F2EE215A546B
:100AA00041F238315A5041F23C311A705A5232D028
:100AB000002242F2EC11654B63205A5042F2382179
:100AC000585442F2D81142F2DC105A505E49052CBB
:100AD000195042F2E010195042F2E410195042F25B
:100AE000E81142F20F70585242F214215A5242F267
:100AF00036215A5242F2F0115A5242F2F2115A542D
:100B000042F23C215A5003F509510A8042F2422137
:100B10001A705A5423D063214D4B002283F8701F62
:100B200042F20F711A70A3F8182FA3F8162FC3F80A
:100B3000242FA3F81A1FA3F81C1FA3F81E1FA3F845
:100B4000201FA3F8221FA3F84C2FA3F86E2FA3F8A1
:100B5000282F83F82A2FC3F8742FA3F8782F0022A8
:100B60003C4BA3F8E823A3F8EA2383F8EC233A4BA1
:100B70001C70BDE81040FFF799BC3848FFF7FEFE37
:100B8000002342F20F7141F29550354A032CC2F80E
:100B90004435C2F84835C2F83C35A2F84015314A10
:100BA000C2F8603B82F8753B82F8763B82F8783B6E
:100BB000C2F8583BA2F85C1B2B4A135441F29650E2
:100BC000135441F29A50135441F27450135041F2AD
:100BD0007850135041F27C5082F8413782F8423706
:100BE00082F84637C2F82037C2F82437C2F82817EF
:100BF000C2F82C37115002F5AC5213603FF458AFD5
:100C000029E71A4816E71A4814E71A4812E71A485B
:100C100010E71A480EE71A480CE71A480AE71A487C
:100C200008E71A4806E71A4804E700BF0FBD0008A6
:100C3000CFBC000847BC000812BC000884BB0008F9
:100C4000484C0020989500200F270F27886A002025
:100C500080550020C40900207D55002094BB000869
:100C600064290020B40D0020B42E0020A7BB00088A
:100C7000C1BB0008D1BB0008E2BB0008F5BB0008FF
:100C80002CBC000863BC000888BC0008AABC000893
:100C9000F2BC0008F0B5294CA3B094F80241BDF9AC
:100CA000A070002C48D0E024ADF80440F5248DF865
:100CB00006400324E51EEDB2465D0DF1880C651C6F
:100CC000EDB2A4441EB10CF8846C2C46F2E7081275
:100CD0000CF8840C22A8054405F8841CA11CC9B298
:100CE0000144101201F8840CE11C22A8C9B201448D
:100CF00001F8842C221DD2B20244191202F8841C7D
:100D0000621DD2B2024402F8843CA31D04F1080122
:100D1000DBB2073403443A12E4B203F8842CC9B2BC
:100D20000444074B01A804F8847C8DF8051098470B
:100D3000044B1E60FFF7E6FD23B0F0BD8494002055
:100D40000100002018002742F7B54FF47A52DFF86F
:100D50000CC1DFF80CE1002716466346744600F12B
:100D60000C053EF91550002D5DDDAB42B8BF2B469A
:100D7000AE42A8BF2E46451DADB2B5F5875F28BF70
:100D8000A0F5865007F101072CBF1B382846BDB2DD
:100D900028BF80B2A942E2D8991962444910521082
:100DA0008D186D102EB24D1B2DB2334609B2009531
:100DB00012B22948FFF76EFF42F23821635C632BC1
:100DC00038D1002342F2F41042F2162104EB430220
:100DD0000133102B16525552F8D142F2382300221B
:100DE000E254002342F21422A35242F23622194660
:100DF000A35242F2F4171A4642F2162504EB4300BE
:100E0000C65B405B013331440244102B09B212B27D
:100E1000F4D142F214230911E15242F236231211A5
:100E2000E25203B0F0BDAA42A8BF2A46AC45B8BF03
:100E3000AC46A0E703F58752183204EB42029680D5
:100E400003F588520133DBB2083204EB42020F2B68
:100E5000D5806354C1D8C4E709BE000880C1FFFF34
:100E6000886A0020F0B5224CA3B094F80241002C0F
:100E70003BD0E024ADF80440F4248DF80640032470
:100E8000E51EEDB2465D22AF651CEDB227441EB1F2
:100E900007F8846C2C46F3E7081207F8840C22A8A4
:100EA000054405F8841CA11CC9B20144101201F8C4
:100EB000840CE11C22A8C9B2014401F8842C221D33
:100EC000D2B20244191202F8841CA11D0534E4B206
:100ED000044404F8843CC9B2064B01A88DF80510FF
:100EE0009847054B1E60FFF70DFD23B0F0BD00BF16
:100EF0008494002001000020180027422DE9F74FBC
:100F0000013AD2B202EB82024D1DBDF938802A446B
:100F100092B2BDF83040BDF934A0DFF88090019264
:100F2000C8F1000B01F10C0230F81250671CA5EB60
:100F30000A05BFB22DB24FEAE40E04F00706FA101C
:100F4000023407F007075D4513F80EC019F8066074
:100F500019F80770A4B206DA2CEA060603F80E6048
:100F60009D5C2F4308E0002D0FDA2CEA060603F8FB
:100F70000E609D5C25EA07079F540531019A89B2EE
:100F80009142CFD103B0BDE8F08F4CEA060603F8DA
:100F90000E6045459D5CE4DAECE700BF5A8A000824
:100FA0000023C0E90133C0E9033310B50170436188
:100FB00000F1180100F5E46421F8023BA1424FF072
:100FC0000002F9D142F20F71C0F828170021C0F8D1
:100FD0002037C0F82437C0F82C37C0F83037C0F8B5
:100FE0003437C0F83837C0F83C37C0F84037A0F87D
:100FF000443780F8462780F8472780F8482700F2D2
:101000004A7300F6526223F8021B9A42FBD110BDCC
:10101000072910B592BF04464368041D4FF00F0026
:101020008CBF083923688900884023EA000302FA4C
:1010300001F11943216010BD10F1FF3001D300BF51
:10104000FAE77047074AC3B2C0F30721515CD35C8B
:101050000B44C0F30741515C000E105C0B44184474
:10106000C0B27047E483000842F2D8132DE9F04380
:10107000684C6948E35A85B004EB83035B6823F04E
:101080007F435840FFF7DEFF022800F2C18042F2A2
:10109000DA134FF0000CE35A664603F583550D351D
:1010A000ADB2B5F5875F24BFA3F17305ADB22A4693
:1010B0004FF47A50594FDFF868E102F10C0334F92C
:1010C00013301CF90E109F42B8BF1F469842A8BFAC
:1010D0001846012909D0032904D0013140F0958038
:1010E0001E4403E0A3EB8303FAE7F61A511D89B20D
:1010F000B1F5875F24BFA2F586521B3A0CF1010CB3
:101100002CBF92B20A46BCF1180FD6D142F2EC13B2
:10111000E358B3427CDA42F23823E35C632B0CD110
:1011200042F21422C3195B10A35244F63E12FB1A7A
:10113000534342F23622DB13A35242F23623E35EDC
:1011400002AF019342F21423E35E18210093284674
:1011500000233A46FFF7DEF9002120780B460028ED
:1011600014BF4FF0040C4FF0020CDFF8B8E0DFF8CA
:10117000B8807A5C11F80890013182EA09021EF801
:10118000022006291344DBB2F3D1634540D842F272
:10119000EC130522E65042F2F013E25242F2DA1367
:1011A00042F2E812E35A42F2E011A35242F2DE1296
:1011B000A55203F58352073292B2B2F5875F28BF7A
:1011C000A3F179026252E0B942F2E612A35242F26E
:1011D000DC1242F2E211A55203F2BB7292B2B2F5F6
:1011E000875F28BFA3F62512625242F2E41103F290
:1011F000BD7292B2B2F5875F2ABFA3F62313625283
:101200006352012005B0BDE8F08303EB430367E7B9
:101210000020F7E7886A0020A030FB0080C1FFFFB4
:1012200008B80008E48300086E8A0008F0B5554C41
:1012300085B0B4F8163F04EB43035888C0F30900A7
:1012400080F4A67080F00100FFF7FCFE022800F297
:1012500096800027B4F8183F3D4603F22676B6B2D2
:10126000B6F5F06F24BFA3F15A06B6B231464FF47B
:101270007A524548DFF818E104EB4103B3F9163020
:1012800017F90EC09842B8BF18469A42A8BF1A462E
:10129000BCF1010F0AD0BCF1030F04D0BCF1FF3F39
:1012A0006AD11D4403E0A3EB8303FAE7ED1A01F1D1
:1012B0000A039BB2B3F5F06F28BFA1F2767107F174
:1012C00001072CBF89B219460A2FD5D1D4F8243F83
:1012D000AB4254DA94F8703F632B0AD102445210A7
:1012E000A4F84C2F821A44F63E104243D213A4F8BD
:1012F0006E2FB4F96E3F30460193B4F94C3F03AA08
:1013000000930A210023FFF759F923789DF80D2057
:10131000002B14BF032001209DF80C301B4983F0E3
:10132000CD0382F0F5028A5CCB5C13449DF80E205D
:1013300022F00F0282F090028A5C134403F0FF0354
:1013400098421CD306230120A4F8283FB4F8183F84
:10135000C4F8245F03F21B7292B2B2F5F06FA4F8E6
:101360001E3F28BF653BA4F81A6F34BFA4F81C2F9A
:10137000A4F81C3F05B0F0BD03EB430391E7002048
:10138000F8E700BF8055002080C1FFFFE48300081C
:10139000FEB700082DE9FF4141F2D823564C5748CB
:1013A000E35A04EB83035B68C3F313035840FFF76E
:1013B00049FE032800F29D8041F2DA230027E35A18
:1013C0003D4603F60116B6B2B6F5166F24BFA3F17B
:1013D0005F06B6B231464FF47A524948DFF828E149
:1013E00001F10C0334F9133017F90EC09842B8BF5D
:1013F00018469A42A8BF1A46BCF1010F0AD0BCF1A8
:10140000030F04D0BCF1FF3F70D11D4403E0A3EBF8
:101410008303FAE7ED1A4B1D9BB2B3F5166F28BF95
:10142000A1F65B1107F101072CBF89B21946142FF1
:10143000D6D141F2E823E358AB425ADA41F23433D1
:10144000E35C632B0CD141F2103302445210E252A0
:10145000821A44F63E1041F232334243D213E25232
:1014600041F23233E35E02AF019341F21033E35EA7
:10147000304600933A4600231421FFF7F1F8237811
:10148000DFF888C0002B4FF0000314BF04200220B7
:101490001A46DFF87C80F95C13F808E0013381EA32
:1014A0000E011CF80110052B0A44D2B2F3D182427E
:1014B0001FD841F2E822A55041F2EC22A35241F29A
:1014C000DA23104AE35A41F2DE21138041F2DC2292
:1014D0000120A65203F6FB0292B2B2F5166F2ABFA4
:1014E000653B6252635204B0BDE8F08103EB4303F5
:1014F0008BE70020F7E700BF98950020ADB5070007
:1015000080C1FFFF78A8002020B80008E48300080D
:10151000748A00082DE9FF47874C0746B4F8543B0E
:10152000864854F8233023F07F435840FFF78AFD64
:10153000C31EDBB2122B804640F2AB800021B4F810
:10154000563B0E4603F22D5080B2B0F5B46F24BF67
:10155000A3F1730080B284464FF47A52784DDFF8DD
:10156000ECE1DFF8EC9104EB4C03B3F914309D424D
:10157000B8BF1D469A42A8BF1A46B8F1020F94BFE1
:1015800011F909A011F90EA0BAF1010F0AD0BAF1B0
:10159000030F04D0BAF1FF3F7ED11E4403E0A3EB5A
:1015A0008303FAE7F61A0CF105039BB2B3F5B46FA7
:1015B00028BFACF29B5C01F101012CBF1FFA8CFC2F
:1015C0009C461829CFD1D4F8603BB34261DA2A4453
:1015D00052100FFA82F9AA1A44F6314555430DF11B
:1015E000080A45F3CF350423CDE900955246FFF7AD
:1015F000DDF80023B8F1020F9C46524952485DD8ED
:10160000DFF850E110F803801AF8032002EA08021C
:1016100013F80E80013382EA08028A5C072B944497
:101620005FFA8CFCEED1BCF1030F32D8BFB30023BC
:10163000A4F8725BA4F8705BA4F86E5BA4F86C5B12
:10164000A4F86A9BA4F8689BA4F8669BA4F8649B22
:1016500084F8743B4023C4F8606B84F8753BB4F89D
:10166000563B03F21A4292B2B2F5B46F28BFA3F50B
:10167000C372A4F85A2B03F20D1292B2B2F5B46FF2
:10168000A4F8583B2ABFA3F29343A4F85C2BA4F818
:101690005C3B04B0BDE8F08703EB43037DE794F8BF
:1016A000743B04EB43020133DBB2032BA2F86C5B07
:1016B000A2F8649BCCD984F8747BCBE7DFF898E080
:1016C00010F803801AF8032002EA080213F80E80CB
:1016D000013382EA08028A5C072B94445FFA8CFC8F
:1016E000EED1BCF1030FD4D8B7B10023A4F8725BDC
:1016F000A4F8705BA4F86E5BA4F86C5BA4F86A9B1A
:10170000A4F8689BA4F8669BA4F8649B84F8743BD7
:10171000C4F8606B2023A0E794F8743B04EB430209
:101720000133DBB2032BA2F86C5BA2F8649BEDD90A
:1017300084F8747BECE700BFB40D00206E287600BF
:1017400080C1FFFFE48300088CAB00084CB80008A0
:1017500034B80008F0B70008F7B70008B0F8203731
:101760002DE9F04700EB83035B680446794823F0DA
:101770007F43584086B08846FFF764FCC31EDBB247
:10178000122B814640F29180B4F822170120733960
:1017900089B20F464FF47A5200266F4DDFF8C4E14C
:1017A000DFF8C4A107F10C0334F913309D42B8BF30
:1017B0001D469A42A8BF1A46B9F1020F94BF00EB2A
:1017C0000A0C00EB0E0C1CF901CCBCF1010F0AD085
:1017D000BCF1030F04D0BCF1FF3F69D11E4403E00C
:1017E000A3EB8303FAE7F61A013005371928BFB2D5
:1017F000D8D1D4F82C37B34257DA2A44521017B252
:10180000AA1A44F63145042355430DF1100A45F355
:10181000CF35009320465346CDE901751822FFF7D6
:101820006DFB0023B9F1020F9C464C494C4851D83E
:10183000DFF838E110F803901AF8032002EA0902F1
:1018400013F80E90013382EA09028A5C072B944454
:101850005FFA8CFCEED1BCF1030F26D8B8F1000F73
:1018600029D00023A4F83E57A4F83C57A4F83A57CF
:10187000A4F83857A4F83677A4F83477A4F8327768
:10188000A4F8307784F840374023C4F82C6784F8F4
:101890004137B4F82237A3F5C372A4F8243703F212
:1018A0000D13A4F82627A4F8283706B0BDE8F08762
:1018B00003EB430392E794F8403704EB4302013310
:1018C000DBB2032BA2F83857A2F83077DAD984F8C4
:1018D0004087D9E7DFF898E010F803901AF8032062
:1018E00002EA090213F80E90013382EA09028A5CC7
:1018F000072B94445FFA8CFCEED1BCF1030FD4D8D3
:10190000B8F1000F16D00023A4F83E57A4F83C57B6
:10191000A4F83A57A4F83857A4F83677A4F83477DF
:10192000A4F83277A4F8307784F84037C4F82C67ED
:101930002023ACE794F8403704EB43020133DBB2D9
:10194000032BA2F83857A2F83077EDD984F84087F6
:10195000ECE700BF6E28760080C1FFFFE48300083B
:101960008CAB00084CB8000834B80008F0B7000889
:10197000F7B7000810B54289416892B20346885C07
:10198000002119735A891C88013292B25A815A89EE
:10199000C0B2944298BF598110BD037B10B503F0CB
:1019A000FF02B3B9038944689BB2E15403890188FB
:1019B00001339BB203810389994298BF0281028956
:1019C00043899BB293424FF0010300D10373184641
:1019D00000E0002010BD428903899BB2934205D1EB
:1019E000027B02F0FF0382B10088704743890289BD
:1019F0009A429DBF42890389008803898BBF408931
:101A0000C018181A801A80B2704718467047000034
:101A10002DE9F0411B4C014604EB00163046FFF760
:101A2000DAFF202809D9D4F8DC30132B05D901F1CD
:101A3000380354F82330052B0FD80022124B2144D1
:101A400081F8E82003F1210113F8010F8B4283F89C
:101A5000620083F83A20F7D10EE04FF0000804F15D
:101A6000860504F1A7073046FFF784FF85F82900B3
:101A700005F8018FBD42F6D12123C4F8D830BDE866
:101A8000F08100BF5C4B0020A84B002041890389F6
:101A900002889BB28B4205D1037B002B0CBF104602
:101AA0000020704743890189994287BF0389408993
:101AB0004389008986BF8018C01A181A80B29042E4
:101AC00088BF00207047000070B504460948FFF742
:101AD000DDFF20280BD9074E04F1210514F8011F62
:101AE0003046FFF75AFFAC42F8D1002070BD052008
:101AF000FCE700BF7024002070B504460D48FFF7D6
:101B0000C5FF292805D801B20B48FEF703FF0520C1
:101B100070BD00210748FFF740FF064E651E2834C0
:101B200015F8011F3046FFF738FFA542F8D1002015
:101B3000EEE700BFA84F0020D6BF000870B50446EE
:101B40000D48FFF7A3FF0C2805D801B20B48FEF79C
:101B5000E1FE052070BD01210748FFF71EFF064E7C
:101B6000651E0B3415F8011F3046FFF716FFA5421E
:101B7000F8D10020EEE700BFA84F002013C00008F6
:101B800008B50848FFF782FF014620B90648FEF76E
:101B9000C1FE052008BD02210248FFF7FEFE00201D
:101BA000F8E700BFA84F0020F6BF00082229F8B5CB
:101BB000054620D1134C04F11000FFF767FF2028E1
:101BC0001BD994F8E9302BB10023238384F8E93042
:101BD000638323770C4F05F1210615F8011F384662
:101BE000FFF7DBFEB542F8D1084B187838B901236E
:101BF00084F84C30F8BD0420FCE70520FAE700200B
:101C0000F8E700BF5C4B00206C4B00207E550020A5
:101C100070B504460948FFF739FF2F280BD9074E46
:101C200004F1300514F8011F3046FFF7B6FEAC4250
:101C3000F8D1002070BD0520FCE700BFFC64002047
:101C4000F8B507460D480C46FFF720FFA04211D318
:101C5000013CE1B20948FFF7A0FE0025074EEBB2B8
:101C60009C4205F1010507D93B4459783046FFF7FE
:101C700094FEF4E70520F8BD0020FCE7CC8C0020A2
:101C8000F0B53F4C8DB0B4F8EC54E5B92046FFF701
:101C9000A2FEA0B13B4B1B78002B54D15F20D4F89F
:101CA000F024591C9BB29A4204D9234483F83C0087
:101CB0000B46F6E7A4F8EC240023A4F8EE34B4F8BD
:101CC000EC34002B3DD0FEF797FB4FF4E37705464D
:101CD0002D4E142D35D9B4F8EE3440F252505A1C22
:101CE0002344A4F8EE244FF6AE2C93F83C204FF694
:101CF0003A6E002302F0C00180293ED0C02939D0BD
:101D000000290CBF714661462DF813100133920073
:101D1000042BD2B2EED102AA6946304605F00EFB82
:101D20000023142202A90220FEF7D4FAB4F8EE240C
:101D3000B4F8EC34143D9A42ADB2CAD30023C4F8CF
:101D4000EC340DB0F0BD26463046FFF713FE6319A4
:101D50000135212D83F83C00F6D100230B48E21811
:101D6000195C0133272B82F85D10F8D14823A4F8C1
:101D7000EC34A1E72DF81300C8E72DF81370C5E780
:101D8000702400207E55002080240020D1B8000857
:101D90002DE9F04FC34CB7B02046FFF71CFE18B931
:101DA000B4F89C32002B55D0638962689BB2D25C38
:101DB000B4F89C3202F0FF05002A40F058819BB92C
:101DC000B94B1B78002B4ED11A46AA20B4F8A012AA
:101DD0009DB2A94241D80AB1A4F89C120023A4F8EC
:101DE0009E32B4F89C32ABB3FEF706FB40F24937A3
:101DF0000546AE4E282D2DD9B4F89E324FF6B74C7D
:101E00005A1C2344A4F89E2293F844000122002384
:101E10000BA932EA000E0CBF21F813C021F8137091
:101E200001335200082BD2B2F3D120AA304605F07C
:101E300085FA0023282220A90120FEF74BFAB4F8E6
:101E40009E22B4F89C32283D9A42ADB2D2D30023F0
:101E5000C4F89C3237B0BDE8F08FE21882F8440035
:101E600001330122B4E78F48FFF784FD2E468D4FE2
:101E70003846FFF77FFD0DF806000136292EF7D111
:101E800000231A460BA80DF1800C0CEB03011A5429
:101E90000133532B8A70F8D100224FF0010E114606
:101EA000834F134600262A461DF8018008010EFACA
:101EB00006F518EA050F14BF0125002505EB0309F7
:101EC00013442B44DB0709F001090CD500F007038C
:101ED00017F803A036AB03EBD00313F8ACBC4AEA07
:101EE0000B0A03F8ACACB9F1000F0DD0431C0DF197
:101EF000D80909EBD30903F0070319F8ACACFB5C74
:101F000043EA0A0309F8AC3C0136082E00F102004E
:101F1000134640F0898001312A29C2D1DFF898E1C7
:101F20000022704601250DF182030EEB4201B2F54D
:101F3000257F7DD236AE06EBD20616F8AC6C37069E
:101F40000AD591F800804F7813F8089005FA07F742
:101F500047EA090703F8087077060AD591F8028066
:101F6000CF7813F8089005FA07F747EA090703F84E
:101F70000870B7060AD591F804804F7913F80890D5
:101F800005FA07F747EA090703F80870F7060AD5C4
:101F900091F80680CF7913F8089005FA07F747EA19
:101FA000090703F80870171DB7F5257F01F108012F
:101FB0003CD231070BD510F8178000EB4707797832
:101FC00013F8087005FA01F1394303F80810710796
:101FD0000CD5511D10F8117000EB4101497813F830
:101FE000078005FA01F141EA0801D955B7070CD578
:101FF000911D10F8117000EB4101497813F807802A
:1020000005FA01F141EA0801D955F1070AD5D11DB8
:1020100010F8116000EB410149789F5D05FA01F16C
:1020200039439955083280E72A4640E73A467EE729
:102030000023204D0DF1810212F8011F585D01337C
:102040004140532B1170F7D14AF2EA63ADF880306A
:102050000023B4F89C12CA181CF8030092B2013392
:102060002244552B82F84400F5D15531B4E6012DB8
:1020700024D1002B7FF4B8AE0A48FFF77BFC0C2577
:10208000084FB4F89C623846731CA4F89C32FFF7E2
:1020900071FC013D264415F0FF0586F84400F0D19F
:1020A0009CE600BFA84F00207E550020B84F0020BE
:1020B0005A8A0008308B0008BCB20008022D7FF459
:1020C00090AE002B7FF490AE1648FFF753FCC82665
:1020D00055217A25B4F89C3203F1120080B2E2183F
:1020E00082F844105A1C92B2224482F844109A1C7E
:1020F00092B2224482F84410DA1C92B2224482F84E
:1021000044101A1D92B2224482F844605A1D0633CC
:1021100092B29BB22244834282F84450DFD1A4F8A9
:102120009C325BE6A84F0020F8B5484C0646D4F830
:10213000DC30474D0133C4F8DC30D4F8E0300133F3
:10214000C4F8E030D4F8E4300133C4F8E43094F853
:102150006E300B2B84BF002384F86E3094F86E3001
:102160009BB9A5F16F00FFF736FC002868D1A5F1F7
:102170005F00FFF730FC002862D1364A1368C4F8CC
:102180006F3053686B609368AB6094F86E300129D0
:102190001D442B884FF00000A4F8AF30AA782E4BD6
:1021A00084F887009A700CBF0823042384F88930D0
:1021B000D4F8DC3084F88800132B06D904EB011026
:1021C000FFF709FC003018BF012094F86E2006F0DC
:1021D0000101002A36D0B2F1090C18BF4FF0010CF2
:1021E000012594F8AF3081EA000743EAC01094F863
:1021F000B030012E08BF0826694043EAC513AF423C
:1022000014BF02250025614514BF2021002143EAA7
:10221000CC032B4384F8B03094F8B130674514BF39
:102220000227002719430323064339431A4484F83D
:10223000AF6084F8B110C4F8D83084F86E20F8BDCF
:10224000064A9BE715464FF0010CCAE75C4B00209D
:10225000CB4B0020628A00080B4C0020D74B00209B
:102260002DE9F047584C92B094F84C30002B00F018
:102270008180B4F8D8207ABB013B042B00F298800F
:10228000DFE803F00396100A15000020FFF7C0FBFB
:10229000042384F84C301FE000210120FFF744FFA5
:1022A0000323F6E70120FFF7B3FB0223F1E7474BD7
:1022B0001B78622B61D15F200021454B03F1210285
:1022C00083F8290003F8011F9342F9D12123A4F8D0
:1022D000D8300023A4F8DA30B4F8D830002B49D035
:1022E000FEF78AF84FF4E3790646DFF8EC80142E07
:1022F00040D9B4F8DA200025A11891F8AF3091F850
:1023000087A04FF6AE2040F252514FF63A6C0132A0
:10231000A4F8DA2001AF03F0C002802A51D0C02A0D
:102320004CD0002A0CBF6246024627F81520013522
:102330009B00042DDBB2EED11422002103A805F08E
:1023400093FD2B4608AA394640468DF816A004F0A6
:10235000F5FF03AB142208A90220FDF7BBFFB4F878
:10236000DA20B4F8D830143E9A42B6B2BFD3002374
:10237000C4F8D83012B0BDE8F0875F2BA9D1552042
:102380000021134BDA1D83F8290003F8011F934243
:10239000F9D15F23FF20002184F8B6300D4BDA1D00
:1023A00083F8290003F8011F9342F9D10F238EE728
:1023B00001210020FFF7B8FE01236AE727F8151076
:1023C000B5E727F81590B2E75C4B00207D5500205B
:1023D000E24B0020EA4B00207C4B002000232DE93B
:1023E000F041144DDFF854C0134EC5F87B30C5F8EA
:1023F0007F30C5F8833013F80C4003F00708E11074
:1024000004F00704375DDC1010F804E06A1816F8D1
:10241000084092F87B201EEA040F03F1010314BF69
:102420003A43BA432944442B81F87B20E3D100206E
:10243000BDE8F0815C4B00205A8A0008918A0008B0
:1024400030B50024ADF5217D00F080026300EAB1D3
:10245000144A6B4402F1280152F8045B8A4243F8A3
:10246000045BF9D114344000A02CC0B2ECD1234657
:1024700050AA69460C4805F04BF90023224650A9A2
:102480000620FDF727FF0DF5217D30BD074A6B447F
:1024900002F1280152F8045B8A4243F8045BF9D147
:1024A000E0E700BF088A000854920020E089000895
:1024B000F0B54D4CABB02046FFF78DFA18B9B4F823
:1024C0008435002B75D0B4F884355BBB474B1B7843
:1024D000002B70D119465F20B4F888259DB2AA421E
:1024E00005D9E11881F8D40001330121F6E709B1DB
:1024F000A4F884255721B4F88435E21882F8D41062
:1025000075215A1C92B2224482F8D410DA1CA4F825
:102510008425FD2202339BB2234483F8D420002378
:10252000A4F88635B4F88435002B42D0FDF764FF5B
:10253000F52705462E4E282D3BD9B4F8863540F2B6
:10254000DF205A1C2344A4F886254FF6215C93F81B
:10255000D4204FF60B7E002302F0C00180293FD02B
:10256000C0293AD000290CBF714661462DF81310DE
:1025700001339200042BD2B2EED102AA6946304652
:1025800004F0DCFE282316AA02A91A4805F0C0F8B8
:102590000023282216A90520FDF79CFEB4F8862505
:1025A000B4F88435283D9A42ADB2C4D30023C4F8B0
:1025B00084352BB0F0BD30250B4E3046FFF7DAF9ED
:1025C000B4F88435013D5A1C15F0FF052344A4F8E6
:1025D000842583F8D400F0D1A1E72DF81300C7E7D4
:1025E0002DF81370C4E700BFFC6400207E55002066
:1025F0000C650020186500202DE9F041444C96B090
:102600002046FFF7E8F918B9B4F87035002B76D0FA
:10261000B4F8705555BB3F4B1B7863B9194677200A
:10262000B4F874259DB2AA421AD9E11881F8C00005
:1026300001330121F6E73648FFF79CF90746344E8F
:10264000EBB29F420FD93046FFF794F9B4F87035DA
:1026500001355A1C2344A4F8702583F8C000EFE725
:1026600009B1A4F870250023A4F87235B4F87035C8
:10267000002B44D0FDF7C0FE4FF4D2780646264F1B
:10268000142E3CD9002540F2EC414FF614304FF6A1
:102690005C6CB4F872355A1C234493F8C030A4F82B
:1026A000722503F0C002802A2FD0C02A2AD0002A27
:1026B0000CBF624602462DF8152001359B00042D03
:1026C000DBB2EED12B4602AA6946384604F036FE4C
:1026D00014230CAA02A9114805F01AF800231422A9
:1026E0000CA92846FDF7F6FDB4F87225B4F870354C
:1026F000143E9A42B6B2C3D30023C4F8703516B064
:10270000BDE8F0812DF81510D7E72DF81580D4E736
:10271000CC8C00207E550020DC8C0020E88C002032
:1027200010B5114B86B01B78012B1BD80F4B1B78B3
:10273000C3B1E0238DF8043011238DF80630002357
:10274000C45C01AA1A440133D470DAB29142F7D8BA
:102750000331C9B2064B01A88DF805109847002235
:10276000044B1A6006B010BD7D5500207D08002086
:10277000010000201800274210B50B4CB4F85C1380
:1027800081B1D4F85833B3FBF1F3C3F307210173DC
:102790000E214373FFF7C4FF0023C4F85833A4F895
:1027A0005C3310BD0C21F5E7484C0020E02310B548
:1027B0008EB08DF8043010238DF806300023C45CF1
:1027C00001AA1A440133D470DAB29142F7D8033126
:1027D000C9B201A8044B8DF8051098470022034B9D
:1027E0001A600EB010BD00BF010000201800274283
:1027F0002DE9F04F674DA9B02C468B1E0293831E26
:1028000005938B1C0793029B33F8022F0293D5F894
:1028100058331344C5F85833B5F85C33059A01337F
:10282000A5F85C3332F8023F05922A79DB0B9A4215
:1028300009D02A68B2F5004F2ABF6FF4CC7C02F2AF
:10284000991262442A602268237102F54C51333197
:10285000B1F5803F07D22160079B029A9342D2D103
:1028600029B0BDE8F08FA2F54C42CD3A22606279E2
:10287000012A00F0AD803FD3022AEDD1A168226F7A
:102880004900D608A16002F00707A019002B00F04C
:102890007F8341F00101A1603F49037BC95D0B4388
:1028A000264433733D48A668571C70402767FEF7DF
:1028B000C9FB012800F2FA8200263948FEF75EF8CB
:1028C0000020FDF71BFE374B83F82163364B1B7846
:1028D000012B0FD8354B1B7863B14FF47873ADF8EB
:1028E0004C3013238DF84E300321314B13A89847F9
:1028F000304B1E6000231BE0A2685200D3B9A260D7
:10290000A6682D4826F07F467040FEF79BFB022804
:1029100013D82A48FEF732F853220021284805F040
:10292000A3FA00232367C4F85833A4F85C330123C7
:10293000637191E742F00102E1E722487040FEF73F
:1029400081FB0746002887D11F48FEF717F80120B2
:10295000FDF7D4FD0122134B194E83F821231B4BA5
:10296000C4F8587318685968A4F85C7303C698686B
:102970003060A6F10800FFF7FFFE0E223946A6F1EF
:10298000080005F071FA4FF41653276763670223B6
:10299000CEE700BF484C0020898A00085E13AAAA2F
:1029A0008EBF00084C5200207D5500207D0800207D
:1029B0000100002018002742507655004BBF000848
:1029C000544C002068B4AA006DBF0008E4B70008AA
:1029D000226FA168D7084900E019A16002F007063C
:1029E000007B002B00F0D082C24B41F001019B5DC7
:1029F000A160034301322744B2F5257F3B73226770
:102A00007FF42AAF0023BC4ABC4E12F8011F985D28
:102A100001334140532B1170F7D10023194613AAFB
:102A200099540133542BFBD1DFF8DCC200236146FB
:102A300080200CEB4302B3F5257FC0F2C880002351
:102A4000C4E91F33C4E92133DFF8B8C2A367009398
:102A5000009A28AB03EBE202009B12F8547C03F0CF
:102A60000706802323FA06F240233A4023FA06F6AB
:102A700014BF012100213E40B2FA82F2B6FA86F676
:102A800014BF012700277609520902EB06083A44D1
:102A90000392D5F884E08A19EE6FC81908EB0E0A84
:102AA00000EB060BD3455F46A8BF57460492AA6FBA
:102AB000D345019201994FEAD202A8BF904B0697E5
:102AC00002F1220701F0070105EB8707D7F8049010
:102AD000ACBF13F801A01CF801A070444644B4BF79
:102AE0000AEA09094AEA09098642B346A8BF8346A9
:102AF0008642C7F80490A8BF814B02F14C0704EB53
:102B00008707D7F804E0ACBF585C1CF80100D5F883
:102B10008060039BB4BF00EA0E0040EA0E0003EBA6
:102B200006097860049BD5F88800CA4603EB0008C4
:102B3000C145A8BFC246C145A8BF714B02F1760787
:102B4000A8BF13F80180049B05EB870733441E469A
:102B5000039BD7F804E0B8BF1CF801800344B4BF5E
:102B600008EA0E0E48EA0E0EA0329E42C7F804E0B4
:102B700004EB82023746A8BF1F469E42D2F804E00B
:102B800080F2B3801CF8011001EA0E01069B51602F
:102B9000C4E91F3B009B019A02330132B3F5257F44
:102BA000C4E921A7A26700937FF452AF002240F24C
:102BB000491113465248534F032B00F2C080DFE8FF
:102BC00013F0A50038014F015C013B4633E704EBED
:102BD000E306367BF7070CD592F800E028AFBE4439
:102BE00057781EF8548C20FA07F747EA08070EF8C2
:102BF000547CB7070CD592F802E028AFBE44D778D2
:102C00001EF8548C20FA07F747EA08070EF8547CA0
:102C100077070CD592F804E028AFBE4457791EF828
:102C2000548C20FA07F747EA08070EF8547C370758
:102C30000CD592F806E028AFBE44D7791EF8548C24
:102C400020FA07F747EA08070EF8547C1F1DB7F56E
:102C5000257F02F10802B8DAF2060DD511F817E067
:102C600028AA01EB470796447A781EF8547C20FA8C
:102C700002F23A430EF8542CB20610D55A1D11F840
:102C800012700DF1A00E01EB42027744527817F852
:102C900054EC20FA02F242EA0E0207F8542C7706AE
:102CA00010D59A1D11F812700DF1A00E01EB420221
:102CB0007744527817F854EC20FA02F242EA0E02F6
:102CC00007F8542C36060ED5DA1D11F8126028AF1D
:102CD00001EB42023E44527816F8547C20FA02F28C
:102CE0003A4306F8542C0833A3E6054B595C41EAF5
:102CF0000E014BE7898A0008534C0020D58A000852
:102D00005A8A0008798A000894AD0008CE1001F0B4
:102D1000070305EB860610F803C0D6F88C301CEAD2
:102D2000030318BF022305EBD20C02F00706BE5DB9
:102D30009CF82CE306EA0E068CF82C63013211F1A4
:102D4000FF31BFF439AF00231A4608A9CA54013332
:102D5000292BFAD140F24913012718468F4E05EB73
:102D6000E30103F0070E91F82CC316F80E10C21AF7
:102D70001CEA010F0ED0D1080DF1200C1CF801C087
:102D800002F0070207FA02F242EA0C020DF1200CEF
:102D90000CF8012013F1FF33E1D20021804808AA8A
:102DA000525C01315A40D2B230F81220C3F30723EB
:102DB0005A4027291346F2D1D3439DF847109BB2BE
:102DC000DAB2914267D19DF84820B2EB132F62D15D
:102DD0000120FDF793FB0122724BB5F85C1383F8D9
:102DE0002123714B1A78002958D0D5F85833012A7D
:102DF000B3FBF1F3C3F307218DF849108DF84A3086
:102E000006D86A4B1B781BB12B2108A8FFF7CEFC14
:102E100000260E2231466648C5F85863A5F85C6363
:102E200005F022F802236B714FF416532E676B677F
:102E300012E5CE1001F0070305EB860610F803C07B
:102E4000D6F834311CEA030318BF022305EBD20C79
:102E500002F00706865D9CF82CE346EA0E066BE757
:102E6000CB1005EB830301F00706D3F8DC31865D58
:102E70001E4214BF0323012355E7CE1005EB86063F
:102E800001F0070C10F80CC0D6F884621CEA060F9B
:102E900008BF0123DAE700236B71DDE4012AB7D80C
:102EA000424B1B78002BB3D02921AEE75C2F4AD9C7
:102EB000404826F07F435840FEF7C4F8022842D825
:102EC00060224FF416530127C4E91C23236F602BA3
:102ED0001CD1DFB93848C6F316035840FEF7B2F8E4
:102EE000022832D93548C6F315035840FEF7AAF830
:102EF00002282CD93248C6F314067040FEF7A2F817
:102F0000022803D80323C3F160032367666F013EE1
:102F10006667F6B92B48FDF731FD3046FDF7EEFA4E
:102F2000204B83F82163204B1B78012B3FF6E2AC4A
:102F30001E4B1B78002B3FF4DDAC4FF47873ADF8DB
:102F40004C301223CEE40027C0E70123DBE7022345
:102F5000D9E7236F602B7FF47FAC87B1552363756E
:102F60002D23A37516231248E375FFF705FC0E22E7
:102F700000210F4804F078FF002323676CE40C2144
:102F80000B48FFF7CDFBF2E70F4B9B5D034031E5AC
:102F90000D49037BC95D0B4082E400BF5A8A0008DB
:102FA000DC8500084C5200207D5500207D08002063
:102FB000544C002068B4AA00345A55001AAD2A00B7
:102FC0008D561500AEBF0008818A000810B5114B60
:102FD000C0B01B7813F0FB031AD10F4A1278BAB1B4
:102FE000E0228DF8042031228DF80620C45C01AA6D
:102FF0001A440133D470DAB29142F7D80331C9B21E
:10300000064B01A88DF8051098470022044B1A6062
:1030100040B010BD7D550020800800200100002038
:103020001800274210B5114B9EB01B7813F0FB031C
:103030001AD10F4A1278BAB1E0228DF8002030225E
:103040008DF80220C45C0DEB03020133D470DAB2B8
:103050009142F7D80331C9B2064B68468DF801108A
:1030600098470022044B1A601EB010BD7D55002009
:1030700080080020010000201800274242F2DC13E3
:10308000F0B5784C9DB0E35A02AA03F1780080B203
:10309000B0F5875F28BFA3F5835042F23623E35E85
:1030A00028BF0838019342F21423E35E28BF80B2A0
:1030B000009308210023FDF72DFA42F242229DF8E9
:1030C000093003F00F03A3540F2B2ED8DFE803F0D1
:1030D000082D2D882D2D2D712D2D2D2D522D2DA905
:1030E00042F2DC174FF4C671E05BFDF72DFE42F2B1
:1030F000362642F2142542F2E611A35F625F615E5A
:103100005948FDF7AFFEA35F4FF4C6710193635FAB
:10311000E05B009303AA0823FDF7FCF90123642177
:103120008DF80C3003A8FFF77DFF42F2E81342F25E
:10313000E211E35A03F586521F3292B2B2F5875F6D
:1031400028BF03F1FF32625242F2E4115A1C92B2DC
:10315000B2F5875F22BFA3F586531F3B63524FF042
:10316000020338BF62522370002242F2EC13E25095
:103170001DB0F0BD42F2E61542F2362742F21426A7
:10318000B421605BFDF7E0FDE35F3848A25F615F5B
:10319000FDF768FEE35F605B0193A35F0093B421DA
:1031A000082303AAFDF7B6F901232E218DF80C3070
:1031B000B8E742F2DC17B421E05BFDF7C5FD42F24F
:1031C000362642F2142542F2E611A35F2848625FD8
:1031D000615EFDF747FEA35FE05B0193635FDDE7A0
:1031E00042F2DC174821E05BFDF7AEFD42F23626E5
:1031F00042F2142542F2E611A35F625F615E1D4850
:10320000FDF730FEA35F48210193635FE05B00930D
:1032100003AA0823FDF77EF9012313218DF80C3052
:1032200080E742F2DC17D821E05BFDF78DFD42F22A
:10323000362642F2142542F2E611A35F625F615E18
:103240000D48FDF70FFEA35FD8210193635FE05B9C
:10325000009303AA0823FDF75DF9012337218DF8B8
:103260000C305FE7886A002020BD00084EBD0008D2
:103270007CBD0008ABBD0008D9BD00082DE9F04FAA
:103280008B1EBDB002939C4E831CA0F1020A0393D7
:10329000029BDFF8A48233F8022F984D0293D8F8EE
:1032A000003005F509571344A7F168093AF9021FE0
:1032B000B9F80020C8F800303B8805EB82020133E2
:1032C0003B80536800294FEA4303B8BF43F0010332
:1032D0005360338803F10C0225F812102A78012A72
:1032E0003CD0022A6BD0FDF7BFFE854980B10B7838
:1032F00073B90120C8F800303B80FDF7FFF80122C8
:10330000804B83F82123632381F846300A230B7016
:103310000B780BB1013B0B700B78012B30D17A4845
:10332000038803F2BB7292B2B2F5875F28BFA3F69F
:10333000251220F8042C03F2BD7292B2B2F5875F19
:10334000724824BFA3F6231303804FF001032B70B0
:103350004FF0000338BF02800B7011E06C4C2188E5
:103360006288914228D28B4203D3934201D8FDF761
:103370007BFE614B1A8863889A4201D1FFF77EFE7B
:10338000338801339BB2B3F5875F25BF0023614AC1
:103390003380338028BF1370B9F8003001339BB2FB
:1033A000042B88BF0023A9F80030039B53457FF40A
:1033B0006FAF3DB0BDE8F08F8B42D6D3D7E7544C0A
:1033C00021886288914275D28B4203D3934201D8FF
:1033D000FDF74AFE504B33F8061C1A889142CFD1B4
:1033E0001A8A052A14D11B8903F586521F3292B21C
:1033F000B2F5875F28BF03F1FF3222805A1C92B2D8
:10340000B2F5875F25BFA3F586531F3B62806380BB
:10341000424C4FF458712088FDF796FCB4F95830AF
:10342000B4F93620B4F90A103D48FDF71BFDB4F994
:10343000583020880193B4F9363005AA00934FF430
:1034400058710823FDF766F8638A013B1FFA83FB76
:10345000A4F812B0BBF1000F2FD13248FDF78EFA5D
:103460005846FDF74BF8304B264A1B7882F821B3BB
:1034700013F0FB070FD12D4B1B7863B14FF478731A
:10348000ADF81030322303218DF8123004A8284BF8
:103490009847284B1F6042F20F711F4B0022198082
:1034A00063212A7083F858109A74C4F80E2083F8A8
:1034B000622065E78B4289D38AE7ABF1040253426D
:1034C00053413A888DF81430A2B1D8F80030DB218E
:1034D000B3FBF2F3C3F307228DF8ED208DF8EE3045
:1034E00005A8FFF773FD0023C8F800303B80C4F83F
:1034F0000E3045E7D921F3E7628C0020886A00206E
:103500007A8C00204C5200206E8C00206C8C0020A5
:103510006A8C0020CA8C0020688C0020668C0020F9
:1035200029BE000857BE00087D55002080080020F5
:103530000100002018002742C48C002010B5124B57
:10354000A2B01B78052B00D0DBB9104B1B78C3B1A0
:10355000E0238DF8043040238DF806300023C45C4E
:1035600001AA1A440133D470DAB29142F7D8033178
:10357000C9B2074B01A88DF8051098470022054BEA
:103580001A6022B010BD00BF7D5500207F080020CA
:1035900001000020180027422DE9F04FCF4DDFF841
:1035A00064932C4691B0871EA1F10208861C38F85E
:1035B000022FD5F8743F37F9021F1344C5F8743F42
:1035C000B5F8162FB5F8783F05EB42020133A5F8A0
:1035D000783F538800294FEA43039BB2B8BF43F0BA
:1035E00001035380B4F8183F04EB4302D1822278E0
:1035F000012A40F03181B4F8201FB4F8222F914203
:1036000080F0F0808B4203D3934201D8FDF70EFE89
:10361000B4F8182FB4F81C3F9A4240F0CA80B4F8AE
:10362000283F062B16D1B4F81E3F03F27F7292B2E8
:10363000B2F5F06F28BF03F1FF32A4F8202F5A1C17
:1036400092B2B2F5F06F2ABFA3F27F73A4F8222FD3
:10365000A4F8223F4FF47A52DFF8ACE2C020924641
:103660007146B4F81A3F04EB430CBCF916C0BCF128
:10367000000F40F3BB806145B8BF6146E245A8BF7B
:10368000E24603F10A0C1FFA8CFCBCF5F06F00F166
:10369000FF3028BFA3F2767380B22CBF9BB2634683
:1036A0000028E0D1514472444910521001EB020A43
:1036B0004FEA6A0A0FFA8AFBA1EB0A0A0FFA8AFAA2
:1036C0005B4609B2CDF800A012B28548FDF7E2FAD8
:1036D00094F8703F8349632B40F08F80A1F1200361
:1036E00023F802BF9942A3F822A0F9D1002384F85D
:1036F000703F00231A467C48A4F84C3FA4F86E3F64
:1037000030F802CF6244B0F822C08142634412B262
:103710001BB2F5D112111B11B4F91E1F7348A4F886
:103720004C2FA4F86E3FFDF79DFBB4F96E3FB4F843
:103730001A0F0193B4F94C3F03AA0093C021082348
:10374000FCF73CFFB4F828AF0AF1FF3A1FFA8AFAF7
:10375000A4F828AFBAF1000F5DD16548FDF70EF966
:103760005046FCF7CBFE634B83F821A3624B1B78DA
:10377000052B00D083B9614B1B786BB14FF4787384
:10378000ADF80830412303218DF80A3002A85C4BC4
:1037900098470023C9F8003042F20F720023A4F8C2
:1037A0001C2F6322237084F8702F84F82A3FC4F8FA
:1037B000243FB4F8183F01339BB2B3F5F06F28BF34
:1037C0000023A4F8183FB4F8163F01339BB2092B2D
:1037D00088BF0023BE42A4F8163F7FF4E8AE11B0C4
:1037E000BDE8F08F8B42FFF40FAF0FE76245A8BF33
:1037F0006246E645B8BFE64643E704EB43020133C1
:10380000DBB20F2BA2F82CBFA2F84EAF84F8703FAA
:103810003FF66CAF6DE7AAF10503D3F1000AB4F8E7
:10382000782F4AEB030A8DF80CA09AB1D4F8743FB4
:103830003321B3FBF2F3C3F307228DF83D208DF85B
:103840003E3003A8FFF77AFE0023C4F8743FA4F8C3
:10385000783FACE73121F4E7FDF7E8FC98B194F844
:103860002A3F83B90120C4F8743FA4F8783FFCF7DD
:1038700045FE01221F4B83F82123632384F8703F08
:10388000052384F82A3F94F82A3F13B1013B84F8BA
:103890002A3F94F82A3F012B8BD1B4F81E3F03F244
:1038A0007F7292B2B2F5F06F28BF03F1FF32A4F835
:1038B000202F5A1C92B2B2F5F06F24BFA3F27F738F
:1038C000A4F8223F4FF0010323704FF0000338BFEC
:1038D000A4F8222F84F82A3F6BE700BF8055002010
:1038E000E0BE0008CA640020AA64002001BF0008EE
:1038F00029BF00084C5200207D5500207F08002081
:10390000010000201800274280C1FFFF10B5124BB4
:10391000A2B01B78032B00D0DBB9104B1B78C3B1CE
:10392000E0238DF8043020238DF806300023C45C9A
:1039300001AA1A440133D470DAB29142F7D80331A4
:10394000C9B2074B01A88DF8051098470022054B16
:103950001A6022B010BD00BF7D55002082080020F3
:1039600001000020180027422DE9F04F831EA7B068
:1039700003938B1E0493DFF800B3831C0593039B12
:10398000DFF8F89233F9021F09F104080393049B4E
:10399000A74F33F8022F00290493D9F80030A54C23
:1039A0001344C9F8003038F8642CB8F8003007EB3D
:1039B000820203F10103A8F800305368BA464FEAC7
:1039C0004303B8BF43F001035360238803F10C02A3
:1039D00027F812103A78012A40F05281BBF8001003
:1039E0006289914280F0EA808B4203D3934201D8EE
:1039F000FDF7D0FC904B21881A88914240F0C58099
:103A0000DA89052A16D15B8803F65F1292B2B2F505
:103A1000166F28BF03F1FF32ABF800205A1C92B298
:103A2000B2F5166F33BF854B844AA3F65F131A8035
:103A300028BF13804FF47A5281484FF4F0759446B2
:103A40000146804B1B8803F10C063AF91660002EE4
:103A500040F3B880B142B8BF3146B445A8BFB446C0
:103A60005E1DB6B2B6F5166F05F1FF3528BFA3F699
:103A70005B13ADB22CBF9BB23346002DE3D1614442
:103A80000244491052108E18761033B28E1B36B293
:103A900009B2009612B26C480293FDF7FBF86B492D
:103AA0000B78632B40F0958041F2F02141F2123205
:103AB0000AEB450302980135102D58529E52F7D15A
:103AC0000022624B1A70002141F2F02E0B460A468A
:103AD00041F2123C5E4D298069840AEB410636F8BA
:103AE0000E000131024436F80C001029034412B2D2
:103AF0001BB2F2D1574E12111B1136F9521C564807
:103B00002A803380FDF7AEF9B6F9003036F8560C4E
:103B10000193B5F9003007AA00934FF4F071082320
:103B2000FCF79EFD36F8465C013DADB226F8465CDA
:103B3000002D5FD14948FCF721FF2846FCF7DEFC49
:103B4000474B83F82153474B1B78032B00D083B995
:103B5000454B1B786BB14FF47873ADF818302123C7
:103B600003218DF81A3006A8404B98470022404B9D
:103B70001A6042F20F71304A0023118063213B70BA
:103B800082F85610137446F84A3C2388394A0133A8
:103B90009BB2B3F5166F28BF00232380138801332F
:103BA0009BB2042B84BF0023324A1380059B039AE7
:103BB00093427FF4E4AE27B0BDE8F08F8B42FFF470
:103BC00015AF15E7B242A8BF3246B042B8BF304683
:103BD00046E7029803F6781227F8120003F68812D7
:103BE0000133DBB20AEB42020F2B56800B703FF61B
:103BF00067AF68E72B1F5D42B8F800205D418DF884
:103C00001C509AB1D9F800307B21B3FBF2F3C3F317
:103C100007228DF895208DF8963007A8FFF776FEDD
:103C20000023C9F80030A8F80030ACE77921F4E7A8
:103C30009895002072A8002076A800207CA800207B
:103C400080C1FFFF74A8002078BE0008CCA8002027
:103C5000A8A80020CAA8002098BE0008BFBE00087F
:103C60004C5200207D5500208208002001000020D9
:103C70001800274270A800207AA80020D0A80020B1
:103C8000FDF788FB88B1237D7BB90120C9F800309E
:103C9000A8F80030FCF732FC0122164B83F82123F0
:103CA000632384F85A3005232375237D0BB1013B30
:103CB0002375237D012B7FF468AF0F490B8803F632
:103CC0005F1292B2B2F5166F28BF03F1FF324A803D
:103CD0005A1C92B2B2F5166F084924BFA3F65F13BF
:103CE0000B804FF001033B704FF0000338BF0A8098
:103CF00023754AE74C52002078A800207CA80020B9
:103D000010B5134B8AB01B7813F0FD031ED1114C74
:103D10002478DCB100284FF0E00414BF1A201820EA
:103D20008DF800408DF80200CC5C0DEB03000133F0
:103D3000C470D8B28242F7D8D11CC9B2064B6846CB
:103D40008DF8011098470022044B1A600AB010BD8C
:103D50007D5500207C08002001000020180027422B
:103D60002DE9F04FA44EABB03446831C871E05935B
:103D7000B6F83C2537F9021F56F8223000294FEAE1
:103D80004303B8BF43F0010346F8223054F8220041
:103D9000B4F83E5520F07F4080F4EC0080F42150D0
:103DA00004EB450380F02E009982FDF74BF90228C1
:103DB00000F2CD80002105F2212080B2B0F5257FF0
:103DC00024BFA5F1730080B202460D464FF47A5E1F
:103DD000DFF83CC2DFF83C8204EB4203B3F9143055
:103DE00011F908909C45B8BF9C469E45A8BF9E46C9
:103DF000B9F1010F0AD0B9F1030F04D0B9F1FF3FB7
:103E00006AD11D4403E0A3EB8303FAE7ED1A531DC7
:103E10009BB2B3F5257F28BFA2F28F2201F10101E9
:103E20002CBF92B21A461829D6D1D4F84435AB42E9
:103E300080F28D800EEB0C034FEA630902930FFAB8
:103E400089F3039344F63143ACEB090C03FB0CFC00
:103E50004FEAEC330493BDF91080039B0DF11C0A6B
:103E6000009352460423CDF80480FCF74BFC00235A
:103E70001A466248DFF8A0E1DFF8A0C113F80AB0E3
:103E800013F80E100BEA010113F80CB0013381EAAC
:103E90000B01415C072B0A44D2B2EFD1032A56D85A
:103EA000574B93F80231002B3BD0E023ADF8243080
:103EB000F3238DF8263003235249DA1ED2B212F8CA
:103EC00001A02AA85A1CD2B21844BAF1000F06D099
:103ED00000F884AC1346F0E703EB430391E7029943
:103EE000491200F8841C2AA90A4402F8849C9A1CEE
:103EF000D2B20A444FEA282102F8841C191D033368
:103F00002AAADBB21344049AC9B203F8842C09A884
:103F10003D4B8DF8251098473C4BC3F800A0FCF7AB
:103F2000F1FC039BC4F84455A4F84835B4F83E3579
:103F3000A4F84A8503F20D1292B2B2F5257F25BF8F
:103F40006FF4C3729B18A4F84025A4F84035B4F868
:103F50003E25B4F84035934234D1981D80B2B0F577
:103F6000257F28BFA3F28E20B4F94A3528BF80B23E
:103F70000193B4F9483509AA009384210823FCF77A
:103F8000C1FB07AB0DF11B020DF1250106A8FCF7E3
:103F900061FC94F84C259DF81B309A420BD19DF89A
:103FA0001C30032B07D1C323222209A900208DF83E
:103FB0002430FFF7A5FE42F20F73A4F8403500232A
:103FC000C4F84435B4F83E3501339BB2B3F5257FD0
:103FD00028BF0023A4F83E35B4F83C3501339BB22A
:103FE000042B88BF0023A4F83C35059BBB427FF41B
:103FF000BFAE2BB0BDE8F08F64290020E483000839
:1040000084940020D4B90008010000201800274241
:1040100080C1FFFF34B800088CAB0008F0B700087F
:1040200070B401464FF407740022144DB5F85A3BA2
:104030003C339BB25E1C05EB4300B6B2B6F5B46FE1
:10404000B0F87C0B04F1FF3428BFA3F29F53A4B255
:1040500002442CBF9BB23346002CEBD14FF40773C4
:1040600070BCB2FBF3F2C2F3072381F8232081F87E
:10407000223024220120FFF743BE00BFB40D0020F0
:10408000B0F8262730B402F13C0302F5167294B260
:1040900000229BB25D1C00EB4303B3F84A371A447D
:1040A000ABB2A342F6D14FF4077330BCB2FBF3F2CC
:1040B000C2F3072381F8232081F8223024220078DC
:1040C000FFF71EBE13B50D4B1B7813F0FD0412D184
:1040D0000B4B1B787BB14FF478730028ADF804309C
:1040E00014BF1B23192303218DF8063001A8054BAB
:1040F0009847054B1C6002B010BD00BF7D550020E5
:104100007C08002001000020180027422DE9F04F14
:10411000C34FDFF828B33C468DB0A0F10209A1F1EE
:10412000020A00F10208B7F8561B3AF8022F07EB13
:10413000410339F9020FA3F87C2BB7F8542B98826E
:1041400057F8223000284FEA4303B8BF43F0010379
:1041500047F8223094F8783B002B63D10120FDF71B
:10416000D9F9B4F8562BB4F85C3B934240F08E80FA
:10417000B4F9662BB4F9645BB4F96C6B1544B4F90B
:10418000682B03F212301544B4F96A2B80B215443F
:10419000B4F96E2BB0F5B46F1644B4F9702B28BF88
:1041A000A3F28E201644B4F9722B45F38F05164402
:1041B00094F8752B46F38F068DF80C2028BF80B23B
:1041C0000823CDE9005603AA8421FCF7EFFA94F8FE
:1041D000753B402B40F0C3800DF10B030DF10A023B
:1041E0000DF10D0102A8FCF735FB94F8772B9DF833
:1041F0000A309A4245D100239DF80C2084F8763B82
:1042000084F8793B9DF80B301A438DF80C200A2B6B
:1042100000F29F80DFE803F0796B839D9D9D255A16
:104220005A9D5A00B4F8580B00F29F539BB2B3F555
:10423000B46F00F1010292B224BF00F1FF339BB2D0
:10424000B2F5B46F24BFA0F29F5292B2934205D24E
:10425000994286D3914284D8002080E79942F9D3CD
:10426000FAE733462A46B4F9581B6E48FCF7FAFDC4
:1042700003A8FFF7D5FE022384F8783B002384F8D7
:104280007A3B0023C4F8603B84F8753BB4F8563B96
:1042900001339BB2B3F5B46F28BF0023A4F8563B9B
:1042A000B4F8543B01339BB2042B88BF0023C845AC
:1042B000A4F8543B7FF437AF94F8780B003018BF64
:1042C0000120FCF71BF90DB0BDE8F08F94F8783BA6
:1042D000022BD6D133462A46B4F9581B5248FCF774
:1042E000C1FD03A8FFF79CFE9DF80B30C7E73346DE
:1042F0002A46B4F9581B4D48FCF7B4FD03A8FFF754
:104300008FFE012384F8783BBBE794F8783B012BC0
:10431000F7D133462A46B4F9581B4548ECE794F8E0
:10432000783B012BADD133462A46B4F9581B41489E
:10433000FCF798FD03A8FFF773FE002384F8763B93
:1043400084F8783BC4F8583B42F20F73A4F85C3B06
:1043500097E733462A46B4F9581B3748E8E7202B3D
:1043600012D133462A46B4F9581B5846FCF77AFD59
:1043700003A8FFF755FE012384F8783B002384F857
:10438000763B84F8793B7CE794F8783B002B3FF44C
:1043900078AF94F8763B0133DBB20C2B84F8763B94
:1043A00011D90120FFF78EFE0023C4F8603B84F88A
:1043B000753B84F8763B84F8783BC4F8583B42F26E
:1043C0000F73A4F85C3B94F8783B012B18D194F858
:1043D000793B2222042B83BF20238DF80C3000234D
:1043E000013398BFDBB203A94FF001008EBF84F800
:1043F000793B84F8793B8DF80C30FFF781FC40E77E
:10440000022B7FF43EAF94F87A3B002B3FF439AF98
:1044100043F0400303A88DF80C30FFF701FE30E7AE
:10442000B40D002031C0000862C0000894C000082C
:10443000C6C00008FBC0000831C100085BC100080D
:10444000F0B5B0F822370446B0F828078FB098428C
:1044500002D3B3F5617F06D394F84607003018BF46
:1044600001200FB0F0BD04EB4300A0F84A27018300
:10447000B4F82007002904EB800042684FEA4202AA
:10448000B8BF42F00102426094F84627002A63D187
:10449000A3F5C8735A2B03D801212046FDF75EF916
:1044A000B4F82237B4F82817994278D1B4F93237E2
:1044B000B4F93057B4F938671D44B4F934370EAF46
:1044C0001D44B4F93637A1F28E211D44B4F93A37B0
:1044D00045F38F051E44B4F93C3784221E44B4F9D9
:1044E0003E3789B21E4494F8413746F38F0607F8E9
:1044F000243D0823CDE90156009320463B46FCF7B6
:10450000FDFC94F84137402B40F0BC800DF11203C4
:104510000DF113020DF1150104A8FCF79BF994F8B5
:1045200043279DF813309A4239D100239DF8142077
:1045300084F8423784F847379DF812301A438DF8D3
:1045400014200A2B00F29380DFE803F06550749189
:104550009191123838913800B4F82427511E89B24D
:104560008B429DD3013292B2934299D8002194E7B5
:104570002378B4F92427002B18BF02212B4608BF4B
:10458000012170480096FCF785FB39462046FFF76D
:1045900077FD022384F84637002384F84837B4F8BF
:1045A00022370133A4F82237B4F8203701339BB205
:1045B000042B88BF0023A4F820374DE794F8463732
:1045C000022BECD12378B4F92427002B18BF022149
:1045D0002B4608BF01215C480096FCF75BFB39467F
:1045E0002046FFF74DFD9DF81230D6E72378B4F949
:1045F0002427002B18BF02212B4608BF0121534856
:104600000096FCF747FB39462046FFF739FD0123AA
:1046100084F84637C3E794F84637012BF7D123785F
:10462000B4F92427002B00962B4614BF0221012148
:104630004748E6E794F84637012BB0D12378B4F920
:104640002427002B18BF02212B4608BF0121414817
:104650000096FCF71FFB39462046FFF711FD0023AB
:1046600084F8463742F20F73A4F8283797E7237887
:10467000B4F92427002B00962B4614BF02210121F8
:104680003548E6E7202B19D12378B4F92427002BED
:1046900018BF02212B4608BF012130480096FCF7C5
:1046A000F9FA39462046FFF7EBFC012384F8463738
:1046B000002384F8423784F8473770E794F8463788
:1046C000002B3FF46CAF94F842370133DBB20C2B74
:1046D00084F8423709D92078FFF7F4FC002384F8E6
:1046E000463742F20F73A4F8283794F84637012B67
:1046F00017D194F847372222042B83BF20238DF84B
:1047000014300023013396BFDBB284F8473784F8B6
:1047100047373946207898BF8DF81430FFF7F0FA04
:104720003DE7022B7FF43BAF94F84837002B3FF472
:1047300036AF43F04003394620468DF81430FFF77A
:104740009FFC2CE700BA000837BA00086FBA0008CF
:10475000A7BA0008E2BA00081EBB00084EBB00085A
:1047600000B50F4BA3B01B78632B15D1E0238DF858
:104770000430082303218DF80630431E01A813F8E6
:10478000012F0A5401310829F9D1064B8DF8051083
:1047900098470022044B1A6023B05DF804FB00BF69
:1047A0007D55002001000020180027424FF4BC6313
:1047B00007B5ADF800307F238DF80230074B8DF838
:1047C00004009B7805218DF803306846044B984718
:1047D0000022044B1A6003B05DF804FB84940020AF
:1047E00001000020180027424FF49C6307B5ADF884
:1047F0000430702304218DF80630074B0DEB0100C7
:104800009B788DF80730054B98470022044B1A60BF
:1048100003B05DF804FB00BF849400200100002079
:1048200018002742002310B503810446438101800C
:104830000373084603F08CFA6060204610BD000048
:104840001222164B1A60A3F580531A6842F4102204
:104850001A601A689103FCD55A6822F4741242F463
:10486000E8125A601A6842F080721A601A6892015F
:10487000FCD55A6822F0F0025A605A6822F47C5241
:1048800042F480625A605A6842F002025A605A68E2
:1048900002F00C02082AFAD1704700BF0020024043
:1048A000002211462DE9F04FD74B8BB01A601A71D8
:1048B0005A719A6098180132642A0173FAD1002261
:1048C0001046C3E91C11C3E91E11C3E92011C3F846
:1048D000881099180432A82AC1F88C00F9D1002256
:1048E000104699180432A82AC1F83401F9D10022DF
:1048F000104699180432A82AC1F8DC01F9D1002227
:10490000104699180432A82AC1F88402F9D100226D
:104910001546991801322A2A81F82C53F9D1BB4C3B
:104920004FF4B9712046C3F85853A3F85C53FFF70E
:1049300079FF002319462582E2180233282B918340
:10494000FAD100231D46E2180133B3F5167F82F831
:104950004450F8D13C23A4F8A032AD4BC4F89C528B
:1049600028221846002103F07FFA05222274032230
:104970006282A84AA84BC4E905200022C3E9005579
:10498000C3E902551D61154699180232B2F5A56FAB
:104990008D82F9D142F20F72A3F840254FF0000248
:1049A000C3F83C55C3F84455C3F8485583F84C2523
:1049B0009A4C00219A48FCF7F3FA01219948FCF738
:1049C000EFFA4FF4B9712046FFF72CFF4FF4B9719D
:1049D00004F11000FFF726FF002319462584E21892
:1049E0000233202B9185FAD14FF0000384F84C302C
:1049F00000231A46E1180133212B81F84D20F9D10B
:104A00000023194684F86E20E21801330C2B82F83B
:104A10006F10F9D100231946E21801330C2B82F8EC
:104A20007B10F9D100231946E2180133282B82F8B4
:104A30008710F9D100231D46E2180133282B82F894
:104A4000AF50F9D1784B202200211846C4E93655E1
:104A500003F00AFA052284F82020092273496284AF
:104A6000734A0346C4E909200A68C4E93855C4F802
:104A70007B204A6884F8E850C0F853208A6884F89C
:104A8000E950C0F857200868C4F86F004868002152
:104A9000C3F84B200A46C3F84700664BC3E90055EC
:104AA000C3E902551D6158180231B1F5346F828295
:104AB000F9D142F20F71C3F8542BC3F8582BC3F845
:104AC000602BC3F8642BC3F8682BC3F86C2BC3F8B6
:104AD000702BC3F8742B83F8792B83F87A2B002280
:104AE000A3F85C1B4FF00001154683F8781B99185A
:104AF0000232B2F5346FA1F87C5BF8D14E4C4FF422
:104B0000B9712046FFF78EFE002319462582E21870
:104B10000233202B9183FAD100231D46E218013382
:104B2000B3F5966F82F83C50F8D1F023C4F8F03416
:104B3000424B202200211846C4F8EC5403F094F9AB
:104B400005222274092262823D4A3E4BC4E90520B7
:104B500000221146C3E90155C3E903551D705D618B
:104B600098180232B2F5965F0183F9D141F2D8224A
:104B700041F2DC209950344A41F2F0241A50334873
:104B8000026041F2E42242F20F70985241F2E822B0
:104B9000995041F2EC2299524FF0000141F2EE227D
:104BA00099540022114604EB42000132102A195296
:104BB000F9D141F210329952002241F212301546D9
:104BC00000EB42010132102A5D52F9D141F232323A
:104BD00063219D5241F23432995441F238329D5052
:104BE00041F23C321A4C4FF4FA6120469D52FFF7D5
:104BF00019FE002319462582E2180233202B9183E7
:104C0000FAD100231D4625E0484C0020A84F002083
:104C1000C44F00202C060020642900205C4B00209B
:104C2000B42E0020083D0020884B0020628A000836
:104C30003C030020B40D0020702400208C240020B0
:104C4000E2020020989500200F270F2778A8002067
:104C5000D8A80020E2180133B3F5966F82F83C50D3
:104C6000F8D1F023A4F8F0344FF49653C4F8F43498
:104C7000C74B202200211846C4F8EC5484F8F254A3
:104C8000C4F8F85403F0F0F8052222740922628275
:104C9000C04AC14BC4E9052000221146C3E90155B1
:104CA000C3E903551D705D6198180232B2F5075FC4
:104CB0000183F9D142F2D81242F2DC109950B74A7E
:104CC00042F2F4141A5042F2E0101A5042F2E41088
:104CD0001A5042F2E81242F20F70985242F2EC126D
:104CE000995042F2F01299524FF0000142F2F21242
:104CF00099540022114604EB42000132102A195245
:104D0000F9D142F214229952002242F2162015469D
:104D100000EB42010132102A5D52F9D142F23622F3
:104D200063219D5242F23822995442F23C229D5016
:104D30009B4A4FF00001158042F24222994C99544F
:104D400020464FF4FA61FFF76DFD002319462582D6
:104D5000E2180233202B1185FAD100231946E218FC
:104D60000233782BA2F84810F9D100231E46E2182E
:104D70000133B3F5966F82F8C060F8D1F023202795
:104D8000894DA4F874353A460021C4F87065284668
:104D900003F06AF8EB1978220021184603F064F852
:104DA00005222274082200216282804A804BC4E9D5
:104DB00005250A4663627F4BA78320621E705E80D2
:104DC0009E80DE801E815E819E81DE811E825E82EB
:104DD0009E8258180231B1F5706FC282F9D1A3F8E2
:104DE000162FA3F8182FC3F8242FA3F8282F4FF05D
:104DF000000242F20F7183F82A2F0022A3F81A1F33
:104E0000A3F81C1FA3F81E1FA3F8201FA3F8221F3E
:104E1000114698180232202AA0F82C1FF9D100223E
:104E20001446A3F84C1F99180232202AA1F84E4FBD
:104E3000F9D16322604D4FF4FA612846A3F86E4F12
:104E4000C3F8744FA3F8784F83F8702FFFF7EAFC8C
:104E500000232C8219462C46E2180233202B1185A0
:104E6000FAD100231946E21802338C2BA2F848101D
:104E7000F9D100231A46E1180133B3F5966F81F892
:104E8000D420F8D1F0234D4DC4F88425A4F88835FA
:104E900020220021284602F0E7FF05F120038C22A2
:104EA0000021184602F0E0FF0A22227409226282E1
:104EB000434A444BC4E90525162220624FF47A6127
:104EC0004148A2836362FFF7ADFC00233E4A1846C7
:104ED0001546D1180233B3F5AA7F8883F9D1002390
:104EE0001C46EA180133C82B82F87041F9D14823D7
:104EF000A5F83C32354B4FF4AA7200211846C5F88C
:104F0000384202F0B1FF06222A8200221146304BBD
:104F10006861AB612F4B1C601C719C609C18023255
:104F2000302A4FF00000A181F8D1002283F83C0024
:104F3000294B19705980294B5960114618705870C7
:104F400098180132222A0172FAD183F82A10244BD0
:104F5000244A03F12005144618685968083303C42D
:104F6000AB422246F7D11B884FF6FF712380002306
:104F70001D4A137053701D4A1370537093701C4A6E
:104F800013701C4A91601946C2E900331A4A35E091
:104F9000F4A800209E040020886A00200F270F2715
:104FA000C88C0020CC8C0020F48C00205202002001
:104FB000A202002080550020FC640020246500200F
:104FC000EA030020A80500204492002060920020FF
:104FD000F80400206C090020AC09002040090020E2
:104FE0006FB9000848090020B3090020B00900206B
:104FF000B5090020B8090020C409002099540133E4
:10500000B3F57A7FFAD100231D46A2F8E813A2F87F
:10501000EA1382F8EC13D54A9D540133B3F5807F2F
:10502000FAD14FF41676D24C4FF4B971A2F8005170
:10503000D04882F80251FFF7F5FB2582A6806582F1
:10504000657525754FF49660257002F081FEA060AD
:10505000304602F07DFE4FF4FA77A584E060E584E7
:10506000278384F8285084F829504FF47A7002F08E
:105070006FFEE061384602F06BFEA5862062E58691
:10508000A68584F8385084F839504FF4966002F0C1
:105090005FFE002319462063A564E21802338C2BBF
:1050A000A2F89810F9D100231946E2180233502BC8
:1050B000A2F82411F9D100231946E21802333C2B3F
:1050C000A2F87411F9D100231946E2180233DC2B3F
:1050D000A2F8B011F9D100273D46E3190237782F25
:1050E0004FF00009A3F88C52F7D14FF480434FF0F2
:1050F0000108A4F80633A4F80833A4F80A33A4F886
:105100000C33A4F80E33A4F81033A4F81233A4F827
:1051100014334FF40063984E8C220021304684F8FB
:105120000493A4F81633A4F81833C4F81C5384F875
:105130002153A4F82253A4F82453C4F8285384F824
:105140002C9384F8208302F08FFE06F18C0318461E
:1051500006F1DC0B50220021019306F58C7A02F057
:1051600083FE3C220021584602F07EFEDC22002114
:10517000504602F079FE3A460021A6F14C0706F5AA
:10518000FA7002F071FE10220021384602F06CFE27
:10519000019B7A4AE3667A4B62642367794B2A2241
:1051A000E3675223A4F88030774BC4E90F87C4F833
:1051B00088302023266606270C26A4F88C300AF1B6
:1051C000DC03A4F85C20C4F89030704A704B84F87B
:1051D00048906266C4F884A0C4F89430A4F868606B
:1051E000A4F87470C4F878B06A4CDFF8C0A1A36961
:1051F000DFF8BC9143F03D03A3614FF08833664A6A
:10520000C9F800303146C9F804305046C9F80C508E
:10521000CAF80030CAF80430CAF80C501360536062
:10522000D560C2F80034C2F80434C2F80C5402222B
:10523000FBF7EEFE022205215046FBF7E9FE0222B3
:1052400004215046FBF7E4FE08220D215046FBF7EF
:10525000DFFE022207215046FBF7DAFE0222394622
:105260005046FBF7D5FE022208215046FBF7D0FE40
:10527000022209215046FBF7CBFE02220A215046AA
:10528000FBF7C6FE02220B215046FBF7C1FE0022AF
:1052900050461146FBF7BCFE002241465046FBF744
:1052A000B7FE3E4D002204214846FBF7B1FE042222
:1052B0000F214846FBF7ACFE6B680A2223F44073CB
:1052C00043F480736B6009214846FBF7A1FE04227A
:1052D0000A214846FBF79CFE4FF4C0226B684FF052
:1052E000006123F0E06343F000736B606368304655
:1052F00023F4404343F400436360A36943F4007321
:10530000A361A36943F48063A361254B5A604FF006
:1053100080721A61234A116108215963092151637E
:10532000996841EA08019960916841EA0801916031
:10533000FBF782FE996841F004019960996849077A
:10534000FCD4936843F004039360164B9E6816F0F8
:105350000406FBD101271249134D8A6842F001026D
:105360008A609A6842F0010224E000BF8494002021
:105370004C52002088950020E45200204C0600206A
:105380001406002046020020040500209603002099
:10539000D405002000100240001001400000014030
:1053A0000024014000280140C8830008000C01408F
:1053B000000801409A60E36943F00053E361814BC8
:1053C00003AC1F600FCD0FC495E8070084E8070009
:1053D000324603AD55F822300132072A1F60F9D159
:1053E000022209217848FBF713FE0022774E784805
:1053F0003260FBF721FE134655F822100132072ACE
:105400000B60F9D1012273483260FBF715FE724838
:105410003360FBF711FE2B460025704C6E4F326057
:1054200009A922603846FBF707FE1868056053F8A3
:10543000040F8B420260F5D1052100220125664F41
:105440003846FBF7F9FD186811F1FF31026053F897
:10545000040D0560F4D26048FBF7EEFD5E48226063
:105460003260FBF7E9FD0A22092157483560FBF756
:10547000CFFD5B48FBF7E0FD06230022DFF874A1B7
:10548000DFF87491DFF874815649574F574E584DE5
:1054900082F001022260FA20CAF80020C9F8002038
:1054A000C8F800203A6032602A600A60FBF7C4FD49
:1054B000013B13F0FF03E7D10122FA20C9F80020D5
:1054C000C8F800303B6033602B600B60FBF7B4FD25
:1054D000FA20C9F80020C8F800203B6033602B6038
:1054E0000B60FBF7A9FDFA20C9F80020C8F80020DE
:1054F0003A6033602B600B60FBF79EFDFA20C9F821
:105500000020C8F800203A6032602B600B60FBF787
:1055100093FDFA20C9F80020C8F800203A603260F4
:105520002A600B60FBF788FDFA20C9F80020C8F854
:1055300000203A6032602A600A60FBF77DFDFA20A5
:10554000C9F80020C8F800203A6032602A600B6079
:10555000FBF772FDFA20C9F80020C8F800203A6075
:1055600032602B600B60FBF767FDFA20C9F8002062
:10557000C8F800203A6033602B600B60FBF75CFDDD
:10558000FA20C9F80020C8F800203B6033602B6087
:105590000B60FBF751FDFA20C9F80020C8F8003075
:1055A0003B6033602B600B60FBF746FDC9F80030B1
:1055B000C8F800303B6033602B600B600BB0BDE877
:1055C000F08F00BF0074004000080140A401214298
:1055D000003E490000A60E000053070090812142C2
:1055E000009F2400AC812142A0812142A48121425C
:1055F000A8812142948121429C81214298812142AB
:1056000040F27121A34B2DE980489A69BDB042F464
:1056100080429A61A04A916042F22C01D16020211F
:105620009E4A516002939E4B99685A68914200F0DD
:105630008D861A689968013A9A4C481C0A4098600D
:1056400013441B7B94F80051DBB2274645B9E02B8D
:1056500005BF2370012384F80151A4F80031E2E76B
:10566000012D06D1637084F80131022384F80031E2
:10567000D9E7691C94F80161C9B2B142635584F855
:105680000011D0D1A378182B00F0F98400F291809A
:10569000042B00F090830CD8012B00F01F81C0F088
:1056A0001782022B00F02B82032B00F0A383012032
:1056B0004BE2102B00F0AD8463D8082B00F0CF83B1
:1056C0000A2BF4D1784B1E78002E40F09F84774C43
:1056D0004FF47A723146204602F0C6FB023D744A0E
:1056E000EDB2A918082303913146DFF8ECE1A4F8E4
:1056F000E833A4F8EA6384F8EC630398824200F08C
:10570000738400200C25C6B26E430EEB06051EF80E
:105710000660002E00F0658417780130B742F1D1A1
:1057200018464FF0004C40F2E23B95F808A0049573
:10573000C71AFFB2574586B280F052845D4D06F01D
:10574000070715F80790049D58494FEAE0086F686D
:1057500011F808103CEA07050CBF49EA010121EAEB
:1057600009015E4504F8081040F234840022042444
:105770004E4BA3F8E82321464F48FBF7CBF82046D1
:10578000E3E1112B00F06184132B90D14B4B1B787C
:10579000002B00F07184444B1D78012D00F26C84C5
:1057A000FCF7EEF90446002800F0418421B2444899
:1057B000E3E7302B00F0528541D81D2B00F0BB846D
:1057C00016D81A2B00F096841C2B7FF470AF3D4B3B
:1057D0001B78002B00F0ED840C2E40F0ED84344853
:1057E000FCF7FCFD044600284FD021B23648C4E740
:1057F0001E2B00F0E484202B7FF459AF334B1B7831
:10580000002B00F0FD84284B1D7815B1032D40F0CE
:10581000F7847C2E40F0F9842D48FCF737F977287F
:1058200040F2F58400242A4E3B19197930460134A0
:10583000FCF7B3F8782CF7D13DBB0320FBE3502BEA
:1058400000F04A851DD8312B00F02585402B7FF4D0
:105850002EAF204B1B78002B00F03785124B1D78A4
:1058600015B1052D40F03185342E40F033851048B8
:10587000FCF7CEF90446002840F028852DB9052014
:10588000D9E3903B012B3FF612AF0022054BA3F862
:105890000021C8E6001002400038014000E100E0AD
:1058A00064060020849400207D550020C409002057
:1058B000879400205A8A0008C9C100087D0800208A
:1058C00018C200087C08002069C200088208002075
:1058D000D8A800207F080020DC87000800229F4B0A
:1058E000C3F828239E4A16929E4A117811B10122CC
:1058F0008DF85B209C4A92F80080B8F1000F05D02B
:105900009DF85B2042F002028DF85B20974F3A78B9
:105910002AB19DF85B2042F004028DF85B20944E82
:1059200032782AB19DF85B2042F008028DF85B20A6
:10593000904D2A782AB19DF85B2042F010028DF834
:105940005B208D4C22782AB19DF85B2042F020022A
:105950008DF85B204FF0000C884AB3F822E31278F0
:10596000B3F824038DF85C20854AA3F822C312788B
:10597000A3F824C38DF85D20BEF1000F03D042F0E0
:1059800002028DF85D204FF0000C5A7D83F815C09F
:105990002AB19DF85D2042F004028DF85D204FF0A1
:1059A000000C93F8292083F829C02AB19DF85D20C6
:1059B00042F008028DF85D2093F82C332BB19DF84E
:1059C0005D3043F010038DF85D3028B19DF85D30F7
:1059D00043F020038DF85D306A4A9DF85D301278FF
:1059E000002A0CBF0022402213438DF85D300029AD
:1059F00050D06548FCF74AF80D23B0FBF3F08DF862
:105A00005E00B8F1000F52D0604B1B78002B44D0E1
:105A10005F48FCF73BF84FF02308B0FBF8F08DF837
:105A20005F005C48FCF732F8B0FBF8F08DF86000DE
:105A30003B78002B40D05848FCF728F87823B0FB7F
:105A4000F3F08DF861003378002B38D05348FCF721
:105A50001DF8D823B0FBF3F08DF862002B788BB3E0
:105A60004F48FCF713F83023B0FBF3F08DF86300D8
:105A7000237853B34B48FCF709F84423B0FBF3F009
:105A80008DF86400484B0D2116A898470022474B1B
:105A90001A60FAE68DF85E10B3E70A2344488DF8E1
:105AA0005F30FBF7F3FF2323B0FBF3F0BEE78DF885
:105AB0005F808DF86080BBE78DF86130C3E78DF8BB
:105AC0006230CBE78DF86330D2E78DF86430D9E7E8
:105AD000384B394A16930023D8B2145C191DC9B249
