:020000040800F2
:1000000000000120958A0008BD8A0008BD8A00080A
:10001000BD8A0008BD8A0008BD8A000800000000F3
:10002000000000000000000000000000BD8A000881
:10003000BD8A000800000000BD8A0008BD8A0008D3
:10004000BD8A0008BD8A0008BD8A0008BD8A000874
:10005000BD8A0008BD8A0008BD8A0008BD8A000864
:10006000BD8A0008BD8A0008BD8A0008BD8A000854
:10007000BD8A0008BD8A0008BD8A0008BD8A000844
:10008000BD8A0008BD8A0008BD8A0008BD8A000834
:10009000BD8A0008BD8A0008BD8A0008BD8A000824
:1000A000BD8A0008BD8A0008BD8A0008BD8A000814
:1000B0003D7E0008BD8A0008BD8A0008BD8A000890
:1000C000BD8A0008BD8A0008BD8A0008BD8A0008F4
:1000D000BD8A000885070020BD8A0008BD8A000887
:1000E000BD8A0008BD8A0008BD8A00080000000023
:1000F0000000000000000000000000000000000000
:100100000000000000000000BD8A0008BD8A000851
:10011000BD8A0008BD8A0008BD8A0008BD8A0008A3
:10012000BD8A0008BD8A0008BD8A0008BD8A000893
:10013000BD8A00080000000000000000BD8A000821
:10014000BD8A0008BD8A0008BD8A0008BD8A000873
:10015000000000000000000000000000000000009F
:10016000000000000000000000000000000000008F
:10017000000000000000000000000000000000007F
:10018000000000000000000000000000000000006F
:10019000000000000000000000000000000000005F
:1001A000000000000000000000000000000000004F
:1001B000000000000000000000000000000000003F
:1001C000000000000000000000000000000000002F
:1001D000000000000000000000000000000000001F
:1001E0005FF8E0F1044B05481B1A062B02D9044BBB
:1001F00003B11847704700BF6F0900206C09002049
:100200000000000005490648091A891001EBD17168
:10021000491002D0034B03B1184770476C09002006
:100220006C0900200000000010B5064C237843B98B
:10023000FFF7D8FF044B13B10448AFF3008001234C
:10024000237010BD700900200000000028EA00089B
:1002500008B5084B1BB108490848AFF300800848AF
:10026000036813B9BDE80840CCE7064B002BF9D072
:100270009847F7E7000000007409002028EA00080A
:100280006809002000000000134B002B08BF114B31
:100290009D46A3F5803A00218B460F461148124A2D
:1002A000121A09F0ADF80D4B002B00D098470C4BFB
:1002B000002B00D098470020002104000D000B48BF
:1002C00009F038F809F064F82000290000F010F86F
:1002D00009F036F8000008000000012000000000CE
:1002E000000000007009002060B800206993000839
:1002F00040F27121BA4B2DE980489A69C1B042F4AD
:1003000080429A61B74ADFF82CB3916042F22C0127
:10031000D160B54A202151600493B44A9168536872
:10032000994201F01580116893680139581CB04E4C
:100330000B40906013441B7B96F80041DBB2B4463F
:1003400054B9E02B03BF3370012386F8003186F8DF
:10035000004186F80141E0E7012C06D1737086F870
:100360000131022386F80031D7E73355601C96F837
:100370000131C0B2834286F80001CED1B2781C2A86
:1003800000F0F4862DD8082A00F0D98412D8022A69
:1003900000F0A38106D8002A00F08281012A4DD006
:1003A00000F0A6BF032A00F01C83042A00F0DC83BF
:1003B00000F09EBF112A00F0F68507D80A2A00F047
:1003C0006485102A00F0D68500F092BF182A00F04C
:1003D00010861A2A00F04386132A40F0898700F01D
:1003E000F7BD402A00F0468713D8202A00F0EF8698
:1003F00007D81D2A00F07C861E2A00F0CC8600F06B
:1004000077BF302A00F00387312A00F01B8700F005
:100410006FBF612A00F0AF8307D8502A00F04287EF
:10042000602A00F04B8300F063BF622A00F0E28391
:10043000903A012A40F25F8700F05ABF6D4B0021CD
:10044000C3F828138DF86B106B49E02009788DF8FC
:1004500068000D208DF869008DF86A2009B18DF8CB
:100460006B20DFF8D48198F800202AB19DF86B202A
:1004700042F002028DF86B20604F3A782AB19DF865
:100480006B2042F004028DF86B205D4E32782AB169
:100490009DF86B2042F008028DF86B20594D2A78A8
:1004A0002AB19DF86B2042F010028DF86B20564C5B
:1004B00022782AB19DF86B2042F020028DF86B2043
:1004C000524A12782AB19DF86B2042F040028DF812
:1004D0006B204F4AB3F822C3127800208DF86C20AD
:1004E0004C4AB3F824E31278A3F822038DF86D2068
:1004F000A3F82403BCF1000F03D042F002028DF8F0
:100500006D205A7D002058752AB19DF86D2042F06B
:1005100004028DF86D2093F82920002083F829002B
:100520002AB19DF86D2042F008028DF86D2093F8F5
:100530002C332BB19DF86D3043F010038DF86D30E6
:10054000BEF1000F05D09DF86D3043F020038DF80B
:100550006D30314B9DF86D201B78002B0CBF0023B4
:10056000402313438DF86D3041B12C4807F025FD31
:100570000D23B0FBF3F08DF86E0001E08DF86E10E6
:1005800098F80030EBB1264B1B7873B1254807F083
:1005900014FD4FF02308B0FBF8F08DF86F002248EF
:1005A00007F00BFDB0FBF8F008E00A231F488DF8B8
:1005B0006F3007F002FD2323B0FBF3F08DF87000DD
:1005C00003E08DF86F308DF870303B78B3B3184886
:1005D00007F0F3FC7823B0FBF3F08DF871002FE007
:1005E000001002400038014000E100E0E801002076
:1005F000A8B6002074B300201407002018070020BC
:100600001607002017070020F40200200000002039
:10061000A4B60020500F002070B30020107C0020F2
:10062000E401002088160020981600209411002074
:10063000200A002080930020150700208DF87130DB
:10064000337843B1544807F0B8FCD823B0FBF3F03B
:100650008DF8720001E08DF872302B7843B14F486D
:1006600007F0ABFC3023B0FBF3F08DF8730001E032
:100670008DF87330237843B1494807F09EFC44233A
:10068000B0FBF3F08DF8740001E08DF87430454B49
:100690000D211AA89847444B00221A6000F02BBE87
:1006A000E0238DF8683001238DF86B303F4B8DF8D7
:1006B0006A20D0B21C5C111DC9B2013224B140A81D
:1006C000014401F8984CF4E7364B1AA88DF86910EC
:1006D0009847354B1C6000F00EBE023C122C41F2D4
:1006E0009685F7787479C7F30013322C304986F871
:1006F000023101F28C850D7905F00800C0B203903B
:10070000887905F0020205F0040305F0100A05F0EF
:10071000200905F040080628D2B2DBB25FFA8AFA57
:100720005FFA89F95FFA88F80ED90A2844D0A0F157
:100730005B01C9B2102901F26A85DFF878E02EFA70
:1007400001F111F0010F03E0012804D115F0010FB0
:1007500001F05D8534E0022803D1002A01F05785BD
:100760002EE0032803D1002B01F0518528E0042856
:1007700004D10399002901F04A8521E0052804D11C
:10078000BAF1000F01F043851AE0062818D1B9F13B
:10079000000F01F03C8513E0302E0020A83300202C
:1007A000540F00201D070020180027429C990008C4
:1007B000A8B60020BFFD0100B8F1000F01F02785A9
:1007C000767AA5490F2E01F222851393CB791292E6
:1007D00005938B7A05F0010506930B7A07930B7B43
:1007E00008934B7B09938B7B0A93CB7B0B930B7CFE
:1007F0000C934B7C0D938B7C0E93CB7C0F930B7DDA
:1008000010934B7D119306F0AFFC9448129A05703B
:1008100000329348139B18BF012202700033914AA3
:1008200018BF01231370039B8F481A1C8F4B18BFEE
:1008300001221A701AF1000A8D4B18BF4FF0010AFD
:1008400083F800A019F100098A4B18BF4FF0010985
:1008500083F8009018F10008874B18BF4FF001088B
:1008600083F80080FB43854AC3F3C013137004EB85
:1008700044035A0002F5967292B29B00804DA0F894
:10088000A02203F516737F489BB2A5F8F034A0F8B8
:1008900074350C2363437C4803F51673C0F8F034B9
:1008A0007A4B04EB4404A3F888256408784B30465F
:1008B0004834A3F83C4204F019FABDF81810754BFF
:1008C000754A83F84367A3F84417744B1670198070
:1008D000734B0F9A83F8776B724B099883F84C65CA
:1008E000C7F3C00385F8F2344FF496635343C5F859
:1008F000F4346D4BC7F3800283F80423059A0A9CF5
:10090000D101079A0B9DD201A3F80823089A0E9EE5
:100910004FEAC218109AA3F806134FEAC21E119AA2
:10092000C0014FEAC21C0D9AA3F816C302F5F06C81
:100930000C9AA3F818C302F5F06CFA0748BF4942B5
:100940004FEAC4144FEAC5154FEAC616A3F80A8346
:10095000A3F80C03A3F80E43A3F81053A3F81263F3
:10096000A3F814E3A3F81AC348BFA3F80613BA0701
:1009700013D5C8F10002404264426D427642CEF186
:10098000000EA3F80A23A3F80C03A3F80E43A3F860
:100990001053A3F81263A3F814E31978002940F068
:1009A000E380049B049ADB69404843F00103D36170
:1009B0004FF080434FF4C0429A60C72299624FF0D3
:1009C0008054DA620122DA6004601868104318600B
:1009D000374B196043F8042C334B1A7006F08AFB2E
:1009E000C2E0032801F01384324BF0781B78834275
:1009F00000F0BA8006280ED90A2824D0A0F15B03A3
:100A0000DBB2102B01F203842B4A22FA03F3DE0738
:100A100041F1FD831CE0012801D1104B14E00228B4
:100A200001D10F4B10E0032801D10E4B0CE004283C
:100A300001D10E4B08E0052801D10D4B04E006283A
:100A400006D10C4B00E00C4B1B78002B01F0DF8330
:100A500006F08AFB88E000BFA8B60020140700203B
:100A60001507002018070020107C00201607002022
:100A700017070020F402002000000020E4010020FD
:100A8000200A0020302E002094110020A8330020DE
:100A9000540F0020685F0020FF74002000750020C4
:100AA00074170020B47E002074B3002000E100E041
:100AB00094812142A4B60020BFFD0100A71EFFB211
:100AC000072F54D9F37935790393337A05EB8505EC
:100AD0000593737ABB4996F803907079B27903F065
:100AE000010AC3F3400C6D00C3F3800300260DF12F
:100AF000680806EB010E9EF80AE006F808E00136E9
:100B000006F1070E5FFA8EFE7745F2D88BF837387C
:100B100045F6C053093CC2EB0212C0EB001040A9DD
:100B2000E4B2920080000C4492B2002180B204F83A
:100B3000981C584303FB02F18BF835A88BF836C894
:100B4000CBF84818CBF8380812B19F4807F041FE9F
:100B5000059B4A460193039B414600939B482B46C5
:100B600007F09CFE044618B904F05AF9C3E30424C4
:100B700021B297480BE3A4F1020E5FFA8EFEBEF19C
:100B8000050F33D93379B07903EB830300EB800091
:100B9000F278777996F807805B00400000251AA963
:100BA0000CEB0506367A6E5401356E1DF6B2B6456D
:100BB000F6D8073C40ADE4B22C44002504F8985C1C
:100BC00018246043CBF860082FB145F6C05404FBED
:100BD0000707CBF85878CDF80480CDF800807D4821
:100BE00007F05CFE04460028BED000E0042421B2D9
:100BF0007948CCE2023C0A2C41F20583B57AF278BE
:100C0000307996F808C096F8098096F80B90337BF7
:100C1000717B777996F806E0F47905F00106C5F363
:100C200040058BF8355945F6C05502EB82026A4300
:100C3000CBF8402805FB0CF2CBF8502805FB08F256
:100C4000C901DB01CBF86828ABF824394A105B42B4
:100C5000ABF82639C2F17F4303F57F0393FBF1F331
:100C60005E49ABF81A3800220023C001C1E9002315
:100C70008BF83469A1F500665949ABF83699ABF8A1
:100C80002808ABF8280900231A01505CB84209D1A2
:100C9000534B52491A4402F10803D3E90023C1E936
:100CA000002302E00133322BEED14C4BD3E9002379
:100CB000134301F0A8824B4ACBF808E8002312F84E
:100CC0003310484DB94205D1DBB215EBC30506D14F
:100CD00001F099BA0133322BF1D101F094BA6B884B
:100CE000D6F82008A6F8243808B108F0FDFAB6F8BE
:100CF00024080D27400008F0F5FA67430024A046B9
:100D0000C6F82008B6F8243804F10109A4B2A342B9
:100D10007FF62AAF404608F0C7FAC317A0FB0701C9
:100D200007FB0311DBF82028C30F43EA410303F359
:100D30000F0322F814306B684C469844E2E72A4DC2
:100D40002A78632A15D1042B15D1F378274C012B6F
:100D50000CBF01270027237805D13BB924486380C5
:100D600006F098FC02E00BB106F05EFC2770002450
:100D700002E0022400E004242978A1F15C03DBB244
:100D8000062B3AD84D2222FA03F303F0010383F035
:100D9000010293B396F80131042B10D1094BD87896
:100DA000144B01280CBF012400241C7024D15C7852
:100DB00014BB01F0FD025C2A1FD158701DE0042411
:100DC0001BE000BFA8B60020C89B00208093002035
:100DD000099C000880970020269C0008809B00202A
:100DE00098A10008709A0008A4B600204C0F0020BB
:100DF000169A0008200F00201446A1F16603052B67
:100E00000CD896F80131042B28D1A54BA54ADB78E4
:100E100000245D1E6B426B41937220E05D2907D177
:100E200096F80131042B2CD19D4BDA789E4B08E0CB
:100E30005B2914D196F80131042B22D1984BDA7832
:100E40009A4B012A0CBF0121002119707FF48CAE4E
:100E5000597800297FF488AE5A7085E60424652904
:100E60000BD196F80131042B0BD18D4B904ADB78D6
:100E70005C1E63426341137076E6002C3FF474AE4F
:100E800000E0042421468B4881E18B4B1D78002D26
:100E900041F0C081023CE3B2884C4FF47A7229469B
:100EA00020460393A94608F0ABFA264629460822B5
:100EB000DFF834E2DFF834C2A4F8E823A4F8EA53F8
:100EC00084F8EC530398CBB2984240D97C4D002073
:100ED0002B440C25C7B26F430EEB07051EF80770B5
:100EE0008FB393F800800130B845F2D12B7A40F2ED
:100EF000E238059313464FF00047981A5FFA80FADC
:100F00000598824520D268684FEAE30937EA000075
:100F100003F007001CF800A016F809000CBF4AEA0D
:100F2000000020EA0A00434506F8090005D900231D
:100F3000A4F8E833042401F06EB901339BB27F08B2
:100F40004FF00109D9E7134601311A46BAE7B9F162
:100F5000000F01D0A4F8E823B4F8E8130829E6D07C
:100F6000564B053189B2A3F8E813564809B206F08A
:100F7000EFFAC0E1544B1B788BB14F4D2B78012B0E
:100F80000DD82C2841F04B814D4806F083FB0446D8
:100F900030B92B78002B40F0AE810120A5E102246E
:100FA00021B24A48F3E0484B1B786BB1424D2B7895
:100FB000012B09D80F2841F03581414806F04AFB42
:100FC00004460028E5D000E0022421B24048DEE0DB
:100FD0003D4B1B784BB1384D2B78012B05D806F0D3
:100FE00023FB04460028D4D000E0022421B2394873
:100FF000CDE0394B1B78002B01F017812E4D2C785A
:1010000014F0FD0441F01181344B1B78002B01F0EA
:101010000C81252841F00B81314E304606F0CDFF82
:10102000202841F2068196F8E83023B1348186F811
:10103000E84074813473224C04F12107284E14F8DF
:10104000011F304606F078FFBC42F7D1254B1B78D4
:10105000002B40F04781012386F84C3042E11E4BC3
:101060001B78C3B1144D2B7813F0FD0F13D11B4B1C
:101070001B782BB1A11EC9B2114803F047FD05E052
:10108000252841F0DB800E4803F0B6FB044600281B
:1010900000F0288100E0022421B201F0CCB800BFAA
:1010A000A8B60020CC0900201C0F0020DC0900207D
:1010B000BC090020439C0008A4B60020343900205D
:1010C000ABB60020659C000814070020819C000836
:1010D000A09C0008BD9C000815070020E40100202A
:1010E00088160020500F00202C9E0008E9BE000842
:1010F000854B1B78002B01F0A480042841F0A480CC
:10110000F378012B16D1814A1278022A2AD1804A1B
:101110001178002940F0EF807E4A82F84C30C2F806
:10112000DC10C2F8E010C2F8E41082F8E81082F88F
:10113000E910E0E0B3B9754A1278022A12D1744A74
:101140001278002A00F0D780724A82F84C30C2F838
:10115000DC30C2F8E030C2F8E43082F8E83082F8DF
:10116000E930C8E0044621466B4810E0664A127830
:10117000002A01F06C800C2B41F06C80F01C03F015
:1011800091FC0446002800F0B680644821B206F0C5
:10119000DFF92046ADE05C4B1B78002B01F05D8051
:1011A000042841F05C80F3780022012B09D0022B47
:1011B00041F05780574BC3F8E420012283F8E9201F
:1011C00099E05449C1F8E02081F8E83093E0544BAD
:1011D0001B78002B01F051804C4D2B7813B1032B61
:1011E00041F04B807C2841F04A804E4806F0E5FEF5
:1011F000772841F246804C4C04F1780614F8011F20
:10120000484806F099FEB442F8D101F02FB8474B98
:101210001B789BB13D4D2B7813F0FB0F0ED1A11E17
:10122000C9B2122941F232803F4806F0DDF9044686
:1012300028B92B78002B5ED1042056E0022421B27D
:101240003B48A4E7394B1B7883B1304D2B7813F022
:10125000FB0F0BD1A11EC9B2122941F21A803248EC
:1012600006F0C2F904460028E3D000E0022421B2CF
:1012700030488CE7304B1B7883B1244D2B780BB171
:10128000052B0BD1342841F00780274806F096F94A
:10129000044620B92B7873BB052026E0022421B236
:1012A000264874E7264B1B78002B00F0F887174D73
:1012B0002B7813B1062B40F0F287472840F0F187D6
:1012C000204806F07AFE432840F2ED871E4C04F1D8
:1012D000440614F8011F1B4806F02EFEA642F8D162
:1012E00000F0E6BF2B7833B9022005F03DFF02E0A5
:1012F000012003F0B3FD154B002283F8002183F891
:101300000121FFF70AB800BF15070020A4B600208E
:10131000500F002088160020F39C00080E9D000846
:1013200018070020200A0020ABB600201607002076
:101330002C9D0008489D000817070020619D0008AB
:10134000F4020020540F0020AAB60020A8B6002006
:101350004BF67F33AC4CD4F8282321789A4281BFD6
:10136000AA4B002283F8002183F80121D4F81C3312
:1013700025460133A44AC4F81C33002900F0FE823C
:101380004BF67F33D2F828239A421ED9A0490B7816
:101390005A1E052A16D8022B10D19E4B1B786BB112
:1013A0009D4B002283F84C20C3F8DC20C3F8E020DA
:1013B000C3F8E42083F8E82083F8E92000230B70C9
:1013C00005F098FE0023C4F82833944B01221A60DC
:1013D000934807F03EFB20B98E4B1A78002A40F064
:1013E0006E87904807F035FB012840F2D482DFF881
:1013F00018A200260DF154091AAC09EB0602214689
:10140000884807F0D9FAAA8EEB8E92B29BB29A4224
:1014100002D19AF83830ABB1EB8E2A6B9BB232F81E
:10142000132017AB23F81620002285F83820EB8E06
:10143000A98D01339BB2EB86EB8E9BB2994201D80A
:10144000AAF8362095F821335BB1BDF868301BB19E
:1014500040F6FF72934204D1B5F822330133A5F868
:101460002233B5F81823BDF8683016AF9B1AB5F9CA
:1014700006231BB25343DB1303F30F0327F8163085
:101480000136022EDFF88081B6D198F82C53002D5A
:1014900040F081825E4A13789246002B52D1624B13
:1014A0001B7853B1394608F168003346224607F0ED
:1014B000F1FC17A9204603F05DFD5C4B1B784BB196
:1014C00039465B480223224607F0E4FC17A9204670
:1014D00004F03AFE574B1B787BB1022318AA394619
:1014E000554807F0D7FC18A954480223224607F0B4
:1014F000D1FC17A9204604F08DFF514D514E2B7899
:101500000BB93378C3B10223224639464E4807F05F
:10151000C1FC33781BB117A9204602F0A1FF2B783C
:1015200053B14A4B1B781BB1204606F0EDF803E09F
:1015300017A9204605F0B2F9454B1B78002B00F0A7
:101540002A82FDE0012B10D1374B1B78002B00F0D5
:101550002282394608F168003346224607F09AFC99
:1015600017A9204603F006FD15E2022B40F0A680E5
:10157000334B1B78002B00F00E823346224639464F
:1015800008F15C0007F086FC304B1B78002B00F064
:101590009080204B1B78002B00F087802D4EDFF8C9
:1015A000BC8019F80530042B0DD0082B15D1002371
:1015B000A6F82237A6F82A37A6F82037C6F82C371F
:1015C00086F8413709E0244A00231380A8F8003048
:1015D00022F8023CC2F80A30D377B6F82A37B6F8B8
:1015E000440701339BB20DF15C0A984234F915109F
:1015F0003AF81520A6F82A3732D996F846770037F8
:1016000018BF012730E000BF74B30020A8B6002047
:10161000A4B60020500F002088160020908121429F
:101620008CB3002078B30020140700201607002098
:10163000E8B3002017070020F4B3002000B4002016
:101640001507002018070020D0B30020E401002077
:1016500000000020685F0020DE740020E674002097
:10166000B74802F089FC0746B8F80030B5480133A6
:10167000B0F800E09BB29E4534F915103AF81520F9
:10168000A8F8003004D98078003018BF012003E0AA
:10169000A0F2447002F070FC0135022D81D1002FC0
:1016A00018BF384606F08AFF75E1204606F02CF890
:1016B00071E117A9204605F0F1F86CE1032B10D178
:1016C000A14B1B78002B00F06681394608F15C00C5
:1016D0003346224607F0DEFB17A9204602F0C0FE83
:1016E00059E1042B10D1994B1B78002B00F053814A
:1016F000394608F174003346224607F0CBFB17A9A0
:10170000204604F021FD46E1052B17D1904B1B78B4
:10171000002B00F04081334618AA394608F18000BA
:1017200007F0B8FB18A908F18C003346224607F0F1
:10173000B1FB17A9204604F06DFE2CE10A2B08D15D
:10174000844B39461868003018BF012001F00CFFA7
:1017500021E1632B40F09E8018AE7F4D3946022375
:1017600032467E4807F096FBA846002736F9172038
:101770002B79D10F8B4209D02B68B3F5004F2ABFCC
:101780006FF4CC7003F299131B182B60D8F800305B
:1017900088F8041003F54C513331B1F5803F01D284
:1017A000296072E0A3F54C43CD3B2B60AB6898F801
:1017B0003C105B00002AB8BF43F00103AB604B1C38
:1017C000DBB2172BD8F8080088F83C3084BF002320
:1017D00085F83C3020F07F43614808EB41015840D8
:1017E0008A8106F019FC022822D85E495E4A01F17E
:1017F000300E4FF47A5331F9020F8242B8BF0246DD
:101800008342A8BF03468E45F5D1D11A05290FDDC5
:1018100000218DF868108DF86A20111220461A12E6
:101820008DF869108DF86B208DF86C3005F03AFC5E
:10183000D8F8080020F07F434C48584006F0ECFBF5
:10184000022822D84749484A01F1300E4FF47A5312
:1018500031F9020F8242B8BF02468342A8BF034655
:101860007145F5D1D11A05290FDD80218DF8681059
:101870008DF86A20111220461A128DF869108DF821
:101880006B208DF86C3005F00DFC0137022F7FF4D2
:101890006DAF80E0602B7ED1354DDFF8DC802E46C9
:1018A000002717AB33F817206B68D1186B89696074
:1018B0009342338938BF6A81934288BF2A8145F6B3
:1018C000BF52336801339342336035D9B1FBF3F330
:1018D0006A898DF86530110A8DF861202A898DF8A2
:1018E00060108DF86320110AC3F307229AF80030C4
:1018F0008DF86210602B8DF8642016D1E0238DF8EE
:10190000683009238DF86A30002318A9E218595C61
:101910000133062BD170F8D10921164B20468DF8E2
:10192000691098470023C8F800304FF6FF72002373
:1019300033607360328173810137022FB1D12AE0A5
:10194000685F00200075002018070020160700209F
:101950001707002034812142E0090020DCB3002079
:1019600068B4AA00EA09002080C1FFFF974B550028
:10197000C00900201D07002018002742B4488342F8
:1019800009D992F82033C2F81C1383F0010382F8BE
:101990002033B04A1360B04BB04C1B7823B123788E
:1019A000012B01D102F084F8AD4B1B7853B12378A1
:1019B000022B07D1AB4B1B7813B103F0D7F801E032
:1019C00002F0E2FFA84B1F78002F79D02378032B79
:1019D00076D1A64E304606F0D0FA354630B9B6F884
:1019E000EC341BB9D6F8F834002B69D0B6F8EC34D7
:1019F000DFF8788253B9404606F0BFFA002840F07D
:101A00009284B6F8EC74002F00F0688402F096FF20
:101A10000646974FDFF88082142E51D9B5F8EE3480
:101A20006FF4C5615A1C2B44A5F8EE2493F83C20B2
:101A300095F8F23440F2657E002B0CBFBA46C146E1
:101A40008C4B40F2772C18BF9A460B440EBF994638
:101A50004FF46D7E4FF49E7C002302F0C00080287E
:101A600018A900F03784C02800F0308400280CBF8B
:101A70005046484621F8130001339200042BD2B29D
:101A8000EBD11AAA7C4807F01BF8002314221AA9EC
:101A9000032002F0C7FE734B143E1B78B6B21BB195
:101AA000D5F8F434C5F8F834B5F8EE14B5F8EC24EC
:101AB0006E4B9142B0D30022A3F8EE24A3F8EC249D
:101AC0006E4B1B7823B12378042B01D101F05CFF0E
:101AD0006B4B1B7823B12378052B01D103F06CFEEF
:101AE000684B1E78B6B12378674D062B06D0B5F843
:101AF00038321BB9284606F040FA58B1624F3846D2
:101B000006F03BFA002840F04184B7F83832002B49
:101B100040F03C842378632B40F03C815B4D01F026
:101B2000C7FF2B78002B00F03581594806F045FAA5
:101B30000D23B0FBF3F0C0B2042840F22B815549CD
:101B400000231AA85A5C1A5401330C2BFAD16A8864
:101B50001521B2FBF1F301FB13239BB2002B00F024
:101B60000E81012A04D130238DF87130022305E063
:101B7000022A07D134238DF8713019238DF8723081
:101B8000DE23FAE0032A04D131238DF871306F236C
:101B9000F4E7042A07D11F238DF871302B238DF829
:101BA0007230F623E9E0052A04D132238DF8713032
:101BB00022230FE0062A07D124238DF871302A232F
:101BC0008DF87230E023D8E0072A07D133238DF84F
:101BD00071303B238DF87230B323CEE0082A00F039
:101BE0009E80012B07D125238DF871304F238DF86E
:101BF00072309323C1E0022B07D170238DF871302E
:101C00000B238DF87230DA23B7E0032B01D12523A3
:101C100010E0042B04D133238DF871301B23D9E756
:101C2000052B04D125238DF871306F2367E0062B37
:101C300004D139238DF871301D237EE0072B2DD17F
:101C400025238DF871300C238DF87230C72394E072
:101C50007FA903009081214214070020A4B6002030
:101C600015070020E401002018070020200A0020AA
:101C700089FDFFFFC4FEFFFF300A00201607002089
:101C800017070020F4020020540F00204C0F002002
:101C9000107C002004B600084CFCFFFF082B04D188
:101CA00050238DF871306F2308E0092A00F0E38398
:101CB000092B07D125238DF871301E238DF8723042
:101CC000D0235AE00A2A00F0D9830A2B07D1212316
:101CD0008DF871300C238DF87230C2234DE00B2A41
:101CE00000F0CF830B2B01D1252319E00C2A00F043
:101CF000CB830C2B07D13D238DF8713002238DF857
:101D00007230D72339E00D2A00F0C1830D2B01D1A9
:101D1000252330E70E2A00F0BD830E2B04D150237B
:101D20008DF871306F2355E70F2A00F0CA830F2B0F
:101D300007D125238DF871301B238DF87230D623FF
:101D40001BE0102A0BD0102B07D123238DF8713004
:101D50001B238DF872303A230FE0112A06D0112B85
:101D600004D121238DF87130252303E016238DF84B
:101D7000713029238DF87230F5238DF8733005F01A
:101D800069FC40F276216B880133B3FBF1F201FB71
:101D900012336B802378622B07D05F2B05D05E2B2C
:101DA00010D05C2B40F0F0809DE0B74B1A78B74B19
:101DB0002AB1052283F84C2002F0D8FEE4E083F833
:101DC0004C20E1E002F0D2FEB14806F0F6F8232301
:101DD000B0FBF3F010F0FF0F00F0D680AA4D6B7847
:101DE000013B032B00F2C980DFE803F0021C5761BE
:101DF000012002F07BFFA74802F054FE2221A648F2
:101E000002F084FEA14B012283F84C200022C3F88B
:101E1000DC20C3F8E020C3F8E42083F8E82083F84E
:101E2000E92076E095F82A70DFF8ACE2C7EBC70747
:101E30000EEB07014B78AA7DEB758B78924E2B76D3
:101E4000CB786B760B79AB764B79EB762B7F03F007
:101E50000F0022F00F031EF8072002F00F021A43B2
:101E60008B79222123F00F03034306F108002B771F
:101E7000AA7502F04BFE95F82A30052B09D10023F4
:101E800086F82A303378002B7ED17F4B03225A709C
:101E90007AE0013386F82A3076E022217F4802F08A
:101EA00035FE7A4BD3F8DC306B60042366E0774A6A
:101EB0006B68D2F8DC001E338342734964D200237E
:101EC000138382F84C305383C2F8DC30C2F8E03020
:101ED000C2F8E43082F8E83082F8E930137781F80C
:101EE0002A304B7050E002F04FFD6D4806F065F867
:101EF0002323B0FBF3F010F0FF0F45D0624D6B7859
:101F0000022B08D0032B35D0012B39D1654802F0C4
:101F100073FC022332E095F82A00634FC0EBC00047
:101F200039184B78AA7DEB758B782B76CB786B764E
:101F30000B79AB764B79EB762B7F03F00F0622F013
:101F40000F033A5C05F1080002F00F021A438B7987
:101F5000AA7523F00F0333432B7702F04DFC95F85D
:101F60002A30052B04D1002385F82A302B788AE704
:101F7000013307E04D4802F03FFC00236B7003E0A3
:101F800000236B7085F82A3023785D2B21D101F076
:101F9000FBFC474806F011F8D823B0FBF3F010F033
:101FA000FF0F16D0434D6B78012B02D0022B06D0C9
:101FB0000DE0D921404805F017FB022308E0D921A4
:101FC0003E4805F011FB2B7813B1012300E00023FC
:101FD0006B7023785B2B21D103F0EEFB384805F0C2
:101FE000ECFF3023B0FBF3F010F0FF0F16D0354DAF
:101FF0006B78012B0FD1344BAA78312000FB0230D3
:1020000005F0DCFAAB78013303F00303AB702B78F7
:1020100023B96B7002E000236B70AB702378652BE3
:102020000BD12A4B1B78002B00F0A98002F086FC14
:10203000A52802D9AA2002F091FE2278A2F1660317
:10204000D9B2052900F29B80214D297BA8469142F7
:1020500000F08280052B44D8DFE803F0030A0D105E
:1020600013404FF46F732B802A88002319493DE0F9
:1020700040F20F43F7E740F2DF43F4E740F26163D9
:10208000F1E740F61F03EEE7200F0020881600203E
:1020900098160020009C0008F49900083CA0000855
:1020A00094110020089E00085EA0000888A0000887
:1020B000302E00201C0F0020320000200B010020D9
:1020C000A8330020DC090020AAA00008BC090020D9
:1020D000CC090020409A00086EA1000840F6BF130A
:1020E000C1E70023BFE70133062B48D031F83300A6
:1020F000BD4F9042F7D1DBB217EBC3073FD07B88CF
:1021000068686B8008B107F0EFF868880026400027
:1021100007F0E8F8B146DFF8D4A26860731C0393B7
:10212000B8F80230B6B2B34213D9484607F0BCF84B
:10213000BAF90830DAF8042083FB0001C30F43EA40
:10214000410303F30F0322F816307B68039E994482
:10215000E4E72278A54B1A73AB7A83B102F0EEFB69
:102160000546A24EB8F80220AA4208D200237168A0
:10217000207802F057FB7388ED1AADB2F2E72378AE
:10218000002B7EF4CAA89A4CB4F8E833002B3EF436
:10219000C4A802F0D3FB0546964E182D7EF6BDA8C6
:1021A000B4F8EA336120D91003F00702B25C635C33
:1021B000183D13401BBF0023182218228E4908BF68
:1021C0008E4902F02FFB94F8EC33ADB20133DBB251
:1021D000312B874A84F8EC3307D9B2F8EA3301335C
:1021E000A2F8EA33002382F8EC33B4F8EA13B4F827
:1021F000E8237F4B9142D0D30022A3F8EA23A3F82F
:10220000E823FEF78AB804217D4805F0A1F90420EF
:10221000FFF76FB8052421467A48FEF7B8BF0424BB
:10222000FEF7BEBE0424FEF7D0BE022402E0042462
:1022300000E0052421467448FEF7A9BF0424FEF7F8
:102240002BBF0224FEF78FBF0424FEF78CBF0224AD
:10225000FEF79BBF0424FEF798BF022402E004248B
:1022600000E0044621466948FEF791BF2B78002B19
:102270007FF441A80320FFF738B8022402E00424C9
:1022800000E0052421466248FEF781BF0424FEF7E2
:10229000D6BF0424FEF7EBBF0424FFF700B80224E6
:1022A00002E0042400E0052421465A48FEF76FBFEF
:1022B0002B78002B7FF41FA80620FFF716B81870A4
:1022C00094F80423544B1A60FFF78BB821F813E0FD
:1022D000FFF7D2BB21F813C0FFF7CEBB4F4BD3F8AB
:1022E000F834002B3FF4ECAB02F028FB0646142E2A
:1022F0007FF6E6AB04231AAA18A94948189719973C
:1023000006F0DEFB002314221AA9032002F08AFA49
:10231000D5F8F834143E013BB6B2C5F8F834002BBA
:10232000E5D1FFF7CDBB3F4B1978A1B178273B48EA
:1023300005F0EEFDB5F8EC34013F5A1C17F0FF072D
:102340002B44A5F8EC2483F83C00F0D10023A6F838
:10235000EE34FFF756BB0846B8F8F0E4B8F8EC34B2
:102360004FF077081FFA80FC03EB0C02E64592B2AF
:1023700006D873449BB20029E8D0A6F8EC34E5E710
:102380002A4482F83C8001303946EBE7B5F8383210
:10239000002B4BD1234B1B78A3B91946224AAA27FD
:1023A000B2F83C028AB2824206D30BB1A5F83802D9
:1023B0000023A5F83A3239E02A4482F870710131DD
:1023C0003346EFE74426184805F0A2FDB5F8383249
:1023D000013E5A1C16F0FF062B44A5F8382283F85C
:1023E0007001F0D1E4E700BF409A0008CC0900205A
:1023F00034390020E9BE0008020000208C090020CA
:102400007C9D0008999D0008D99C0008AC9D00089F
:10241000C79D0008EB9D0008B0812142200A0020E2
:10242000300A0020500F0020540F0020B5F8383239
:10243000002B3FF46FAB02F081FA0646A02E7FF628
:1024400069ABB5F83A32A03E5A1C2B4493F87001A0
:10245000A5F83A2202F082FCB5F83A22B5F83832F3
:102460001A4F9A42B6B2E9D30023A7F83A32A7F836
:102470003832FFF74FBB0A2B0FD128E40B2B10D1BA
:1024800032E40C2B11D136E40D2B12D140E40E2B8B
:1024900013D144E40F2B14D14BE40B2B7FF429AC64
:1024A00022E40C2B7FF432AC25E40D2B7FF435AC09
:1024B0002EE40E2B7FF43BAC31E40F2B7FF443ACC6
:1024C00037E4102B7FF44BAC3FE400BF540F0020E7
:1024D0002DE9F04FD44A00238FB01360137153716C
:1024E000936002F10C0002F1700400F8013BA0427D
:1024F0004FF00001F9D1CD4B116751679167D1675A
:10250000C2F88010C2F88410C2F8881003F1A80045
:1025100043F8041B8342FBD1002003F1A80143F8D8
:10252000040B8B42FBD1002003F1A80143F8040BFC
:102530008B42FBD1002003F1A80143F8040B8B422E
:10254000FBD1002003F12A0103F8010B8B424FF06D
:102550000004F9D1B64D4FF4B9712846C2F858437A
:10256000A2F85C4305F04BFD05F11C031E462C61EF
:1025700005F1440223F8024B9342FBD1002103F5FD
:10258000167203F8011B93424FF00004F9D13C236B
:1025900028222146A748A5F8A032A5F89C42A5F814
:1025A0009E4206F02DFF214605232B7403236B82E8
:1025B000A14BAE616B61A14B1C605C609C60DC60F8
:1025C0001C6103F1140203F23C5522F8021BAA42DB
:1025D0004FF00004F9D142F20F72994D214699480B
:1025E000A3F84025A3F83C45A3F83E45C3F844456D
:1025F000A3F84845A3F84A4583F84C4505F0B6FBD7
:102600000121914805F0B2FB4FF4B971284605F05D
:10261000F6FC4FF4B97105F1100005F0F0FC05F17E
:102620002C031F4621462C6205F14C0223F8021BA5
:102630009342FBD14FF00003844A85F84C300020D0
:1026400002F1210102F8010B8A424FF00003F9D197
:102650007F4C85F86E3004F10C0204F8013B944283
:10266000FBD1002204F10C0304F8012B9C42FBD1A6
:10267000002204F1280304F8012B9C42FBD1002224
:1026800004F1280304F8012B9C424FF00006F9D115
:10269000C5F8E060C5F8E46085F8E86085F8E960B1
:1026A000202231466B48A5F8D860A5F8DA60C5F855
:1026B000DC6006F0A5FE684A0523116885F8203025
:1026C00044F8681C5168092344F8641C31466B8443
:1026D000624BAF626B62136844F85C3C536844F829
:1026E000583C936844F8543C44F8603C5C4B1E6092
:1026F0005E609E60DE601E6103F1140403F65435D3
:1027000024F8021BAC424FF00002F9D142F20F71E3
:10271000A3F8542BA3F85C1BA3F8562BA3F8582B53
:10272000A3F85A2BC3F8602BA3F8642BA3F8662BED
:10273000A3F8682BA3F86A2BA3F86C2BA3F86E2BD5
:10274000A3F8702BA3F8722B83F8742B83F8752BE6
:1027500083F8762B83F8772B83F8782B83F8792B03
:1027600083F87A2B3F4B03F5346123F8022B8B421D
:102770004FF00005F9D13C4C4FF4B971204605F0FB
:102780003EFC04F11C031E46256104F13C0223F8C3
:10279000025B9342FBD1002103F5966203F8011B13
:1027A00093424FF00005F9D1F023294620222F480B
:1027B000A4F8EC54A4F8EE54C4F8F03406F020FE6B
:1027C0000523237409236382294B29466361294B1E
:1027D000A66103F118001D705D609D60DD601D61E4
:1027E0005D6100F5965520F8021BA8424FF00002EB
:1027F000F9D141F2DA2102805A5241F2DC2042F250
:102800000F71195241F2DE2019521B481446018003
:1028100041F2E220195241F2E420195241F2E8213A
:102820005A5041F2EC2129E0D09C00205C9D002010
:10283000107C00202C7C0020F0050020B47E0020BD
:1028400088160020685F0020BC6D0020D51600208F
:10285000F7160020B41600205BAF0008F403002038
:1028600074170020F022002094110020B0110020E5
:10287000F602002030A0002010B300205A5241F28E
:10288000EE215A54500000F5975001321030102AB2
:102890004FF000011C52F5D141F21032C6480C46EF
:1028A00081520A46510001F5985101321231102A25
:1028B000C1484FF000055C52F4D141F23233C552A9
:1028C00041F234336322C25441F23833C55041F2ED
:1028D0003C33BA4CC5524FF4FA61204605F08FFBE9
:1028E00004F11C031E462A4625613C3423F8022BC2
:1028F000A342FBD1002103F5966203F8011B93422A
:102900004FF00004AD4DF8D1F023A5F8F034214686
:102910004FF4965305F11C002022C5F8F434A5F8B5
:10292000EC44A5F8EE4485F8F244C5F8F84406F006
:1029300067FD214605232B7409236B82A04BAE61F2
:102940006B61A04B03F118001C705C609C60DC6044
:102950001C615C6100F5075520F8021BA8424FF08E
:102960000002F9D142F2DA1102805A5242F2DC102E
:1029700042F20F71195242F2DE10195242F2E01087
:10298000195242F2E210195242F2E410195242F284
:10299000E610195242F2E810195242F2EC115A5064
:1029A00042F2F0115A5242F2F21114465A545000B7
:1029B00000F5075001323430102A4FF000011C524C
:1029C000F5D142F214227F480E4681520A46500049
:1029D00000F5085001321630102A7A494FF00005F0
:1029E0001E52F4D142F23623CD5242F238236322F2
:1029F000CA5442F23C23CD5001F509531D8042F2E6
:102A00004223714CCD5420464FF4FA6105F0F7FA99
:102A100004F1280217462B46256104F1480122F8EB
:102A2000023B8A42694EFAD13346002106F1780210
:102A300023F8021B9342FBD1002103F5966203F8B1
:102A4000011B93424FF00005F9D14FF02008F0230D
:102A5000424629465E48A4F87435A4F87055A4F897
:102A6000725506F0CDFC78222946584806F0C8FC7D
:102A70000523237408236382564B29466361564B12
:102A8000A7616362554BA4F81C801A46266202F8BF
:102A9000025B03F1160022F8021B8242FBD10025E3
:102AA00002F5706422F8025BA2424FF00001F9D1F6
:102AB00042F20F72A3F81A2FA3F81C2FA3F81E2FAF
:102AC000A3F8202FA3F8222F454AA3F8161FA3F836
:102AD000181FC3F8241FA3F8281F83F82A1F02F128
:102AE000200422F8021BA2424FF00000F9D13D4A17
:102AF000A3F84C0F02F1200122F8020B8A424FF09A
:102B00000004F9D1384D63224FF4FA61284683F866
:102B1000702FA3F86E4FC3F8744FA3F8784F05F0E9
:102B20006EFA05F128031F462C6105F1480223F8CF
:102B3000024B93422D4EFAD13346002106F18C020E
:102B400023F8021B9342FBD1002103F5966203F8A0
:102B5000011B93424FF00004F9D1F02320222146BB
:102B60002348A5F88835A5F88445A5F8864506F0DC
:102B700047FC8C2221461D4806F042FC0A232B7498
:102B800009236B821B4B4FF47A616B611623AB8375
:102B9000194B1A482E626B62AF6105F030FA184883
:102BA0002146064600F5AA7320F8021B9842FBD185
:102BB000002200F1C80325E030A00020200A0020F8
:102BC00096050020243D0020302E0020782E002085
:102BD000582E00206C0600204E04002004840020A3
:102BE0003093002052930020A8330020F0330020BF
:102BF000D03300208E04002040060020540F002017
:102C0000700F002000F8012B98424FF00005F9D119
:102C10004823A0F50E74838045804FF4AA7229469C
:102C2000A0F50770A4F8385206F0EAFB06232382C9
:102C3000DF4B6661A361DF4C2946224604F2E9308E
:102C400002F8015B02F8011B82424FF00003F9D148
:102C5000D94AA4F8EA33A4F8EC33A4F8EE33A4F884
:102C6000F033C4F8F433A4F8F833A4F8FA33A4F832
:102C7000FC33A4F8FE3384F8003402F57A7102F8CC
:102C8000013B8A424FF00005F9D1173200200021A4
:102C9000C2E900014FF4804601204FF4B562A4F868
:102CA0001A08A4F8EA57A4F8EC57A4F8EE57A4F8C9
:102CB000F057C4F8F457A4F8F857A4F8FA57A4F852
:102CC000FC57A4F8FE57C4F80858A4F80C58C4F8E8
:102CD0001058C4F8145884F81858C4F82058A4F8A8
:102CE0002458A4F82658A4F8286884F82A58C4F868
:102CF0002C5884F8305884F8345884F8355884F8BF
:102D0000365884F83758C4F83858C4F83C58C4F8D2
:102D10004058C4F84458C4F84858C4F84C58C4F84B
:102D20008428A64A4FF43573C4F8AC28A44AC4F8E2
:102D30008038C4F8B02844F66C22C4F8B428A14AFC
:102D4000C4F88838C4F8CC2802F2B552C4F8D428A4
:102D500047F6E4229C4BC4F8D828C4F88C3845F2D6
:102D6000683343F28F629949C4F890384FF40043B6
:102D7000C4F8A438C4F8C838C4F8D038C4F85058D7
:102D8000C4F85458C4F85858C4F85C58C4F860588B
:102D9000C4F86458C4F86858C4F86C58C4F8785833
:102DA000C4F87058C4F87C58C4F87458C4F8A858CB
:102DB000C4F89C58C4F89458C4F8A058C4F898585B
:102DC000C4F8C058C4F8B85884F83409A4F83609CF
:102DD0008020C4F8EC38C4F81039C4F8F028C4F8DE
:102DE000F818C4F81419C4F81C29A4F83809A4F870
:102DF0004059C4F8C458C4F8BC58C4F8F458C4F8CE
:102E0000FC58C4F8E458C4F8DC58C4F8E858C4F8CE
:102E1000E058C4F81859C4F82059C4F80859C4F83F
:102E20000059C4F80C59C4F80459A4F82459A4F85A
:102E30002659A4F8286984F82A59C4F82C5984F82A
:102E4000305984F83559A4F8425984F8445984F823
:102E5000455906F047FA5E4BC4F83C091D601D71E8
:102E60009D6003F10C0084F84C5984F84D59C4F866
:102E700048593C3320F8025B98424FF00002F9D1E8
:102E8000534B114683F83C20524B1A705A80524BD8
:102E90001A705A705A6003F1080003F12A0200F810
:102EA000011B90424C4BFAD1002283F82A204B4A56
:102EB000083302F120051C4610685168083203C42B
:102EC000AA422346F7D1128800232280444A4FF4B5
:102ED000805113705370434A1C46137053709370A3
:102EE000414A424811814FF6FF711380538053606D
:102EF0009372D37213733E4A13703E4A1360536049
:102F0000118153811C540133B3F57A7F37494FF057
:102F10000002F7D11346A1F8E823A1F8EA2381F8CB
:102F2000EC231946344A99540133B3F5807F324873
:102F30004FF00005F7D1314C4FF4B9714FF41676CC
:102F400080F8005180F8015180F8025100F582703C
:102F500005F055F82582A6806582657525754FF4C4
:102F60009660257006F0BEF9A060304606F0BAF90A
:102F70004FF4FA77A584E060E584278384F828502D
:102F800084F829504FF47A7006F0ACF9E0613846C5
:102F900006F0A8F9A5862062E586A68584F8385053
:102FA00084F839504FF4966006F09CF9102227E01F
:102FB0001A06002080930020819700200080FFFFE8
:102FC0005D3BFFFF0000FFFFF96BFFFF8FB6FFFFC8
:102FD000E00900204C0F0020200F0020E0A4000892
:102FE0001C0F0020DC090020CC090020343900200F
:102FF000BC090020C0090020A8B6002074B300203E
:103000002063294604F13C0006F0FAF9294604F150
:10301000980304F5927223F8021B9342FBD100211E
:1030200003F1500223F8021B9342FBD1002103F16C
:103030003C0223F8021B9342FBD1002103F1DC0286
:1030400023F8021B9342FBD1002103F1780223F8FD
:10305000021B93424FF00005F9D14FF48043C94E53
:103060000127A4F80633A4F80833A4F80A33A4F817
:103070000C33A4F80E33A4F81033A4F81233A4F8D8
:103080001433A4F8163329464FF400638C22BE484B
:10309000A4F81833A4F81A3384F80453C4F81C5362
:1030A00084F82153A4F82253A4F82453C4F82853D5
:1030B00084F82C5306F1500B84F8207306F0A0F925
:1030C00029465022304606F09BF906F18C0A294623
:1030D0003C22584606F094F906F5B4792946DC22DC
:1030E000504606F08DF929467822484606F088F9C0
:1030F000A6F1D803294610221846019306F080F95C
:10310000019BE6662364A14B4FF00C0863642A23FD
:10311000A4F85C30A6F18C0323669D4B06266366FB
:103120009C4B84F8485023679B4BA4F87460E3677A
:103130005223A4F88030994BC4F884A0C4F8883096
:103140002023A4F88C30964BC4F89090C4F89430A7
:10315000E763A4F86880C4F878B0924CDFF878A2EE
:10316000A369DFF86092904A43F03D03A3614FF0FA
:103170008833C9F800304146C9F804305046C9F8D0
:103180000C50CAF80030CAF80430CAF80C5013606A
:103190005360D560C2F80034C2F80434C2F80C544D
:1031A000022204F031FE02220521504604F02CFEDA
:1031B00002220421504604F027FE08220D21504629
:1031C00004F022FE02220721504604F01DFE314683
:1031D0000222504604F018FE02220821504604F054
:1031E00013FE02220921504604F00EFE02220A219B
:1031F000504604F009FE02220B21504604F004FE62
:103200002A462946504604F0FFFD2A4639465046D4
:1032100004F0FAFD2A460421644D484604F0F4FD0A
:1032200004220F21484604F0EFFD6B680A2223F4C4
:10323000407343F480736B600921484604F0E4FD59
:1032400004220A21484604F0DFFD6B68584E23F043
:10325000E06343F000736B60636805F5205523F469
:10326000404343F400436360A369404643F4007362
:10327000A361A36943F48063A3614FF4C023736027
:103280004FF0807333614FF000632B610823736349
:1032900009236B63B1683943B160A9683943A960F8
:1032A00004F0C5FD33462A46B16841F00401B1601F
:1032B00099684907FCD493683E4943F0040393603E
:1032C0008B683C4A13F00407FAD139493A4D8B68B0
:1032D000012643F001038B60936843F00103936080
:1032E000E36943F00053E361344B04AC1E600FCD3F
:1032F0000FC40FCD0FC495E803003B4684E80300DC
:1033000004AA52F8232002B1166001330A2BF7D128
:103310002B4D0921002402222A4804F075FD2C605F
:10332000294804F084FDA8462346214604AA52F801
:10333000232002B1116001330A2BF7D10125234864
:10334000234FC8F80050002604F071FDC8F8006053
:10335000204804F06CFD04ACC8F800500DF13409AD
:103360003D6001971B4804F062FD54F8043B03B133
:103370001E60236803B11D60A145F3D10924002517
:1033800001262BE098B400200CB400202806002071
:1033900042050020BC0600200E060020500300203D
:1033A000D40600200010024000100140000001403F
:1033B0000024014000280140B8A400080074004027
:1033C000A401214200080140003E490000A60E0071
:1033D0009081214200530700000C0140474804F04F
:1033E00026FD59F8043903B11D60D9F8003003B146
:1033F0001E60013CF2D1414804F019FD019B3F4899
:103400001C60C8F8004004F012FD01230A220921C3
:10341000C8F800303A4804F0F7FC3A4804F007FDD9
:1034200039493A4A0625019B394E84F00104DFF8F8
:10343000E4B0DFF8E480DFF8E490DFF8E4A0E4B281
:103440001C60FA200C60013D03911460CBF8004031
:103450003460C8F80040C9F80040CAF80040146061
:103460000292346004F0E3FC15F0FF05274F029A46
:103470000399D8D101243C60FA20CBF80050356084
:10348000C8F80050C9F80050CAF800503D603560D7
:1034900004F0CDFCCBF80040FA2004F0C8FC346006
:1034A000FA2004F0C4FCC8F80040FA2004F0BFFC85
:1034B000C9F80040FA2004F0BAFCCAF80040FA202B
:1034C00004F0B5FCCAF80050FA2004F0B0FCC9F8CA
:1034D0000050FA2004F0ABFCC8F80050FA2004F0C9
:1034E000A6FC3560FA2004F0A2FCCBF80050FA20CC
:1034F00004F09DFC3D600FB0BDE8F08F0053070065
:1035000000080140009F2400948121429C812142B7
:10351000A081214298812142A4812142A881214297
:10352000AC812142B0F8262730B402F13C0302F509
:10353000167294B29BB200225D1C00EB4303B3F8F9
:103540004A371A44ABB2A342F6D14FF40773B2FB29
:10355000F3F230BCC2F3072381F8232081F8223034
:103560002422007801F0CEBC2DE9F04FB04B87B09B
:1035700093F83429804602912AB193F8353923B162
:1035800080F0010801E04FF00108A94CA948264647
:1035900002F0B8F9A84802F0B5F9A84802F0B2F96B
:1035A000A74802F0AFF9A74802F0ACF9A64802F02C
:1035B000A9F9A64802F0A6F9029B0027A3F1020B85
:1035C00094F818A8FBB201930AF0FE0300939DF84B
:1035D00000303BF9025F84F81838D4F810389C4961
:1035E00018460A684968D4F814E80391D917CDE958
:1035F00004010399B4F91AC803FB01F90599C4F849
:10360000143802FB0199A3FB02014944C00F40EAB0
:10361000410000F31E00CEEB400005FB0C0941F217
:103620007070B4F80C18C4F81098013189B2814256
:10363000A4F80C184FD189FB09014FEAD07C4CEA61
:10364000410C83FB03010CF31E0C4FEAD07E4EEAC3
:10365000410E83FB09010EF31E0EC30F43EA410323
:1036600003F31E031846D917CDE904010398059901
:10367000584302FB0101A3FB0223E6440B44D10F94
:10368000D4F8082841EA430101F31E01AEEB4101E1
:103690009142A8BF009BCAF34000B5BF2AF0030ABD
:1036A00043F003034AF0010A84F81838B8BF84F8DD
:1036B00018A894F81838C3F34003984204D012B203
:1036C00009B2644804F0BCFF0023A6F80C38C6F821
:1036D0001038C6F8143894F81838DFF8889113F0C9
:1036E000010F99F8002003D10A2A40F02D811AE039
:1036F0000A2A03F002030BD0002B14BF404600201F
:1037000003F07CFA99F800300A2B40F01D8113E099
:10371000002B14BF4046002003F070FA99F80030E7
:103720000A2B09D015E1012F06D113F0020F14BFA7
:103730004046002003F062FA96F83438013B012B32
:1037400044D8B4F92439002B3BD094F82A2972B913
:103750009D4208DB012386F82A390023C6F82C395C
:1037600086F8303903E0B4F92639AB42F2DA96F83C
:103770002A3933B3D4F82C29B2F5166F16D894F839
:1037800030393548591CB4F9285950F82330C9B29A
:103790005D430B294FEAE53584F8301905F30F0531
:1037A0002DB204D9002384F8303900E00025531CE1
:1037B00042F6DF629342C6F82C3984BF002384F8B6
:1037C0002A39B6F8360945432DB200E000251848DD
:1037D00005F048F838B994F8000410B11F4804F017
:1037E000FDFF05442DB21D4805F03CF8002868D1C6
:1037F00096F8343830782BB9002860D00C4804F0A3
:10380000EDFF5CE000285AD0B4F8EC33144804EB28
:10381000D30203F007015278405C104028D0B4F87E
:10382000FA23D4F8F4138A5CF2B1B4F9FE031FE072
:1038300080930020B89B0020C09B0020C89B0020E4
:10384000D09B0020D89B0020E09B0020E89B00201C
:10385000809B00202AAA0008DCAB0008809700208B
:10386000E9BE0008A4B60020B4F8FE03404200B24E
:10387000B6F8FA23B6F8F813013292B29142A6F8DC
:10388000FA239CBF0022A4F8FA23B6F8F023B6F876
:10389000EE13013292B29142A6F8F0230FD8013311
:1038A000B4F8EA139BB200229942A4F8EC33A4F8CE
:1038B000F0239EBF2270A4F8EC23A4F8FA23284436
:1038C00005B22C4804F0CEFFF0B92B4804F0CAFF33
:1038D000D0B994F82A38BBB142F6E063D4F82C286A
:1038E0009A4209D994F830380133DBB23B2B94BFAC
:1038F00084F8303884F83008531C45F6BF529342A0
:1039000088BF0023C6F82C3829461C4804F0A0FCC8
:1039100001461B4804F09CFC01461A4804F098FC40
:10392000B6F82628D6F82018531C9BB2A6F82638DD
:1039300031F91220B6F82418104499429CBF002394
:10394000A4F82638ABF800000137022F7FF438AE18
:10395000019799F800000A2808D1BDF804200299BF
:10396000002307B0BDE8F04F00F05CBF07B0BDE832
:10397000F08F00BF8093002080970020F09B0020F4
:10398000149C0020389C0020F0B5454C97B0204690
:1039900004F0F3FA18B9B4F87035002B7DD0B4F800
:1039A00070553F4845BB3F4B1B7863B91946B0F88B
:1039B000740577258AB2904218D9224482F8C05003
:1039C00001310123F6E704F0A3FA0646EBB2B34255
:1039D0000FD2334804F09CFAB4F8703501355A1C04
:1039E0002344A4F8702583F8C000EFE70BB1A4F8D6
:1039F00070050023A4F87235B4F87035002B4CD054
:103A000000F09CFF06464FF4D277142E45D940F2C1
:103A1000EC414FF614304FF65C6EB4F87235002569
:103A20005A1C234493F8C030A4F8722503F0C00256
:103A3000802A0BD0C02A06D0002A0CBF724602464C
:103A40002DF8152004E02DF8151001E02DF8157063
:103A500001359B00042DDBB2E8D12B4602AA694652
:103A6000114805F02DF814230CAA02A90F4805F0FF
:103A700011FA002314220CA9284600F0D3FEB4F852
:103A80007215B4F87025143E9142B6B2044BBCD303
:103A90000022A3F87225A3F8702517B0F0BD00BF6F
:103AA000302E0020500F0020402E00204C2E0020F1
:103AB0002DE9F04FC24CB7B0204604F05EFA20B9B1
:103AC000B4F89C32002B00F0BA81638962689BB223
:103AD000D25CBB4D02F0FF03002A40F02881B5F80C
:103AE0009C62002E40F02881B64B1B7893B9194692
:103AF000B5F8A002AA258AB2904205D8002B00F0A2
:103B00003481A4F89C0230E1224482F8445001310F
:103B10000123F0E7284604F0FBF93546A84804F0F5
:103B2000F7F90DF805000135292DF7D100231A46C4
:103B30000DF1800E0BA95A540EEB03010133532BE8
:103B40008A70F7D10023184619469F4F4FF0010C99
:103B50001A4603461DF801800D0100260CFA06F0F6
:103B600018EA000F14BF0120002002EB00091A44DC
:103B70000244D20709F001090CD505F0070217F835
:103B800002B036AA02EBD50212F8ACAC4BEA0A0A34
:103B900002F8ACACB9F1000F0ED06A1C0DF1D809D7
:103BA00009EBD20902F0070217F802A019F8AC2CB1
:103BB0004AEA020209F8AC2C0136082E05F102058A
:103BC0001A4601D00346C9E701312A29C0D1DFF8DE
:103BD00004C2002160460DF1820301250CEB410275
:103BE0000732B1F5257F7ED236AE06EBD10616F848
:103BF000AC6C37060BD512F8079C12F8067C05FA58
:103C000007F813F8097048EA070703F80970770600
:103C10000BD512F8059C12F8047C05FA07F813F886
:103C2000097048EA070703F80970B7060BD512F8C0
:103C3000039C12F8027C05FA07F813F8097048EAA9
:103C4000070703F80970F7060AD512F8019C1778E0
:103C500005FA07F813F8097048EA070703F809702E
:103C60000F1DB7F5257F02F1080201D33946B8E7E9
:103C700032070BD510F8178000EB47077A7805FA62
:103C800002F713F808203A4303F8082072070CD50E
:103C90004A1D10F8128000EB4202527805FA02F732
:103CA00013F808203A4303F80820B7070CD58A1DFB
:103CB00010F8128000EB4202527805FA02F713F86E
:103CC00008203A4303F80820F2070AD5CA1D10F865
:103CD000127000EB4202527805FA02F6DA5D3243C6
:103CE000DA5508317AE7394D0DF18102002312F8D7
:103CF000010F595D01334140532B1170F7D1EA2375
:103D00008DF88030B4F89C12A6238DF88130002302
:103D1000CA181EF8030092B201332244552B82F8D0
:103D20004400F5D1264B5531A3F89C121DE0012B20
:103D30001FD1B5F89C322BB100F000FE40F249369D
:103D4000054649E0284604F0E3F80C25B4F89C62E7
:103D50001B48731CA4F89C3204F0DAF8013D264499
:103D600015F0FF0586F84400F0D10023A4F89E3238
:103D700020E0022B1ED1B5F89C32002BDCD1284666
:103D800004F0C6F8B5F89C32114D03F1120080B270
:103D900000229918565D89B201322144062A81F821
:103DA0004460F6D106339BB28342F1D1044AA2F8B3
:103DB0009C32DAE7B4F89C32002B40D0BCE700BF5D
:103DC000107C0020500F0020E9BE00080CAC000859
:103DD000CEAB000802A50008282D30D94FF6B74712
:103DE000B4F89E325A1C2344A4F89E2293F844004F
:103DF0000122002332EA00010BA90CBF21F8137045
:103E000021F8136001335200082BD2B2F2D120AA5C
:103E10000C4804F055FE0023282220A9012000F0C0
:103E200001FDB4F89E12B4F89C22283D9142ADB237
:103E3000054BD1D30022A3F89E22A3F89C2237B0D1
:103E4000BDE8F08F207C0020107C0020174B122250
:103E50001A60A3F580531A6842F410221A601A6897
:103E600013499003FBD54A6822F4741242F4E81215
:103E70004A600A6842F080720A6019680C4A890137
:103E8000FBD5516821F0F0015160516821F47C515B
:103E900041F480615160516841F0020151605A68FB
:103EA00002F00C02082AFAD1704700BF002002403D
:103EB000001002402DE9F047BDF82040BDF92880F0
:103EC000A51CADB205EB420201341FFA82FCBDF91C
:103ED0002490284AA4B2C8F1000AAF1EAC45BFB274
:103EE00045D001F10C0630F816E0FE10C9EB0E0EBD
:103EF0000FFA8EFED64507F007070CDA12F807E036
:103F00009F5D27EA0E079F5504F00707E61012F899
:103F100007E09F5D21E0BEF1000F0CDA12F807E028
:103F20009F5D27EA0E079F5504F00707E61012F879
:103F300007E09F5D0EE0C64512F807E09F5D4EEA80
:103F400007079F5504F007074FEAE40612F807E059
:103F50009F5D02DA27EA0E0701E04EEA0707053106
:103F6000023502349F5589B2ADB2A4B2B5E7BDE8BF
:103F7000F08700BFE9BE0008F0B5B0F8223704466C
:103F8000B0F828078FB09842C0F06D81B3F5617F1B
:103F900080F0698104EB4300A0F84A270183B4F85C
:103FA0002007002904EB800042684FEA4202B8BFB4
:103FB00042F00102426094F846272AB9A3F5C8737B
:103FC0005A2B0FD801210AE0B4F82427511E89B2D8
:103FD0008B4207D3013292B2934203D8002120468C
:103FE00004F02EF8B4F82237B4F82817994240F0BC
:103FF0002C81B4F93237B4F93067B4F938771E44FC
:10400000B4F934370EAD1E44B4F93637A1F28E211F
:104010001E44B4F93A3746F38F061F44B4F93C37CF
:1040200084221F44B4F93E3789B21F4494F84137C3
:1040300047F38F0705F8243D0823009302972B468A
:1040400001962046FFF736FF94F84137402B40F0A9
:10405000A1800DF112030DF113020DF1150104A859
:1040600004F066FB94F843279DF813309A4240F021
:10407000EC8000239DF8142084F8423784F84737F9
:104080009DF812301A438DF814200A2B6AD8DFE805
:1040900003F042375A696969061C1C691C002378C1
:1040A000B4F92427002B18BF0221334608BF012191
:1040B0007048009704F0EAF829462046FFF732FAE4
:1040C000022384F84637002317E094F84637022B82
:1040D00040F0BB802378B4F92427002B18BF0221BD
:1040E000334608BF01216448009704F0CFF8294601
:1040F0002046FFF717FA9DF8123084F84837A4E0FD
:104100002378B4F92427002B0097334614BF0221EB
:1041100001215A480DE094F84637012B0FD123783E
:10412000B4F92427002B33465548009714BF0221C9
:10413000012104F0ABF829462046FFF7F3F90123EB
:1041400084F8463781E094F84637012B7DD12378F7
:10415000B4F92427002B0097334614BF0221012114
:10416000484809E02378B4F92427002B3346464811
:10417000009714BF0221012104F088F82946204647
:10418000FFF7D0F9002384F8463742F20F73A4F802
:1041900028375AE0202B19D12378B4F92427002B93
:1041A00018BF0221334608BF01213848009704F0A8
:1041B0006DF829462046FFF7B5F9012384F8463704
:1041C000002384F8423784F847373EE094F84637B6
:1041D000002B3AD094F842370133DBB20C2B84F831
:1041E000423709D9207802F097FE002384F8463739
:1041F00042F20F73A4F8283794F84637012B17D1F1
:1042000094F847372222042B8DBF20230133DBB2E1
:104210008DF8143086BF002384F8473784F8473779
:104220002946207898BF8DF8143000F06BFE0CE022
:10423000022B0AD194F848373BB143F0400329469A
:1042400020468DF81430FFF76DF9B4F822370133AA
:10425000A4F82237B4F8203701339BB2042B88BF6F
:104260000023A4F8203794F84607003018BF012037
:104270000FB0F0BD4AAA000881AA0008B9AA000838
:10428000F1AA00082CAB000868AB000898AB000846
:104290002DE9F0411C4C054604EB0016304603F0B6
:1042A0006CFE202820D9D4F8DC30132B1CD905F162
:1042B000380354F82330052B16D904F1AE0504F168
:1042C000CF074FF00008304603F022FE05F8010F3B
:1042D000BD4205F8288CF6D12123A4F8D83000235C
:1042E000A4F8DA30BDE8F081084B2544002285F8B7
:1042F000E82003F1210113F8010F8B4283F86200DB
:1043000083F83A20F7D1E7E788160020D41600207A
:104310002DE9F0414E4CDFF83881D4F8DC30064608
:104320000133C4F8DC30D4F8E0300F460133C4F870
:10433000E030D4F8E43008F16F050133C4F8E4301C
:1043400094F86E300B2B84BF002384F86E3094F801
:104350006E30ABB9404603F010FE48B908F11000CA
:1043600003F00BFE20B93B4A1368C8F86F3003E036
:10437000394A1368C4F86F3053686B609368AB6058
:1043800094F86E20354B15442A88012FA4F8AF20ED
:10439000AA784FF000009A700CBF0822042284F81B
:1043A0008920D4F8DC2084F88700132A84F8880058
:1043B000A3F1AF0306D903EB071003F0DEFD0030D5
:1043C00018BF0120731E94F86E50594259412DB107
:1043D000B5F1090218BF0122012301E02B46012299
:1043E00094F8AFE0012E81EA00070CBF08260026F2
:1043F0004EEAC0103043002B84F8AF0081EA03017D
:1044000014BF802000209F4214BF0223002394F891
:10441000B060914214BF20210021304340EAC20025
:10442000974214BF02220022034384F8B03094F86C
:10443000B13019430323A4F8D83000230A43A4F869
:10444000DA30EB1C84F8B12084F86E30BDE8F081DE
:10445000881600205BAF00080317002037170020E4
:104460002DE9F04F831EA7B00393A24F8B1E049338
:10447000831C059307F1020A039B049933F9022F69
:10448000DFF8B492039331F8023F09F10408049174
:10449000D9F80010984E0B44C9F800303988B8F8A4
:1044A000003006EB81010133A8F800304B68002A88
:1044B0004FEA4303B8BF43F001034B60BAF8003042
:1044C000B34603F10C0126F8112032788B4C012AF7
:1044D00040F0368121896289914206D28B4207D30E
:1044E000934205D803F09EFF02E08B42F8D3F9E730
:1044F000834B21881A88914240F05B81DA89052A32
:1045000012D15B8803F65F1292B2B2F5166F28BF24
:1045100003F1FF3222815A1C92B2B2F5166F2ABF04
:10452000A3F65F1362816381764B774A4FF47A5C1E
:104530001888114663464FF4F07500F10C0E3BF9F4
:104540001EE0BEF1000F06DD7145B8BF7146734530
:10455000A8BF734605E0F445A8BFF4467245B8BF4E
:10456000724600F1050E1FFA8EFEBEF5166F05F1BC
:10457000FF3528BFA0F65B10ADB228BF1FFA80FE42
:104580000DB17046D9E719446244491052108D1894
:104590006D100FFA85FB4D1B2DB25B4612B209B2AE
:1045A00000955A4803F072FE5949534A0B78632B21
:1045B0000BD1584AA1F1460323F802BF9A425D8409
:1045C000FAD1534B00221A700DE003F6781022F84E
:1045D00010B003F688100133DBB202EB40020F2B60
:1045E00055800B70EDD800231A46DFF850B1ABF8B8
:1045F0000030ABF82230ABF12201ABF1020531F80B
:10460000020F0244488C8D42034412B21BB2F6D111
:10461000414D12111B1135F9521C4048ABF80020D6
:104620002B8004F00DF8B5F9003035F8560C0193E5
:10463000BBF9003007AA00934FF4F071082303F090
:1046400085FE35F846BC0BF1FF3B1FFA8BFB25F8C6
:1046500046BCBBF1000F2AD1314804F03FF8584660
:1046600003F0ACFF2F4B83F821B32F4B1B78032BA8
:1046700000D08BB92D4B1B7873B1E0238DF8183027
:10468000212303218DF81A3006A8294B8DF8191023
:104690009847284B00221A6042F20F71184A0023F3
:1046A00011806321337082F8561013741FE0ABF150
:1046B0000403D3F1000BB8F800204BEB030B8DF88B
:1046C0001CB05AB1D9F800307B21B3FBF2F3C3F32D
:1046D00007228DF895208DF8963000E0792107A803
:1046E00003F078FF0023C9F80030A8F8003045F83F
:1046F0004A3C5EE008B3002030A000200AB300204E
:104700000EB300200CB3002080C1FFFFD2AC000824
:1047100064B300203EB3002062B30020F2AC000876
:1047200019AD000874B30020A4B6002018070020BB
:104730001D0700201800274268B3002040B3002066
:1047400003F070FE88B1237D7BB90120C9F80030E9
:10475000A8F8003003F032FF224B012283F8212316
:10476000632384F85A3005232375237D13B11E4A31
:10477000013B1370237D012B1BD11C490B8803F6D1
:104780005F1292B2B2F5166F28BF03F1FF324A8072
:104790005A1C92B2B2F5166F154924BFA3F65F13E7
:1047A0000B804FF0010333704FF0000338BF0A80D5
:1047B00023752388059A01339BB2B3F5166F28BF82
:1047C0000023AAF800300B4B1B8801339BB2042B4B
:1047D00088BF00233B80039B93427FF44DAE27B0FC
:1047E000BDE8F08F74B300201EB3002010B300208A
:1047F00014B3002008B3002038B50446084803F07D
:10480000DCFB20280AD904F1210514F8011F044813
:1048100003F092FBAC42F8D1002038BD052038BD32
:10482000941100202DE9F84F404C98462378894692
:104830009246002B77D094F82C33002B73D13C4B4D
:104840001A7832B901221A7094F804335340394A65
:104850001360013809281BD8DFE800F005080B0EAB
:1048600011141A1A1A17B4F90A6313E0B4F90C6395
:1048700010E0B4F90E630DE0B4F910630AE0B4F986
:10488000126307E0B4F9146304E0B4F9166301E0BD
:10489000B4F90863254D00274FF0010B574542D06E
:1048A00039F91730B4F81A137343DB1303F30F030A
:1048B000194489B2B1F5805F22BFB5F824330133C2
:1048C000A5F82433B8F1000F04D142461A4804F089
:1048D00099F826E094F8283003F0FF0213B185F828
:1048E00029B01EE0B5F824E0EB691FFA8EFE18F837
:1048F000070023F81E10AB8C296A9BB2C854AB8CFE
:10490000298B01339BB2AB84AB8C9BB2994298BF8D
:10491000AA84A28CE38C92B29BB29A4208BF85F81B
:1049200028B00137BAE7BDE8F88F00BF74B30020A4
:10493000500F0020B08121428CB30020114AD18C4D
:10494000938C89B29BB2994204D192F828309BB9DA
:10495000108B12E0D18C938C89B29BB2994206D213
:10496000918CD08C138B80B21844401A02E0D38C07
:10497000908C181A80B200E00020138B834238BF5D
:104980000020704774B30020F0B5434C8DB0B4F8EC
:10499000EC542DB1FFF7D2FF4FF4E37605460FE05C
:1049A000204603F0EAFA00284DD104E0A4F8EC1404
:1049B0000023A4F8EE34B4F8EC34002B69D0E9E716
:1049C000142D66D940F252504FF6AE274FF63A6E8C
:1049D000B4F8EE345A1C2344A4F8EE2493F83C2097
:1049E000002302F0C00180290BD0C02906D0002985
:1049F0000CBF714639462DF8131004E02DF8130052
:104A000001E02DF8136001339200042BD2B2E8D1FB
:104A1000214F02AA694607F1100004F051F8002363
:104A2000142202A90220FFF7FDFEB4F8EE24B4F828
:104A3000EC34143D9A42ADB2C2D30023A7F8EE3451
:104A4000A7F8EC3425E0154B1B785BB9D4F8F014CB
:104A50005F209AB2914203F10103A7D9224482F860
:104A60003C00F6E70C4803F053FA63190135212D99
:104A700083F83C00F6D10A480023E218195C0133A0
:104A8000272B82F85D10F8D1034B4822A3F8EC24C1
:104A90008EE70DB0F0BD00BF94110020500F002034
:104AA000ABAC0008164AF0B50023164F164DC2F8FD
:104AB0007B30C2F87F30C2F8833003F0070EDC1081
:104AC000065DD95D15F80E40013326424FEAE10438
:104AD00001F007010BBF6E5C1619111915F801E002
:104AE0000BBF91F87B1096F87B10B1434EEA0101A1
:104AF0001444442B84F87B10DFD10020F0BD00BFAC
:104B00008816002067AC0008E9BE0008222970B5AD
:104B1000044621D1134D05F1100003F04EFA202870
:104B20001CD995F8E9302BB100232B8385F8E930A7
:104B30006B832B7704F121060A4D14F8011F05F150
:104B4000100003F0F9F9B442F6D1074B187838B9E0
:104B5000012385F84C3070BD042070BD052070BD68
:104B6000002070BD88160020500F00202DE9F04372
:104B70005A4C93B094F84C30002B00F0AB80B4F852
:104B8000D820002A4FD1013B042B45D8DFE803F0A1
:104B900003440E0813000020FFF77AFB042340E0D3
:104BA00000210120FFF7B4FB03233AE00120FFF7C7
:104BB0006FFB022335E04A4B1B78622B0CD1494B2B
:104BC0005F2003F12102002103F8010F934203F853
:104BD000281CF9D1212319E05F2B19D1414B552015
:104BE000DA1D002103F8010F9A4203F8281CF9D1BD
:104BF0005F2384F8B6303C4BFF20DA1D002103F818
:104C0000010F9A4203F8281CF9D10F23A4F8D830D9
:104C10000023A4F8DA3006E001210020FFF778FB3A
:104C2000012384F84C30B4F8D830002B52D0FFF771
:104C300085FE06464FF4E378142E4BD9B4F8DA20FB
:104C40004FF6AE20A11891F8AF3091F887904FF64B
:104C50003A6E40F252510132A4F8DA20002503F0F6
:104C6000C002802A01AF0BD0C02A06D0002A0CBF98
:104C70007246024627F8152004E027F8151001E0D7
:104C800027F8158001359B00042DDBB2E7D11422F3
:104C9000002103A804F0B4FB8DF81690DFF83C90D7
:104CA0002B4608AA394609F1200003F009FF03AB9F
:104CB000142208A90220FFF7B5FDB4F8DA20B4F8F1
:104CC000D830143E9A42B6B2B6D30023A9F8DA30EF
:104CD000A9F8D83013B0BDE8F08300BF88160020D3
:104CE000A4B60020361700203E17002010B5174B41
:104CF000174A03F1200153F8044B8B4242F8044B4E
:104D0000F9D11B780001137040F00900114BC0B2BB
:104D100033F810301049DCB29B0A8008A20803F077
:104D20003C0381F8590043EA841302F0300002F09A
:104D30000F0240F04D0062F02F0243F0030381F8B0
:104D40005A0081F8602081F8613010BD3AAF000848
:104D5000D51600203AAD00088816002030B5002393
:104D6000ADF5217D02060BD5154A0DEB030102F1CD
:104D7000280452F8045BA24241F8045BF9D10AE02E
:104D8000104A0DEB030102F1280452F8045BA24221
:104D900041F8045BF9D128334000B3F5A07FC0B2DD
:104DA000E0D150AA6946A023074804F073F8002315
:104DB000A02250A90620FFF735FD0DF5217D30BD5D
:104DC00090AF000868AF0008640F002070B5E023C2
:104DD0008EB08DF80430C4B210238DF80630C4F1C3
:104DE0000306C3B29A191B1BDBB29942D2B206D991
:104DF00010F8015B0EAB134403F8345CF1E70331A8
:104E0000C9B201A8044B8DF805109847034B002246
:104E10001A600EB070BD00BF1D07002018002742A9
:104E200007B5E0238DF8043070238DF80630084B69
:104E300004219B780DEB01008DF80730054B8DF8B0
:104E400005109847044B00221A6003B05DF804FB7C
:104E5000A8B600201D0700201800274207B5E02350
:104E60008DF800307F238DF80230094B05219B78A7
:104E70008DF804008DF803306846064B8DF801105C
:104E80009847054B00221A6003B05DF804FB00BF91
:104E9000A8B600201D0700201800274270B5154B4A
:104EA00086B01B78012B23D8134B1B7803B3E02368
:104EB0008DF80430C4B211238DF80630C4F1030616
:104EC000C3B29A191B1BDBB29942D2B206D910F8B1
:104ED000015B06AB134403F8145CF1E70331C9B27C
:104EE000064B01A88DF805109847054B00221A6063
:104EF00006B070BDA4B60020140700201D070020D6
:104F00001800274270B5174B8AB01B7813F0FD0FBD
:104F100026D1154B1B781BB3E02300288DF80030F9
:104F2000CCB214BF1A2318238DF80230C4F1030643
:104F3000CBB298191B1BDBB29A42C0B206D911F84A
:104F4000015B0AAB034403F8285CF1E7D11CC9B24A
:104F5000064B68468DF801109847054B00221A60F1
:104F60000AB070BDA4B60020150700201D07002060
:104F7000180027422DE9F04FC34CA9B0254626461C
:104F80008B1E0293831E03938B1C0693029A32F8A6
:104F9000023F0292D4F858231344C4F85833B4F8AB
:104FA0005C330133A4F85C33039B33F9022F039382
:104FB0002379D10F8B4209D02368B3F5004F2ABF64
:104FC0006FF4CC7803F29913434423602B68297162
:104FD00003F54C513331B1F5803F01D22160CBE371
:104FE000A3F54C43CD3B23606379012B54D003D30D
:104FF000022B00F00D83BFE3A368002A4FEA4303AE
:10500000B8BF43F00103A360AF68A04827F07F4713
:10501000784003F001F802280FD89D4803F05EFBAA
:10502000532200219B4804F0EBF900232367C4F8C6
:105030005833A4F85C3301232CE09748784002F001
:10504000EBFF8046002840F09783944803F046FB2E
:10505000012003F0B3FA924B012283F82123914BF4
:105060008C4F18685968C4F8588303C79868A4F827
:105070005C833860A7F1080002F02CFB0E22414649
:10508000A7F1080004F0BCF94FF416536367C4F8A5
:105090007080022363716FE3A368002A4FEA430321
:1050A000B8BF43F00103A3602B6F002A4FEAD3017E
:1050B000B4BF7D4F7D4F03F0070204EB0100B5BF85
:1050C000BF5CBF5C027B027B03F10103B4BF3A43C8
:1050D0003A402944B3F5257F0A732B6740F04C838F
:1050E000734A744F002312F8010FD95D0133414018
:1050F000532B1170F7D10023194613AA9954013389
:10510000542BFAD1DFF88CE16B4B00228021B2F5F1
:10511000257F0BDB0022EA67C5F88020C5F88420D4
:10512000C5F88820AA67DFF89481C9E0D01010F88C
:105130000E00C70710D513F812700DF1A00C6744CC
:1051400003EB420C9CF801C021FA0CF817F854CC80
:1051500048EA0C0C07F854CC870712D502F1010C71
:1051600013F81C7003EB4C0C0DF1A0089CF801C067
:10517000474421FA0CF817F854CC48EA0C0C07F80D
:1051800054CC470712D502F1020C13F81C7003EB44
:105190004C0C0DF1A0089CF801C0474421FA0CF812
:1051A00017F854CC48EA0C0C07F854CC070712D572
:1051B00002F1030C13F81C7003EB4C0C0DF1A0086A
:1051C0009CF801C0474421FA0CF817F854CC48EA7F
:1051D0000C0C07F854CC171DB7F5257F01DB3A46B8
:1051E00095E710F0100F0FD013F817C003EB470727
:1051F0000DF1A0087F78C44421FA07F81CF8547C0C
:1052000048EA07070CF8547C870612D502F1050C12
:1052100013F81C7003EB4C0C0DF1A0089CF801C0B6
:10522000474421FA0CF817F854CC48EA0C0C07F85C
:1052300054CC470612D502F1060C13F81C7003EB90
:105240004C0C0DF1A0089CF801C0474421FA0CF861
:1052500017F854CC48EA0C0C07F854CC000610D5CB
:10526000D71D13F8170003EB47070DF1A00C7F784B
:10527000604421FA07FC10F8547C4CEA070700F858
:10528000547C083243E700BFD09C00205076550084
:1052900051B50008DC9C002068B4AA0073B5000872
:1052A00074B3002004B60008FCB5000849B5000836
:1052B000DB9C0020E0B40008B8AF000841B500084E
:1052C00028AB03EBE20313F8540C802102F0070330
:1052D000D9404027014027FA03F314BF4FF0010CD7
:1052E0004FF0000C0340B1FA81F1B3FA83F314BF1D
:1052F0004FF0010E4FF0000E49095B0901EB030A64
:105300000CEB0E0971446344D4F884E0D4F87CC0FB
:105310000AEB0E0B09EB0C075F453846A8BF584651
:105320000593A36F5F45019304914FEAD30301995D
:10533000A8BFB04F079003F1220004EB800001F0FA
:105340000701B5BF476817F801B018F801B0476802
:10535000CE44D444B4BF07EA0B0747EA0B07F44531
:10536000E346A8BFF346F4454760A8BFA14803F150
:105370004C0704EB8707B5BF786810F801E018F810
:1053800001E07868B4BF00EA0E0040EA0E007860E1
:10539000D4F880C00498D4F888E000EB0C07059896
:1053A000B94670448742A8BF81468742A8BF91484A
:1053B00003F1760704EB8707B5BF786810F801A002
:1053C00018F801A07868B4BF00EA0A0040EA0A00B1
:1053D00078600598A03360448446049805EB830305
:1053E00070448646F4456046A8BF7046F4451EDA10
:1053F00018F80170596839405960079B0232EB6711
:10540000019BB2F5257F03F10103C5F880B0C5F813
:105410008490C5F88800AB677FF452AF75480023CD
:10542000194640F249128646DFF8E0C104E0714FA8
:105430007F5C59683943DFE703294FD8DFE801F083
:1054400002101D34D71006EB870702F0070810F88A
:105450000880D7F88C7018EA070F18BF022118E0EF
:10546000D11006EB810102F00707D1F83411C75DB6
:105470000F420CBF0021022123E0D11006EB810175
:1054800002F00707D1F8DC11C75D0F420CBF012104
:10549000032103F0070706EBD3081CF8079098F8E0
:1054A0002C7309EA070716E0D71006EB870702F00E
:1054B000070810F80880D7F8847218EA070F08BFA9
:1054C000012103F0070706EBD3081EF8079098F8B0
:1054D0002C7349EA070788F82C73013312F1FF3265
:1054E000AAD200231A4608A9CA540133292BFAD19B
:1054F00040F249133F48012706EBE30103F0070C94
:1055000091F82CE310F80C10C3F5A4721EEA010FF9
:1055100002F101020ED0D1080DF1200E1EF801E0BB
:1055200002F0070207FA02F242EA0E020DF1200E23
:105530000EF8012013F1FF33DED21A462E4F002061
:1055400008AB195CC2F307235140C9B237F81120E8
:105550000130534027281A46F2D1DB439DF847100B
:10556000DAB2914209D19DF84820C3F307239A1A71
:1055700053425341002B3AD001E0002337E0012091
:1055800003F01CF81D4BB6F85C13012283F82123AD
:105590001B4A89B1D4F85833B3FBF1F3C3F30721A5
:1055A0008DF849108DF84A301378012B0ED8154B21
:1055B0001B785BB12B2106E01378012B06D8114B29
:1055C0001B781BB1292108A8FFF700FC00270E2239
:1055D00039460D48C6F85873A6F85C7303F010FFFF
:1055E000022373714FF4165337677367C4E0737106
:1055F000C2E000BFE9BE000828B6000874B300206E
:10560000A4B6002014070020DC9C002041B500084F
:10561000A368002A4FEA4303B8BF43F00103A36025
:105620002B6F002AB4BF584F584F4FEAD30103F0F5
:10563000070204EB0100B5BFBF5CBF5C027B027BCD
:10564000D5F808805248B4BF3A433A4029445F1C19
:1056500088EA00000A732F6702F0DEFC012821D8D7
:105660004C4803F03BF8002002F0A8FF4A4B00270B
:1056700083F82173494B1B78012B10D8484B1B78BA
:105680006BB1E02303218DF84C308DF84D101323BE
:105690008DF84E3013A8434B9847434B1F600023AF
:1056A0006B7169E05C2F0FD9404828F07F43584068
:1056B00002F0B2FC022807D8602323674FF4165388
:1056C00063674FF0010901E04FF000092B6F602B79
:1056D0001AD1B9F1000F17D1DFF8D0B001276FF060
:1056E0007F4A2AFA07F303EA08032BFA07F0584027
:1056F00002F092FC022804D8FFB2C7F160072F67BE
:1057000002E00137042FECD16F6F013F6F67C7B91B
:10571000274802F0E3FF384602F050FF1E4B83F8A3
:1057200021731E4B1B78012BB9D81D4B1B78002B06
:10573000B5D0E02303218DF84C308DF84D101223A5
:10574000A6E7236F602B17D1B9F1000F09D05523BD
:1057500063752D23A37517481623E37501F0BAFF6F
:1057600003E00C211348FFF799FB0E22002111489A
:1057700003F046FE00232B67069B029A93427FF4B8
:1057800005AC29B0BDE8F08FFCB5000849B50008AC
:105790005E13AAAA94B5000874B30020A4B6002032
:1057A000140700201D0700201800274268B4AA0033
:1057B000B4B50008DC9C0020F0B54E4CABB02046E0
:1057C00002F0DBFB20B9B4F88435002B00F09080A8
:1057D000B4F88435002B3CD1474B1B7833BB1946BA
:1057E000444A5F25B2F888058AB2904205D922441E
:1057F00082F8D45001310123F6E70BB1A4F88405F7
:10580000B4F884355721E21882F8D4105A1C92B2A9
:105810002244752182F8D410DA1C02339BB2A4F81A
:1058200084252344FD2283F8D4200FE0302531481D
:1058300002F06EFBB4F88435013D5A1C15F0FF05EB
:105840002344A4F8842583F8D400F0D10023A4F8DD
:105850008635B4F88435002B4AD0FFF76FF805463B
:10586000F526282D44D940F2DF204FF621574FF678
:105870000B7EB4F886355A1C2344A4F8862593F889
:10588000D420002302F0C00180290BD0C02906D00B
:1058900000290CBF714639462DF8131004E02DF88D
:1058A000130001E02DF8136001339200042BD2B2F3
:1058B000E8D102AA6946114803F002F9282316AA82
:1058C00002A90F4803F0E6FA0023282216A90520B2
:1058D000FEF7A8FFB4F88615B4F88425283D914258
:1058E000ADB2044BBDD30022A3F88625A3F88425CE
:1058F0002BB0F0BDA8330020500F0020B83300209B
:10590000C433002043681BB102680AB1023343600C
:10591000704700002DE9F04FBDF928C09F1CBDF96C
:1059200024800133DFF8C4902F4EBFB29BB24FF0FA
:10593000000ECCF1000A1FFA8EF5BC1EA942A4B2DB
:105940004FD900F10C0539F815B0E510C8EB0B0B79
:105950000FFA8BFBD34504F007040CDA16F804B0F9
:10596000545D24EA0B04545503F00705DC1016F8C7
:1059700005B0155D21E0BBF1000F0CDA16F804B09C
:10598000545D24EA0B04545503F00705DC1016F8A7
:1059900005B0155D0EE0E34516F804B0545D4BEA22
:1059A0000404545503F007054FEAE30416F805B064
:1059B000155D02DA25EA0B0501E04BEA05051555F0
:1059C000451DACB2B4F5875F22BFA0F586541B3CE1
:1059D000A4B2023702330EF1010EBFB29BB22046D1
:1059E000A9E7BDE8F08F00BFE9BE0008243D002014
:1059F00042F2D8132DE9F043704C7148E35A85B058
:105A000004EB83035B6823F07F43584002F004FB00
:105A1000022800F2CF8042F2DA13E75A4FF0000E6C
:105A200007F583550D35ADB2B5F5875F38BF2A460A
:105A3000764628BFA7F173026248DFF88CC128BF01
:105A400092B24FF47A5102F10C0334F913301EF97B
:105A50000C809842B8BF18469942A8BF1946B8F1C1
:105A6000010F0AD0B8F1030F05D0B8F1FF3F06D0FF
:105A700003EB430303E003EB4303F61A00E01E4489
:105A8000531D9BB2B3F5875F24BFA2F586521B3A24
:105A90000EF1010E28BF93B2BEF1180F01D01A46C5
:105AA000D1E742F2EC12A258444BB24280F282801B
:105AB00042F238229A5C632A0CD142F21422014449
:105AC00049109952411A44F63E1042F2362241439F
:105AD000C913995242F23623E35EB5F5875F01930D
